:020000021000EC
:108000000040002061FF01009DFF01009FFF010073
:108010000000000000000000000000000000000060
:10802000000000000000000000000000A1FF0100AF
:108030000000000000000000A3FF0100A5FF0100F8
:10804000A7FF010021AE0100A5060200A7FF010065
:10805000A7FF01000000000061000200A7FF01006F
:10806000A7FF0100990802002D050200A7FF0100EB
:10807000A7FF0100A7FF0100A7FF0100A7FF010064
:10808000A7FF0100A7FF0100A7FF0100A7FF010054
:10809000A7FF010079FD0100EDFC0100A7FF010031
:1080A000A7FF0100A7FF0100000000000000000082
:1080B00000000000000000000000000000000000C0
:1080C0000448054B10B5834203D0044B002B00D06D
:1080D000984710BDAC200020AC200020000000001C
:1080E00006480749091A8B10C90FC91810B549105D
:1080F00003D0044B002B00D0984710BDAC200020CB
:10810000AC2000200000000010B5074C2378002BA5
:1081100009D1FFF7D5FF054B002B02D0044800E042
:1081200000BF0123237010BDC82000200000000004
:10813000207A0200054B10B5002B03D004490548F6
:1081400000E000BFFFF7CCFF10BDC04600000000FC
:10815000CC200020207A0200402292029A1A9246F5
:108160007047C046154B002B00D1114B9D46FFF7C1
:10817000F3FF00218B460F461148124A121A0AF0EB
:108180002DF80C4B002B00D098470B4B002B00D048
:1081900098470020002104000D000B4809F09AFECA
:1081A00009F0E0FE200029000EF004FA09F0B0FE0C
:1081B0000000080000000000000000000040002057
:1081C000B02000204C2A00203D1F020010B5040002
:1081D000034B036040300BF0D9F9200010BDC046BE
:1081E000746902000F2270B5012486B00B4E6A44F8
:1081F000107023003A2130000094172502F014FA81
:1082000000236D442A003A2100933000230002F03D
:10821000FBF928780AF0D1FF06B070BD9C21002040
:10822000054B10B51B780548002B00D00A2302220D
:10823000110001F087F810BD7A29002048220020A3
:108240001FB50123034A11784B401370FFF7E8FF75
:1082500005B000BD7A29002010B5054C200000F0C3
:1082600085F82000034A04490EF04EFB10BDC046BD
:10827000E4200020002000207D820100CA23144A4F
:108280009B0010B5C2501C330400C0180BF07EF9DF
:10829000D0239B00E0180BF079F920009130FF30DB
:1082A00001F0D6FB20006930FF3001F0D1FB200047
:1082B000F03001F049FF2000D03002F083FB2000B5
:1082C000643007F0ABFD201DFFF780FF200010BDDC
:1082D000006E020013B501210D480BF0FFFB3020AA
:1082E0000EF021FB10230400022100930322094B0E
:1082F0000BF0E6F82100084802F0F8FA002805D053
:1083000020000BF0F7F820000EF005FB13BDC0466F
:108310007422002041820100B421002013B50E48D0
:1083200000F0DCF801210D480BF0D8FFFFF7D2FF79
:108330000120FFF757FF04000320FFF753FF084A0F
:108340000300127807490092074822000DF0F8FF59
:10835000322000F063FDEBE7E4200020D421002070
:108360007A29002035740200E82000201423F0B59B
:10837000040093B0192200931821043002F0A0FDEC
:1083800023002500260064331800B4351321109310
:10839000B83607F04FFD28000CF06EFB00221E21BE
:1083A00030000BF0C0FF2000D03002F02BFB230088
:1083B000F03307211800464A119301F0EDFE20002A
:1083C0000027012369301A0011210097FF3001F0C6
:1083D0004BFB20009130012302221A210097FF302D
:1083E00001F042FB2000B930022201210323FF30BB
:1083F00002F0DAFB300001F03DF9E4235B00E050CD
:10840000300001F08BFBE6235B00E0500100E4222A
:1084100020005200D130119BA2580095FF3001F08E
:10842000D5FD2000E13029000822FF3002F0E2FEF5
:10843000782320000F93013B0E93033B0D93013BE8
:108440000C93013B0B93013B0A93013B0993013BC6
:108450000893013B0793013B0693013B0593013BC6
:108460000493013B0393013B0293013B0193F930D9
:10847000013B652200936421013BFF300BF074FF48
:10848000CA239B002900E01803F050FED3239B0071
:10849000E018092102F060FCDD239B00E7501098F2
:1084A000032127700DF014FF23002200200009494A
:1084B0009C33A0321C6011605760074A02215A6148
:1084C0008030012207F07EFE200013B0F0BDC046D0
:1084D0007C690200DF310200C93102000278F0B588
:1084E0000123170004008FB01F401A4200D085E01E
:1084F0000300D0331800039300F000FB00F0E4F910
:1085000030200EF010FA050010300BF0CEF82800E5
:1085100024300AF062FF6F4B18202B600EF003FA34
:1085200006006D4B0822390004600C300C930D9747
:1085300009F054FE0CA90822301D09F09DFD674B7F
:108540002900736112230398AE60EF60AB802F6245
:10855000EF6202F0CBF9002805D028000AF0CAFF2C
:1085600028000EF0D8F9012327002278B4371343EE
:1085700023705B4938000CF085FA002659490590B4
:1085800038000CF07FFA35000690642000F046FCBD
:10859000049623006933FF33180007930BF0A1FA08
:1085A00000282DD1059B002B34D1069B002B31D107
:1085B000DD254D494D48AD0000F0F4FC6359002B1A
:1085C0001CD100F0A1F801000BA800F03FFE0CA8A0
:1085D0000AF079FECA239B00E018069B0CAA0BA99F
:1085E0000093039B03F0FCFD0CA80AF0CFFF0BA83F
:1085F0000AF0CCFFCC239B00E35863510FB0F0BDD1
:1086000020009130FF300BF06CFA0028CAD0049B98
:10861000182BC7DC20006530FF2329B232B2FF30AF
:1086200000F090FE322000F0F9FB049B013501338D
:10863000EDB20493052D02D100250136F6B2049B5C
:10864000192B0AD0059B002BA3D03800244902F037
:1086500065FD05980EF05FF902E0059B002BF4D153
:10866000069B002B02D018000EF055F91E491F483A
:1086700000F098FCCA239B00E3180893DD239B00BD
:10868000E3580993002B1ED100F03EF801000BA81F
:1086900000F0DCFD0CA80AF016FE01230CAA0BA9C1
:1086A00008980093039B03F09BFD0CA80AF06EFF53
:1086B0000BA80AF06BFFCC239B00E3580993DD2342
:1086C000099A9B00E2502100079A0898F03103F0C4
:1086D00079FF5EE7FD030000513202001132020013
:1086E000407402004B74020000200020001C002097
:1086F000BFF34F8F024B034ADA60BFF34F8FFEE7A1
:1087000000ED00E00400FA05F0B58BB003AF1922CC
:108710003800154909F0B0FC0023144D05266B7193
:1087200080235B055B6E2C000093012301933100D5
:10873000009808F05BFA0800019908F0D1F90522C9
:10874000009B56431B1A0093019B534301932B1B21
:108750005343FB181B5C013C6371054B9C42E6D103
:1087600002480BB0F0BDC046917402007B29002086
:1087700076290020F0B595B01822002104000EA83B
:1087800009F02CFD13210EA80DF0F2FE03210EA816
:108790000DF099FF464B1B68002B00D10133DBB273
:1087A000009300210123434A09A807F07BFEFA2326
:1087B0009B009C429B411C4072B63F4B64211E684B
:1087C0003E4B20000593052508F014FA684350300D
:1087D00030180A210690200008F00CFA0A2108F04F
:1087E000EFFA694350317118200007910A2108F00F
:1087F000E7FA4D4350357619089680260024B601D5
:10880000009B002B52D004AD0027032C02D1802600
:108810000024B6016B682A4A02936300D318002231
:10882000019258780299095C039119788C461021BD
:10883000604601410398014204D001209040019913
:108840000143019101320633092AEAD1019B2A68CA
:10885000D9431C4B09011940029B934224D1312F6B
:1088600022DC002109A80DF0E7FFFA23139A0F99E3
:10887000DB001068014219D0013B002BF9D1FA232B
:10888000013401377600E4B25B009F42BDD104356C
:1088900008ABAB42B8D1064B1B68002BB0D0009B95
:1088A000013BDBB20093ABE73143DBE7FFF720FF8F
:1088B00060240020F0FF000004200020E07402008B
:1088C000AA740200F01F0000F8B50023124C2360C8
:1088D0000AF01AFD002808D0042120000AF010FD3B
:1088E000002801D00D4B2360F8BD0122A1270425EB
:1088F0000B4B0C491A602268FF0048604E68002E3E
:10890000FCD0DE591202013D3243002DF5D1226028
:1089100001225A60E8E7C0465C240020ED5EBC0BF3
:1089200000D00040FCD00040F0B585B01F000AAB7D
:108930001B880600150002910393002F1BD03020E6
:108940000DF0F1FF6B4604001989039BAAB2009356
:108950003B000AF0B5FD3368210030005B689847A2
:10896000002806D020000AF0C5FD20000DF0D3FF3E
:10897000024805B0F0BD0248FBE7C04616FCFFFF09
:1089800017FCFFFF0B4B70B51C68002C10D0656DF9
:1089900000F018FCA36C002901D1834206D8200006
:1089A0000AF0E3FC200004490AF0CFFC2C00ECE7BD
:1089B00070BDC0466824002088240020F0B595B022
:1089C00007932A4B04AC1E68049005910692002E72
:1089D00049D0274B258867881C6800230293002C08
:1089E0002DD0636D23480393A36C190C9AB20B002E
:1089F000854214D12048824211D1002901D0B942C8
:108A00000BD1029B002B08D120000AF0AEFC200005
:108A10001A490AF09AFC01230293039CDFE7002A1B
:108A200001D09542F9D1002901D0BB42F5D12000F7
:108A30000AF09BFC200011490AF087FCEDE7104B7F
:108A4000EB18012B0FD910233A002900009308A836
:108A50000C4B0AF035FD336830009B6808A9984735
:108A600008A80AF047FD15B0F0BDC04664240020F8
:108A700098240020FE030000FF030000882400204B
:108A800002FCFFFFBD89010010B572B60E4B1C68D9
:108A9000002C0ED020000AF068FC0023E3640B4B8E
:108AA000E36372B60A4B1A681C60A26562B62000C6
:108AB00010BD62B65C200DF036FF5C220021040080
:108AC00009F08CFBE9E7C04690240020004000201C
:108AD0008C240020074B10B51C68E36CDB0706D51F
:108AE000FFF7D2FF044B1860002800D004002000DC
:108AF00010BDC0469C2400206C240020F7B51E4CFD
:108B00000123227816001E401A4233D11B4D2860E3
:108B1000FFF7BAFF1A4B1B4918600AF016FCFFF763
:108B2000B3FF194B1860194B4363194B83632868D3
:108B300000280FD0C023174F3200174900933B0085
:108B4000FFF7F2FEC023009332003B001349286870
:108B5000FFF7EAFE0C200DF0E6FE00238380837110
:108B60000F4B03600F4B836000F044FB012322781E
:108B700013432370F7BDC0468129002064240020E0
:108B80009C2400208824002094240020FC3F002006
:108B9000CF330200BD890100FF030000FE03000087
:108BA0009C69020085890100024B18780123184056
:108BB0007047C04681290020F7B5134F04003B6879
:108BC0000E00002B1ED0114B1B78DB071AD5FFF7C8
:108BD00081FF05003304234383640AF0C6FB2800A9
:108BE0000B490AF0B2FB0B4B0025E318012B07D908
:108BF000C023009332002100074B3868FFF794FE32
:108C00002800FEBD054DFBE76424002081290020DB
:108C10009824002002FCFFFFBD89010016FCFFFF25
:108C2000F7B506000D0017000193002802D10024BB
:108C30002000FEBD0029FAD0FFF726FF041EF6D063
:108C4000074B019A43630660064B45608760002A24
:108C500000D0054B20000549A3630AF076FBE7E747
:108C6000FC3F0020A9330200B73302008824002013
:108C700070B5074B0E0011001A7805000123100093
:108C800018401A4203D032002800FFF7C9FF70BD18
:108C900081290020F8B50500EFF30884C36B006C50
:108CA0001C1B6B6C1B1A9C420FD91F23074E2034D0
:108CB00037689C43002801D000F0D6F9200000F06E
:108CC0009FF92864001968643760F8BD9C2400206F
:108CD000024B1868434258417047C0468824002020
:108CE0000300002210B5044994006058002801D008
:108CF0000132F9E7635010BD70240020002310B545
:108D0000044A99008C58844201D00133F9E70020CD
:108D1000885010BD7024002010B50024084BA2001C
:108D2000D058002802D003685B6898470134062CAD
:108D3000F4D1044B1B68002B00D120BF10BDC046EE
:108D400070240020882400200122F8B52C4B1B78C9
:108D500013421CD02B4D2C68E36C134218D0022711
:108D60003B43E364284B1E680423F26C300013433A
:108D7000F364636BF363FFF78DFF3000716C04F0F5
:108D80001EF82868C36C3B4201D004F052F8F8BDCD
:108D90001E4F1F4E3A683068002A0AD128601B0710
:108DA00012D52C60FFF7B8FF3B68002BFAD02B6080
:108DB0000AE0216DB94219D1616D002900D111007D
:108DC00029602A688242EAD029688C42DFD0336861
:108DD00099420DD10F4B4B630F4B8B632000FFF774
:108DE00059FF296820004B6C626C06E02A60E8E7B6
:108DF0009C42F3D1002210004B6C03F09FFFC6E7AA
:108E0000812900209C2400206C240020882400203C
:108E100094240020FC3F0020CF33020070B50C4B9F
:108E200004001B78DB0702D40DF046FC70BDFFF791
:108E300051FE050000F0C6F92418AC6428000AF0C1
:108E400094FA280003490AF080FAFFF77DFFEDE766
:108E50008129002068240020F8B51B4B1B78DB0714
:108E600027D50024194E30680AF07FFA184D2B6878
:108E7000002B02D05B6D0134FAE7032C0ADD2F686A
:108E8000013C7B6D386C2B6000F0EEF8380000F090
:108E9000EBF8F2E7290030680AF057FA72B60D498C
:108EA00032680B68934206D19B6D0B6062B6FFF788
:108EB0004BFFF8BD0B00002BF8D0996D8A42F9D119
:108EC000926D9A65F2E7C046812900209C2400201B
:108ED000902400208C24002010B5034B1B78DB0766
:108EE00001D5FFF7B9FF10BD81290020F7B50500B6
:108EF0000C00002833D001261B4B1B78334230D0A6
:108F00001A4F07233868C26C1100194000911A42A9
:108F100007D021002800164AFFF7AAFE00252800E6
:108F2000FEBD03F06EFF3A680221D36C18000840C2
:108F300001900B4203D001318B43D364EEE73343FE
:108F4000D3642000A8473A68019DD36C1900B1434F
:108F5000D1645B07E3D52000FFF7BEFFDFE7054DD7
:108F6000DDE7054DDBE7C046812900209C24002079
:108F7000D98E010017FCFFFF16FCFFFF020010B5A1
:108F8000014B12CB12C210BDA0240020034B1A6863
:108F9000034B1A607E225A607047C04604200020AE
:108FA000A0240020F0B5124E03003278022A1BD014
:108FB00081421BD90C1A072C18D90D000543032731
:108FC000280038403D4211D172B6BA40094DA4087C
:108FD0005351AA1851608022120614431C60337842
:108FE0000133337062B6F0BD0348FCE70348FAE78B
:108FF00083290020A824002013FCFFFF17FCFFFF9B
:1090000070B5041E23D0124D124E2B78002B0CD1BC
:10901000114912483370FFF7C5FF114B984202D136
:109020001E20FFF7A7FB01232B7000253378AB42EE
:1090300009DD0C49EB002000C9180AF0D2F900281C
:1090400005D10135F2E71420FFF794FB002070BD35
:10905000822900208329002000380020502A002087
:1090600017FCFFFFA824002010B5002817D000220D
:109070000F4B19780F4B914215DD1C6884420FD2BB
:109080005C6884420CD9041F2368002B02DC1E207C
:10909000FFF770FB802322681B061343236010BD7B
:1090A00001320833E7E71E20FFF764FBF7E7C0460D
:1090B00083290020A824002070B5051E14DD0B4E66
:1090C0000B4C3368002B02D020680DF0AAF9FA216E
:1090D00020680024074B89008361C46269433560BE
:1090E0000DF0B0F9200070BD0348FCE7B824002063
:1090F000E8240020A191010017FCFFFFF8B5114FF3
:1091000005003E68002E0AD130200DF00CFC040052
:1091100006F0F8FE0C4BA6612360E6623C600B4E45
:109120003368002B09D110200DF0FDFB04000DF079
:10913000D5F9200034600DF0ABF92800FFF7BCFF33
:10914000F8BDC046E8240020A8710200E4240020F5
:10915000014B18687047C046B824002070B50D4C0C
:109160002368002B03D00C4B1B68002B02D1062078
:10917000FFF7C4FF20680DF0A2F902000749C317EA
:109180000D684E685219734120680A604B600DF0FB
:109190009CF970BDE4240020E8240020B0200020C9
:1091A00010B5FFF7DBFF0024054BA200D0580028C4
:1091B00002D003681B68984701340A2CF4D110BD13
:1091C000BC24002010B5FFF7C9FFFA22034B920020
:1091D00018685968002307F033FE10BDB020002046
:1091E00010B5FFF7BBFF024B1868596810BDC046A9
:1091F000B02000200B4B10B51B680400002B03D0DF
:10920000094B1B68002B02D10620FFF777FF0023D4
:10921000064A99008858002801D00133F9E78C509C
:1092200010BDC046E4240020E8240020BC24002017
:10923000002310B5044A99008C58844201D00133B0
:10924000F9E70020885010BDBC24002010B50400B0
:10925000002902D00B78002B03D1034B23602000A0
:1092600010BD0AF09AF9FAE7AC690200F8B50400FB
:109270000E00150000290AD00B78002B07D0002A19
:1092800005D0080097B209F093F9874203D90B4B38
:1092900023602000F8BD681DFFF7B2FE20600AF0D1
:1092A0001FFB20682A0047803100043008F0E4FEEC
:1092B00023685D1900232B71EBE7C046AC690200FF
:1092C000014B03607047C046AC69020010B5054809
:1092D000054C20600AF007FB2000044A04490DF009
:1092E00013FB10BDAC690200EC240020002000201C
:1092F0008D350200084B73B51D680400002D0AD09F
:1093000001002E6808220831684608F0B5FE0CCC32
:1093100028003168884773BDF0240020014B0360AA
:109320007047C046B469020010B50400081E03D19E
:10933000034B2360200010BD21600AF0D4FAF9E746
:10934000B469020030B500684488A1420CDA85880F
:10935000AA4209DA002907DB002A05DB624340182C
:1093600080188371002030BD0048FCE717FCFFFF28
:10937000F0B507000E001D0085B0002921DD002A90
:109380001FDD002B1DD00468638803938B4200DD32
:109390000391A3880293934200DD029200230634D6
:1093A0000193019B029A93420ED029002000039A58
:1093B00008F062FE3B68AD195B88E418019B01333D
:1093C000EEE7024805B0F0BD0020FBE717FCFFFF09
:1093D000F8B504000D0016001F00002901DB002A6B
:1093E00002DA0D4B2360F8BD100048430630FFF74A
:1093F00007FE20600AF074FA23685D809E80002FCB
:1094000006D03B00320029002000FFF7B1FFEAE759
:1094100020000AF09BF9E6E7B4690200F7B50700FF
:109420000D1E03D1244B03603800FEBD002408004C
:109430002600210001940378002B1AD030225242DA
:1094400094469C446246092A11D90A2B0AD1019BF1
:10945000361901330193B14200DA310000242600AD
:109460000130E8E7002CFBD000240136F8E70124A6
:10947000F6E70126019A380012B209B27642FFF7E8
:10948000A7FF31000A203B689A1D2C78002CCBD016
:109490002300303B092B08D8F343DB173340434309
:1094A0001B19303B1E000135EFE7002EFBDB167069
:1094B0000E000132F7E7C046B4690200F0B50500BE
:1094C00087B004A816001C000F00FFF757FD2B689B
:1094D0005A88964235DA9B889C4232DA1F2F30D95F
:1094E000059B01939F422CDC05217943049BA03905
:1094F0005B1801932300621D0392019A1278029275
:1095000000222C68B7186088B8420DDDA1888B4214
:109510000ADAE419102717415843029924180F401A
:10952000781E87417F42A7710132052AE9D1019A4D
:10953000013301320192039A9342DED1002007B039
:10954000F0BD0148FBE7C04617FCFFFFF7B5036815
:1095500006009F1D5B880D005A1A0192002919DD33
:109560000024994203DB0AF0F1F8002013E033688D
:109570009B889C42F9DA79193800019A08F07CFD41
:10958000019B2900F8180AF0C4F8336801345B889D
:10959000FF18ECE70048FEBD17FCFFFF10B50548BB
:1095A000054C20600AF09FF92000044A04490DF0A0
:1095B000ABF910BDB4690200F424002000200020A3
:1095C0000537020010B5054C012120000AF07FF993
:1095D0002000034A03490DF097F910BDF82400203C
:1095E000002000208D380200074A030010B501203A
:1095F000934208D0834202D00020DB0703D41E2010
:10960000FFF7B8F8002010BDFFFF000000487047CA
:1096100016FCFFFF10B53220FFF7ACF8004810BD74
:1096200016FCFFFF82801422002310B541620F4C0C
:109630000100083404600E240281123A83718272A0
:109640000363838636310A78C360A24303614361B2
:109650008361C36103620A70021DD38701224287BE
:10966000034AC26302004032137010BDD469020085
:1096700001000100F0B5564E0500376897B0002F85
:1096800000D090E006AC0B231C228221200001F0C8
:10969000C3FA0B231D2283210AA801F0BDFA0B2374
:1096A0001B2284210EA801F0B7FA08200DF03BF927
:1096B00001223B00110004900BF048FD3A212800E4
:1096C0000BF061FA00281CD0A38812AFBB80A379ED
:1096D000A268BB713F4B5C2012930E23E356149299
:1096E000A289BB73BA810DF01EF9052301933533AE
:1096F00000933A002900049B040002F065F83460EE
:1097000051E0322128000BF06CFA00281BD0A3880E
:1097100012AFBB80A379A268BB712E4B5C20129361
:109720000E23E3561492A289BB73BA810DF0FBF8A5
:10973000052301932D3300933A002900049B040074
:1097400002F0DAF9DBE73C2128000BF005FA0028EB
:1097500034D0362202AB9B8E12AFBB8002AB9B187B
:109760001B780832BB711B4BA420129302AB9B18D1
:10977000109A1B781492059202AA928F5BB2BA815A
:10978000BB730DF0D0F8062304000293013B019354
:10979000373300933A00049B290001F035FF0E4B4C
:1097A000346044341C600C4B094C1868002802D00B
:1097B00021680AF004FA206817B0F0BD44200DF0CB
:1097C000B2F8052204990400FFF72CFF97E7C04682
:1097D000FC240020C469020000250020F0B5634984
:1097E000C56885B08D4258DA030036331C780222F2
:1097F0002300134014425BD1026901928A4265DA68
:1098000002003632127852076AD44269029202008C
:10981000029C40328C4270DA010036310978090727
:1098200075D4002B7ED113789C46002B16D00100F6
:10983000061DF38F363101339BB2F387039109780C
:1098400001270C003C40394200D188E01D2B05D98E
:10985000039BB94319700023F38713700AF08FF844
:10986000434A0723904277D94249043B8D4273DB38
:10987000C8220133920095426EDC0198023B884277
:109880006ADB013B904267DC02980433884263DB69
:109890000023904260DD06335EE0C82200235200C0
:1098A0009542A9DD030036331A7800239207A3D42A
:1098B000012306001F00363632785408A7433C00C7
:1098C00002279C40BA432243327095E7C822019C8C
:1098D0005200944299DD020036321278520794D435
:1098E000012306001C00363632789708BC43A700D7
:1098F0000424A2433A43327087E7C821029C4900FE
:109900008C428EDD010036310978090789D40100C7
:10991000012636310B78DF08BE430827F600BB432B
:1099200033430B701378032B00D97CE70133DBB290
:109930001370012B03D10021031DD98773E7042B7A
:1099400000D070E7020036321178033B0B431370EE
:1099500000230430C3870B33180005B0F0BD092B7A
:1099600000D87BE76346F487013B76E770FEFFFF94
:10997000FF700200E0FCFFFFF0B5C369C1681A6820
:10998000451D0400EB7F89B0114225D0002B57D133
:109990000123A2791A4237D0002602226846A18804
:1099A000A67109F08CFEA31DDD7F012D2CD1FFF7E0
:1099B00009FC3300226A801A99410F000600A18831
:1099C0009F4203D1FA239B009E423BD301230422F2
:1099D00004A809F074FE17E00B2B01D80133EB77D4
:1099E000EB7F082B0DD90122A37913420CD113432D
:1099F000A188A37104A8130009F061FEFFF7E2FB40
:109A00002062EB7F012BC3D90322A3791340012BE2
:109A100014D1FFF7D7FB0023226A801A994199429B
:109A200002D10A4B984209D90223A279A188134393
:109A3000A3710522012304A809F041FE09B0F0BD7D
:109A4000013BCCE72B000322C2E7C046DB05000048
:109A500010B50400034B08330360FFF7E9FB200057
:109A600010BDC046086A0200F0B5060000250F00D0
:109A7000040085B002930AAB1B78083603930F4BA2
:109A80002900083303600192858085711822300017
:109A900008F0A4FB39003000039A0CF06EFD019B26
:109AA000029AA380A31DE771DA77631D2562200067
:109AB000DD77FFF79FFB200005B0F0BD086A0200CC
:109AC0000048704716FCFFFF10B53320FEF752FE2A
:109AD000004810BD16FCFFFF002310B50400838072
:109AE00083710D482164083020608020C000A0618F
:109AF000E061206211002000E36023616361636222
:109B0000A362E36223636363A363E36363640AF0B2
:109B10002EF8200010BDC046206A0200F0B5544E59
:109B20000500376897B0002F3DD10B231C228221FE
:109B300006A80AAC01F070F80B231D228321200037
:109B400001F06AF80B231B2284210EA801F064F8AF
:109B500008200CF0E8FE01223B00110004900BF0FD
:109B6000F5FA1D2128000BF025F8002824D0A38841
:109B700012AFBB80A379A268BB713E4B60201293E9
:109B80000E23E3561492A289BB73BA810CF0CBFE6C
:109B900006230193173300933A002900049B040025
:109BA00001F0DAFE3460344B314A1B681068002B38
:109BB00000D0436417B0F0BD3C2128000BF028F81A
:109BC00000281BD0A38812AFBB80A379A268BB7109
:109BD000284B602012930E23E3561492A289BB7384
:109BE000BA810CF0A0FE06230193363300933A00AD
:109BF0002900049B040002F021F8D3E73C2128004F
:109C00000AF0AAFF002829D0362202AB9B8E12AFA1
:109C1000BB8002AB9B181B780832BB71154BA4208C
:109C2000129302AB9B18109A1B781492059202AA09
:109C3000928F5BB2BA81BB730CF075FE06230400F1
:109C40000293013B0193373300933A00049B2900B0
:109C500001F0DAFC084B1C604434A3E748200CF008
:109C600062FE062204990400FFF736FF9AE7C04619
:109C700000250020C4690200FC24002082B0F0B559
:109C80000400EDB06420739372920CF015FD052270
:109C900010A8110009F063FD984911A8FFF7BEFB59
:109CA0001925002221AB013D1A605A609A600C33DD
:109CB000002DF8D11522290014A8139508F08EFA6A
:109CC000A0680AF029FBFF210A90A06800F092FC2E
:109CD0008B4FA06800F058FB049507950995884BB9
:109CE0009F4203D0874B9F4200DBFDE0A0680AF053
:109CF00015FBA56884491AA8FFF7A8FA78221AA9C3
:109D0000280000F0E3FB1AA809F040FC00237C4F78
:109D100004930326099B606801333340099309F0DB
:109D2000C6FE0500606809F0C9FE0022774B059267
:109D30009D420FDB013205922A00C8320ADBAA22BB
:109D4000042192000591954204DC0596C82D01DCA2
:109D50000222059200220692984210DB012306930C
:109D60000300C8330BDBAA2304329B0006929842FF
:109D700005DC03230693C82801DC013B069310A8E9
:109D800009F0E4FC624B00251E00089313ABEB5C6A
:109D9000012B05D172783178FE3310A8FFF7D2FA83
:109DA00001350236192DF1D16B4618229A5E6B46A9
:109DB00010A81421595E099BFFF7C4FA002F02DB9B
:109DC000049B0F2B07D90023A0681A00743000935E
:109DD00010A909F0D1FC0026089B059A1B78934234
:109DE00028D1089B069A5B78934223D12C2308AA9A
:109DF000D218935D012B1DD00C2207990CAD4A435C
:109E0000280021680B92002209F0DBFE21A98C4674
:109E10000B9A6244130007CD07C32C2308AAD3185A
:109E200001229A55079B9B18DBB20793049B9B1852
:109E3000DBB20493089B013602330893192ECBD171
:109E400064200CF039FC079B643F3FB2182B00D80C
:109E500045E71A0021A91AA80AF0C2F86A461DAB04
:109E600023CB23C21B6813601A991B9A1C9B206882
:109E700009F08FFEE568002D0CD0264912A8FFF7E7
:109E8000E5F91C2328001AAA12A90AF030FE12A82C
:109E900009F07CFBA0680AF041FA11A912A8A56894
:109EA00009F03DFC00221C4B009212A901932800EE
:109EB000130000F0ADFA12A809F024FCFA2080008B
:109EC0000CF0FAFBA0680AF029FA0A99A06800F0E1
:109ED00091FB11A809F016FC10A809F013FC6DB055
:109EE000F0BC08BC02B01847002F03D0049B0F2B16
:109EF00000D00EE7A06800F047FA0AE7C07602003B
:109F00008C3C0000D18AFFFF0577020058FDFFFF5F
:109F1000257702001A770200DC050000F0B587B053
:109F200001930EAB1B88060003930D9B0D0000935D
:109F3000019B0C9F0292002B40D0002F02D1009B6E
:109F4000DB073BD530200CF0EEFC0400103009F0AC
:109F5000ACFB2000243009F040FA029B1820258039
:109F600063800CF0E0FC0500009B08220593019B38
:109F7000002103600C30049708F030F9082204A98E
:109F8000281D08F079F80E4B02226B61002303991B
:109F9000E3602362E36233680A43300021005B68B8
:109FA000A560A2809847002806D0200009F0A2FAF8
:109FB00020000CF0B0FC034807B0F0BD0248FBE7FE
:109FC000033C020016FCFFFF17FCFFFF70B58CB0CE
:109FD0008360109B01604260C36004001849180050
:109FE0000AF050FD051E14D001001C22103105A8F6
:109FF00008F042F86A4608AB43CB43C21B681360C3
:10A0000020680599069A079B09F0C3FD28000CF00B
:10A0100082FC0C4B186800280ED00B4A05AB059249
:10A0200000220692C03202926A4622CB22C223004C
:10A0300003220621FFF772FF20000CB070BDC0465E
:10A040001A770200F02400207D9C0100F0B5040086
:10A0500085B0637A9C46002B04D1200009F0DEFF16
:10A0600005B0F0BDA37A266F01931023019AF35631
:10A0700000259B1801229A402900F368039202935D
:10A08000029BAB4231DDB068019B6843C018736925
:10A090004000E77A1A181B5C5078E279012F14D13E
:10A0A000571E3F1A18003B004243606F520082184F
:10A0B000D2189379634500DD6346627B1A4202D071
:10A0C0000123AB4019430135DAE7022F07D0032FF4
:10A0D000EAD1277A013FFF1A03003800E4E7571E50
:10A0E000FB1A277A013F381ADEE71123C943F356DA
:10A0F000606C994023691940039B19430CF09CFB49
:10A10000A27B072AACD8637B0C495B006373531CAA
:10A11000DBB290004158A373022A03D808000CF068
:10A12000C0FA96E7064B2000236300236363054BC8
:10A13000E462236414300CF085F991E74C6A020064
:10A140004DA001000740020070B50400104B25002F
:10A1500008330360FFF76CF82000743009F0D2FA7E
:10A160002000603009F0CEFA2000583009F00EFAD5
:10A170002000503009F00AFA064B143528006361BC
:10A180000CF04FF9280005F0D3FE200070BDC0464A
:10A190006C6A0200A8710200F8B500250400324B79
:10A1A0008580083303608571143016000F0005F0B8
:10A1B000A9FE20002D4BE562636125645030FFF756
:10A1C0007FF820005830FFF77BF820006030FFF761
:10A1D000A5F820000423F25E33682667590009B20F
:10A1E000743009F0BCFA3368226FE371736801269A
:10A1F000237210236581A7802561D3569168591871
:10A20000994204DD3000984001330543F8E71123FB
:10A210000120D356D1685918994206DD02009A40B0
:10A220002669013332432261F6E714200CF07BFBF0
:10A23000226900212A430123060006F033F9FF2397
:10A24000220063720133A381002348326664A37342
:10A2500020001370A366FEF7CDFF0123A279200032
:10A260001343A371F8BDC0466C6A0200BC710200C2
:10A27000F0B5437A040085B0002B04D1200009F02A
:10A28000CDFE05B0F0BD0122837A11009C4610235B
:10A29000066F0025F356039263449940029129000A
:10A2A000F3680193019BAB422CDDB068736968438E
:10A2B00060444000E77A1A181B5C5078E279012F5D
:10A2C00010D1571E3F1A18003B004243606F5200E6
:10A2D0008218D2189379002B02D0039BAB4019430C
:10A2E0000135DFE7022F07D0032FEED1277A013F98
:10A2F000FF1A03003800E8E7571EFB1A277A013FD0
:10A30000381AE2E71123C943F356606C9940236978
:10A310001940029B19430CF08FFA667AB31EDBB228
:10A32000FC2B14D8FEF714FF0B4B0500236300230E
:10A330000A4863630A4BFF217043E462236406F01A
:10A3400059FC29004143200014300CF07BF8637A5B
:10A35000012B00D995E791E71D400200B6030000EC
:10A36000074002001FB5012381881A00684609F0E2
:10A37000A6F9012368461A00024909F0A0F905B0C0
:10A3800000BDC046FE0300001FB5030048331A7825
:10A390000400002A0DD000221A70012381881A00BF
:10A3A000684609F08CF9012368461A00034909F050
:10A3B00086F92000743009F0C9F91FBDFF030000C1
:10A3C00010B50400230048331A78002A07D01B7800
:10A3D000012B04D00121024808F0DDFFF2E710BD97
:10A3E000FF03000010B501210400072008F0D3FF8F
:10A3F000064B984208D148342378002B04D02378A8
:10A40000012B01D020BFF7E710BDC04616FCFFFFAF
:10A4100073B5079C0500002C1CDB0600483630781D
:10A42000002802D03078012816D106981BB2C0B29D
:10A430000090280012B2743009F09EF9002C07D069
:10A440002B004A331C80002407234C352C803370AA
:10A45000200076BD014CFBE7014CF9E717FCFFFF3C
:10A4600012FCFFFFF0B587B00D9C05000E00170031
:10A470000393002C21DBFFF7A3FF2B0048331B784D
:10A48000DAB20292002B1AD1310005A809F047F97F
:10A490000C9B3A0000932800039B019405A9FFF749
:10A4A000B7FF05A809F02EF9002C03D02800FFF70C
:10A4B00099FF029C200007B0F0BD024CFAE7024C65
:10A4C000F8E7C04617FCFFFF11FCFFFFF8B50400DA
:10A4D000171E1DDD060048363378002B02D0337876
:10A4E000012B17D12200E3795632013B1370230070
:10A4F0000025200054331D80503009F0A4F82300BB
:10A500004A331F80022328004C3425803370F8BD65
:10A510000148FCE70148FAE717FCFFFF12FCFFFFC8
:10A52000F8B50400171E2DDD060048363278002AE3
:10A5300002D03278012A27D15D42069BFF331FD11A
:10A540006B1D22001BB2643213802300200066338F
:10A550001D70603009F0EBF8230000226C331A7094
:10A56000954200D03D0023004A331D80079B002008
:10A570005A1E9341013F4C34053327803370F8BD98
:10A58000069BDEE70148FAE70148F8E717FCFFFF02
:10A5900012FCFFFFF0B504000F0016001D0087B08D
:10A5A000002A1FDDFFF70CFF230048331B78DAB2C7
:10A5B0000392002B18D1390005A809F0B0F80D9BC3
:10A5C000320001930C9B05A9009320002B00FFF79C
:10A5D000A7FF05A809F096F82000FFF703FF0398EE
:10A5E00007B0F0BD0148FBE70148F9E717FCFFFFA2
:10A5F00011FCFFFFFF2902D841720020704701487B
:10A60000FCE7C04617FCFFFF13B5040004A8007860
:10A61000009020000BF034FE002801D1207516BDFB
:10A620000048FCE70EFCFFFF13B5040004A8007807
:10A63000009020000BF00CFE002801D1207516BD03
:10A640000048FCE70EFCFFFF7FB50D0011000F2254
:10A650006A4404001E1E117015D0089B002B12DDE9
:10A66000012329000093FFF7DFFF002808D10090A5
:10A67000320029002000089BFFF7C6FF002800D009
:10A68000024804B070BD0248FBE7C0460EFCFFFF65
:10A6900017FCFFFF10B5040086B0006C05F0AAFCA3
:10A6A000237BA0219A00A05000200C4AC9005050E2
:10A6B0000B4914305050626C6846517CC91849B23D
:10A6C00009F007FF039B019A03211A60207B0130E8
:10A6D000C0B206F08BFA217306B010BD00700040C6
:10A6E0000405000082B070B50400002588B00C920B
:10A6F0000D93636C9A68AA420ADD197C02A8491975
:10A7000049B209F0E6FE069B039A01351A60F0E7AC
:10A710005D7C237B02A8ED186DB2290009F0D9FEFB
:10A72000039A059B00211A60019202A8182207F0E3
:10A7300055FD02A8002229000BF01FFF206C002805
:10A7400001D00CF0E8F808200CF0EDF82900060024
:10A7500005F02AFC094B2000E3620023FA21236361
:10A76000074B2664A462E363103009010BF06AFE14
:10A7700008B070BC08BC02B01847C04695A60100DE
:10A780007D440200F0B5040085B01F000CAB1B88AF
:10A7900010300E001500019308F087FF20002430D0
:10A7A00008F01BFE2680658018200CF0BCF802AE75
:10A7B000050033000AAA03CA03C32F602800082734
:10A7C00000213A000C3007F009FD3A003100281D45
:10A7D00007F052FC064B022220006B610023019916
:10A7E000A5600A43E360A2802362E36205B0F0BD86
:10A7F0009344020030B5154B04001D6893B0002D42
:10A8000017D0134B6A460493002305931033029329
:10A8100004AB03CB03C223000222072106A8FFF7E3
:10A82000B1FF2B6828009B6806A9984706A808F086
:10A8300061FE2500074B1035280023610BF0F1FD68
:10A84000280005F075FB200013B030BDF024002077
:10A85000E5A60100A8710200F7B506000D1E3ED066
:10A860000023022704690193002C34D0AA88A3880E
:10A8700053403B422DD13A4222D1A368AA68934269
:10A8800027D12B88002B02D022889A4221D16B88B5
:10A89000002B02D062889A421BD1EB68E268934297
:10A8A00001D0002B15D17368002B01D020009847F0
:10A8B000A2880C4B1343A380019B0133019308E052
:10A8C000A968A0680AF027FC0028DAD1AB883B42CF
:10A8D000D3D0E46AC8E7019B2000002B00DC0248CB
:10A8E000FEBDC0460080FFFF17FCFFFFF0B506006D
:10A8F0000D0085B000295DD001270469002C27D008
:10A900000221AA8800230A4202D0A3885B083B40A8
:10A91000226829688A4215D1A068A968002B0FD047
:10A920000AF0F9FB00280DD0EB68E268934209D1E8
:10A930000421625EA388002A06DB1F4805B0F0BD33
:10A940008842F1D0E46AD9E75B045B0CA380F4E7AA
:10A9500030692A880100031E07D13561012368464A
:10A96000164908F0ACFE0020E8E71C88944206D2A5
:10A97000DC6A1900002C0DD02300F6E723001C88A8
:10A98000944207D15F886C88A74203D8DC6A19001B
:10A99000002CF3D1884209D10B889A4204D305D107
:10A9A00048886B88984201D9E962D6E7CB6AEB62A6
:10A9B000CD62D3E70248C1E716FCFFFFFD030000AC
:10A9C00017FCFFFF064B10B51A00040008322C33A9
:10A9D000026083600830FEF791F9200010BDC04688
:10A9E000846A020008B4024B9C46083808BC6047E1
:10A9F000C5A9010008B4024B9C46083808BC604752
:10AA0000FF4402000C4A002311002C32083110B51B
:10AA100043608381837382600361436183618383C5
:10AA2000016004000830FEF75BF9044B1A68002A45
:10AA300000D11C60200010BD846A0200F0240020B8
:10AA400082B0F7B50125402609930CAB1B78046949
:10AA500008920193002C38D008AA238812889A42C1
:10AA600001D0002B29D108AA638852889A4201D0CC
:10AA7000002B22D1FEF798F80123002806D0C0222F
:10AA8000A3881340C03B5A425341DBB2019A934220
:10AA900019D10422A35EA788002B14DB102208A979
:10AAA000A01807F0E9FA374209D1FEF77DF800282F
:10AAB00005D021000748FEF719FAE46ACAE720002A
:10AAC00009F026FDF9E70025F7E72800FEBC08BCE1
:10AAD00002B018471145020008B4024B9C460838E2
:10AAE00008BC6047AD46020010B5024808F0DDFD25
:10AAF00010BDC046B8200020F0B587B001930EAB62
:10AB00001B88060003930D9B0D000093019B0C9F77
:10AB10000292002B40D0002F02D1009BDB073BD5D7
:10AB200030200BF000FF0400103008F0BEFD2000C4
:10AB3000243008F052FC029B1820258063800BF023
:10AB4000F2FE0500009B08220593019B0021036093
:10AB50000C30049707F042FB082204A9281D07F0D7
:10AB60008BFA0E4B02226B6100230399E360236290
:10AB7000E36233680A43300021005B68A560A2806D
:10AB80009847002806D0200008F0B4FC20000BF005
:10AB9000C2FE034807B0F0BD0248FBE7FB460200D7
:10ABA00016FCFFFF17FCFFFFF0B5160000258380A1
:10ABB000164A174B040085710260018146810573B6
:10ABC00018688C4689B0A8421DD0124A0595049297
:10ABD000C02202926A4604AB82CB82C223002A00C2
:10ABE0006146FFF789FFC022094B0A4918680292A3
:10ABF0006A46069106AB079582CB82C223002A00E3
:10AC00003100FFF779FF200009B0F0BDC86A0200EB
:10AC1000F02400202548020030B5002403730123EE
:10AC2000034D05608471818082734373846030BDFD
:10AC3000C469020070B583790400DB0704D580681D
:10AC4000002801D00BF067FEA3799B0704D5A0680C
:10AC5000002801D00BF05FFEA3795B0709D5A02384
:10AC60000021154AA068DB00D150884201D00BF0CA
:10AC700052FEA3791B0708D5A568002D05D0280032
:10AC80000AF0BAFA28000BF046FEA379DB0605D5D8
:10AC9000A068002802D00368DB6898476023A27987
:10ACA0001A4205D0A068002802D003685B68984764
:10ACB0000023A360A37170BD00700040F7B50126AA
:10ACC000037B040033422CD08279612311001940A8
:10ACD00001911A4216D1FFF7ADFF18200BF023FEA9
:10ACE0000E230500E356677B18220199009307F0B5
:10ACF00075FA3A00280000990BF03FFCA379A56093
:10AD00003343A3716023A279A0681A4202D00BF0EA
:10AD1000D8FAFEBD436940681B681840431E98413D
:10AD2000F7E70148F5E7C04616FCFFFF012210B522
:10AD300083794173134204D080680BF0C4FC002077
:10AD400010BD6022134203D080680BF0C1FAF6E711
:10AD50000048F5E716FCFFFF70B5040000250C4B1A
:10AD60000E0008338580857103602100183009F0DA
:10AD70000AFE20002100203009F028FE054B2000AB
:10AD8000A680E5802572E560256165611C6070BD67
:10AD9000D86A0200042500208379DB0702D5C16050
:10ADA000002070470048FCE716FCFFFF8379DB07B3
:10ADB00001D5C06870470148FCE7C04616FCFFFF9C
:10ADC00070B545690400002D22D0037A032B21D8E9
:10ADD000FFF7ECFFA8622C200BF0A5FD2C22002130
:10ADE000050007F0FBF9002263695A622369934268
:10ADF00007D1636923610020237A656101332372DF
:10AE000070BD1A005B6A002BFBD163695362F2E7E5
:10AE10000148F5E70148F3E717FCFFFF13FCFFFFCC
:10AE2000144B70B55A68144C002A03D000225A60A3
:10AE30000132A2601A69002A17D00021196180230B
:10AE4000DB000E4DE3582868012B0FD1A923DB004E
:10AE5000E1584942FFF7A0FF2868FFF7B1FF2B68D0
:10AE60005A69074BE2500123A36070BDFFF794FFBE
:10AE7000F9E7C046FC100040001000400425002007
:10AE80000405000003000069002809D00221054ADA
:10AE9000D167426A1A611A7A013A1A72024B196032
:10AEA0007047C04604E100E000E100E010B5002971
:10AEB00003DB024B19600BF08FFA10BD0825002050
:10AEC00070B504001D0004AB1E7804F0D7FF20000D
:10AED0000E4B40302360FEF7F3F9230022000135CA
:10AEE0004C331D700023E1215832013616700A3AA6
:10AEF000A3646365138053809381D381013B200059
:10AF000063644902FFF7D2FF200070BD746902003C
:10AF1000F7B580277F053E697C690822113C7443A0
:10AF200005002100684607F0A7F8104B009A9A42E6
:10AF300019D00093002301937969280013397143D4
:10AF400009F05BFD019A2800009909F06EFD2100CF
:10AF5000280009F052FD7969220013392800714355
:10AF6000B30809F054FD0198FEBDC046FECA0000BA
:10AF7000F0B50D00ABB000210D920700302212A8F1
:10AF80001E0007F02BF9280007F012FB431C0C935E
:10AF9000102B00D9B8E0202E00D9B5E029003800E8
:10AFA00009F070FD0B90002854D129000C9A12A8CA
:10AFB00007F062F832000D9916A807F05DF88023BB
:10AFC0005B051A695D690B92113D6A4338005E6941
:10AFD0000D92FFF79DFF0D9B3022083300210400E6
:10AFE0001EA80F9307F0FAF831000B9B1339594351
:10AFF000380009F002FD00230F9E0C930E930C9B6A
:10B00000A34246DA310030221EA807F035F812A913
:10B010001EA807F089FA00282BD13D4938002200EC
:10B020001091119409F001FD6A46099615AB23CBE6
:10B0300023C223CB23C223CB23C23800149B1299F3
:10B04000139A09F000FD01230E930C9B3036013357
:10B050000C93D4E70B9832000D99103006F0E4FF02
:10B0600004000B980BF057FC002C9ED120002BB055
:10B07000F0BD6A46099621AB23CB23C223CB23C262
:10B0800023CB23C238001E991F9A209B09F0DBFCBA
:10B09000DBE7E6433021F61726404E430F9B9E190F
:10B0A0000E9B002B1CD10B9B981E05F019FDA04296
:10B0B0002CD017490134380022001091119409F066
:10B0C000B4FC6A46099615AB23CB23C223CB23C21B
:10B0D00023CB23C238001299139A149B09F0B3FCB6
:10B0E00038000D9909F089FC80235B0559690C2310
:10B0F0000B9A133963434A433800110002330D9A07
:10B1000009F085FC0024B1E7024CAFE7024CADE743
:10B11000FECA000017FCFFFF13FCFFFF8023F0B501
:10B120005B051A6995B002925A6905910299113A24
:10B1300051435C69029B133C05005C430391FFF79C
:10B14000E7FE061E3AD030220021083408A8039FEB
:10B1500007F044F82100280009F04FFC00230837CD
:10B1600001930493019BB34220DA3900302208A8EE
:10B1700006F082FF059908A807F0D6F900280DD13E
:10B180001A49721E28000691079209F04EFC01230D
:10B190000493019B303701330193E3E722000C2332
:10B1A0003900280009F033FC3034F2E7049B002B0F
:10B1B00006D1320028000D4909F037FC0C4812E096
:10B1C0002800039909F019FC80235B0559690C23B9
:10B1D000029A13394A43734311002800039A023339
:10B1E00009F015FC002015B0F0BDC046FECA0000F5
:10B1F0000CFCFFFF70B50400A280FA2200230800B7
:10B200000C49920008312160A3710B496061E26032
:10B21000A360638209F036FC051E09D001002000FE
:10B2200002221031123006F027FF28000BF073FBCA
:10B23000200070BDF06A02005777020030B5022589
:10B240008379040087B02B4204D1FDF749FDA3792F
:10B250001D43A571200009F05BFC00281CD06B4643
:10B26000DD1C280009F04BFC2B78002B17D001A81F
:10B2700009F043FC0321019AD3170B409B189B1044
:10B280002382FDF79FFFE368A18818180123A060BF
:10B290001A0002A808F013FA002007B030BD0122FE
:10B2A000064B1A60064A51680029FCD00021516003
:10B2B000044A1268019201225A60DBE700C0004094
:10B2C000FCC0004008C50040022802D10122014B09
:10B2D0001A7070478429002070B5064D04002B7841
:10B2E000002B04D1044801F06DFF01232B702000D6
:10B2F00070BDC04685290020C9B2010070B50C00A0
:10B3000008F002F8002810D00023144DA40A2B7076
:10B31000200009F011FC002803D00A200BF0CCF922
:10B32000F6E72B78002BFCD070BD02210C4B0D4AA8
:10B3300099508021C90008005D58002DFCD0A12142
:10B34000C9005C5019580029FCD000219950802177
:10B35000C9005A58002AFCD0E6E7C04684290020DC
:10B3600000E0014004050000F8B50C0015001E00C7
:10B3700007F0CAFF002811D00023174F3B7032009E
:10B380002900200009F0D6FB002803D00A200BF08A
:10B3900093F9F4E73B78002BFCD0F8BD01220F496C
:10B3A0000F488C4642508022D2008358002BFCD09C
:10B3B00080270023FF009E4207DD9A00A958A15074
:10B3C000C259002AFCD00133F5E7002362468350BE
:10B3D000C359002BFCD0E0E78429002004050000BD
:10B3E00000E0014008B4024B9C46443808BC60476A
:10B3F0003D4B0200FA21F8B50389C9000400594306
:10B40000324809F09EFEFA21890005F069FB304FB1
:10B41000A17A2081380009F094FE2300260025003F
:10B4200022894C33A072A0361A808C3500232A2240
:10B430003178286808F07FFF002844D11F235B2261
:10B440003178286808F077FF00283CD120235C225F
:10B450003178286808F06FFF002834D101232C22AE
:10B460003178286808F067FF00282CD101232D22AD
:10B470003178286808F05FFF002824D101232E22AC
:10B480003178286808F057FF00281CD1A17A3800CD
:10B4900009F052FE0E22C3B23178286808F04BFF43
:10B4A000002810D1FA21238989005943074809F05F
:10B4B00043FE012303432A2231782868DBB208F0D7
:10B4C0003AFF002800D00348F8BDC046106B0200C8
:10B4D000086B02000EFCFFFF08B4024B9C46443888
:10B4E00008BC6047F5B30100074B10B51A00040013
:10B4F00008323C3302604364443008F006FB20000D
:10B5000008F02FFA200010BD706B020008B4024B47
:10B510009C46443808BC6047E9B4010008B4024BBB
:10B520009C46443808BC6047474B0200F0B50425F0
:10B530008379040089B02B4204D1FDF7D1FBA379B4
:10B540001D43A57120009030FFF7B8FB0025A842ED
:10B550000FD12300A033197820000C2305AE0093EF
:10B560008C30330001220068FFF76EF8051E03D00F
:10B57000204D280009B0F0BDB1883088CABA0A2130
:10B580009446F2887388D2BA02923789728902AEE1
:10B5900089191F2652BA0A80A17ADBBA4B4312B22C
:10B5A0005B42C0BA03924843DA173240D3185B11AA
:10B5B000A361C3173340181863464B43D917314072
:10B5C000C9186423029A49115B42FFBA21625F43A2
:10B5D0000399C8335A434B43E2674011221DE0618F
:10B5E000A7672000D36708F035FA2000443008F040
:10B5F00093FABEE70EFCFFFF08B4024B9C464438AA
:10B6000008BC60472DB50100F7B51E00040008AB6B
:10B610001B881500019309AB1A8800910AAB310011
:10B620001F88FDF7FFFF20003A0031004430FEF78D
:10B6300053FA134B20001A003C3363642300083292
:10B640002260009A8C331A60AB8890308380AB798B
:10B65000AA6883710B4BA98903600E23EB568260A5
:10B6600022009C32118083732300019AA0330321AE
:10B670001A80FFF75BFB2000FFF7BCFE2000FEBD39
:10B68000706B0200C4690200F8B5FA260189B600A1
:10B6900004007143254809F054FD310005F020FAFB
:10B6A000234FA17A2081380009F04BFD2500A072BC
:10B6B000583500232A222978606C08F03CFE0028C7
:10B6C00032D110232B222978606C08F034FE002838
:10B6D0002AD101232D222978606C08F02CFE002845
:10B6E00022D101232E222978606C08F024FE002844
:10B6F0001AD1A17A380009F01FFD0E22C3B22978B1
:10B70000606C08F018FE00280ED1218907487143AB
:10B7100009F012FD012303432A222978606CDBB271
:10B7200008F009FE002800D00248F8BDD86B0200DE
:10B73000D06B02000EFCFFFF10B50400034B083372
:10B74000036008F00EF9200010BDC046386C0200FE
:10B750007FB50425837904002B4204D1FDF7C0FA9C
:10B76000A3791D43A57120004830FFF7A7FA0025F3
:10B77000A8420DD1230058331978062302AE009356
:10B7800001223300606CFEF75FFF051E03D00D4DF4
:10B79000280004B070BD002104200222A37A305694
:10B7A0007156B25659435A434343DB002362D200D9
:10B7B00023685242C90020009B6AA261E161984758
:10B7C000E6E7C0460EFCFFFFF8B504000F001900C5
:10B7D00006AB1E8807AB15001A88FDF723FF0F4B39
:10B7E0006764083323602300AA8848339A80AA79C3
:10B7F000A9689A710A4AA889A2640E22AA562165EC
:10B800002100543108809A730023A3712300583318
:10B810001E802000FFF738FF2000F8BD386C0200C2
:10B82000C469020010B50400034B0833036008F03C
:10B830006CF9200010BDC046CC6C0200F0B50700CA
:10B840005C37040087B0002310223978806C08F040
:10B8500072FD00283BD103260F2502ABED18012312
:10B86000397808220093A06C2B00FEF7EDFE194BEF
:10B8700098422CD02B78334203D06420FDF7CEFAC7
:10B88000EAE7FA262189144DB6007143280009F031
:10B8900058FC310005F024F92081A02311223978C9
:10B8A000A06C08F048FD002811D1A36C21890393F6
:10B8B000714328003F7809F03FFC01231843C3B2CD
:10B8C00010223900039808F036FD002800D0014806
:10B8D00007B0F0BD0EFCFFFF6C6C020070B50825D0
:10B8E0008379040086B02B4204D1FDF7F9F9A379DE
:10B8F0001D43A57120004C30FFF7E0F9051E0DD067
:10B9000023005C331978062304AE00930122330030
:10B91000A06CFEF799FE051E03D00E4D280006B060
:10B9200070BD6423642132884942D2BA534372887D
:10B93000A363D2BA4A4362630E22B3886A445BBAF5
:10B9400013801BB24B43E363236820001B6A9847B4
:10B95000E4E7C0460EFCFFFFF8B504000F00190035
:10B9600006AB1E8807AB15001A88FEF7B5F80D4B1D
:10B97000A764083323602300AA884C339A80AA79ED
:10B98000A9689A71084AA889E2640E22AA566165DC
:10B990002100583108801E8220009A73FFF74EFF65
:10B9A0002000F8BDCC6C0200C4690200F0B5FA2595
:10B9B0000189234FAD0085B004006943380009F0C8
:10B9C000C0FB290005F08CF81E4EA17A20813000C2
:10B9D00009F0B7FB636CA0720293230058332189EE
:10B9E00001931B7869433800039309F0A5FB0723F3
:10B9F0000343202203990298DBB208F09CFC002844
:10BA00001AD1019B22221978606C102308F093FC54
:10BA1000002811D1019BA17A30001F78656C09F0D4
:10BA20008BFB80235B420343232239002800DBB2D7
:10BA300008F081FC002800D0034805B0F0BDC046E6
:10BA4000006D0200F86C02000EFCFFFF10B5040050
:10BA5000034B0833036007F084FF200010BDC0468D
:10BA6000706D0200F0B504258379040085B02B4287
:10BA700004D1FDF735F9A3791D43A57120004830A5
:10BA8000FFF71CF9051E0DD0230058331978062343
:10BA900002AE0093A8223300606CFEF7D5FD051EB0
:10BAA00003D0144D280005B0F0BD1F200023F25E26
:10BAB000D31703409B180222B15E5B11CA170240E4
:10BAC00052180421775E3380F9170140A07A521191
:10BAD0004343C919728049114243B18041435B42DB
:10BAE000E3612368524220009B6AA2612162984769
:10BAF000D8E7C0460EFCFFFFF8B504000F001900A0
:10BB000006AB1E8807AB15001A88FDF78BFD0F4B9F
:10BB10006764083323602300AA8848339A80AA798F
:10BB2000A9689A710A4AA889A2640E22AA562165B8
:10BB30002100543108809A730023A37123005833E5
:10BB40001E802000FFF732FF2000F8BD706D02005C
:10BB5000C4690200F7B5FA2504000189134EAD004F
:10BB60006943300009F0EDFA290004F0B9FF27001D
:10BB7000A36C208100935C373B7881B2694330002D
:10BB8000019309F0D9FA6022C3B20199009808F034
:10BB9000D2FB002807D1012362223978A06C08F07B
:10BBA000CAFB002800D00248FEBDC046A46D0200BA
:10BBB0000EFCFFFF10B50400034B0833036007F0D1
:10BBC000A4FF200010BDC046CC6D02007FB5082543
:10BBD000837904002B4204D1FDF782F8A3791D4339
:10BBE000A57120004C30FFF769F8051E0DD0230029
:10BBF0005C331978062302AE0093E8223300A06C70
:10BC0000FEF722FD051E03D00B4D280004B070BDC9
:10BC10000223F25E96235B425A4362630021725E06
:10BC200020005343A3630423F25E96235343E3634C
:10BC300023681B6A9847E8E70EFCFFFFF8B504008D
:10BC40000F00190006AB1E8807AB15001A88FDF718
:10BC500043FF0D4BA764083323602300AA884C33AD
:10BC60009A80AA79A9689A71084AA889E2640E2282
:10BC7000AA5661652100583108801E8220009A73FF
:10BC8000FFF768FF2000F8BDCC6D0200C469020018
:10BC900010B50400054B083303601C3007F076FC38
:10BCA0002000183007F072FC200010BDF86D020073
:10BCB000FF23F0B52C4E8DB033700023040069468D
:10BCC0000088009303F0B0F9002802D16B469B78FE
:10BCD0003370264D2B68DB68002B07D100232088AA
:10BCE0001A00190008F09FFF0DB0F0BD3378032B48
:10BCF000F4D81F4901A8FDF7A9FA2B6801A9DD684E
:10BD000004A807F098FC280004A908F0EAFE002720
:10BD1000050004A807F03AFCBD421ED029002022ED
:10BD2000103104A806F0A8F928000AF0F4FD3178D3
:10BD300004ABC9005918082202A806F09DF9012396
:10BD40000822208802A908F06EFF0137002804D1DC
:10BD50000C212088074A08F064FF01A807F016FCB0
:10BD6000002FBBD0C0E7C04680200020182500204F
:10BD70005F770200FFFF0000F0B58379040091B007
:10BD80005B071BD5FDF71EFA00232269801A994133
:10BD9000994203D1F533FF3398420FD3A0680028AE
:10BDA00008D0354B1D8809F044FA03681522290094
:10BDB0001B6A98470422A3799343A371A3799B0735
:10BDC00058D52E4E3368DB68002B4FD02C4F3B7874
:10BDD000032B4BD8284B2B491B8804A80193FDF754
:10BDE00035FA336804A9DD6808A807F024FC08A91F
:10BDF000280008F076FE050008A807F0C7FB082316
:10BE000002AAD3800198073B063206A908F00DFF6D
:10BE1000002D08D029002022103108A806F02CF9A6
:10BE200028000AF078FD3D7802ABDA88ED0008AB17
:10BE30005D19280006A906F0F7F8002813D008229B
:10BE4000280006A906F018F9336804A9DD6805A8DA
:10BE500007F0F1FB2023280008AA05A908F047FEF7
:10BE600005A807F093FB04A807F090FB0222A37932
:10BE70009343A37111B0F0BD2C2900201825002098
:10BE8000802000205F770200F0B50400150085B027
:10BE900001930AAB1F880BAB1B78461C02930EABB9
:10BEA0001B78102203930B7803704B8A0131438275
:10BEB000300006F0E1F8656100250122019B27832F
:10BEC0006383039BE5832377029B2000F377A31C06
:10BED000DA770C9B0C26636223000D9A2833290025
:10BEE0001A705D7032009D702C3006F077F92000DA
:10BEF000064B3200A3632900E563403006F06EF97B
:10BF00002000034B2565E36405B0F0BD414C020001
:10BF1000334C020070B50D0009F08BF90400036882
:10BF2000002D09D15B699847FA20800068430749D2
:10BF300004F0D6FDE08070BD9B6898478542F3D23F
:10BF4000236820009B6898470500EDE77102000018
:10BF5000F0B507001500A1B002C706006B4918A88C
:10BF60001C0008F037FF2B1E03D0280006F020FB32
:10BF700083B20122049200220392029202320192C1
:10BF800000932A0018A93800FFF77EFF33006049AC
:10BF9000583318A8079308F01DFF231E03D0200074
:10BFA00006F006FB83B20122049200220392029261
:10BFB000023201920093220018A90798FFF764FF4C
:10BFC00033005449AC3318A8089308F003FF269BAC
:10BFD000002B03D0180006F0EBFA83B20122049282
:10BFE000002203920292023201920093269A18A92B
:10BFF0000898FFF749FF731CFF33474918A80993B6
:10C0000008F0E8FE279B002B03D0180006F0D0FABA
:10C0100083B2012204920022701C03920292023227
:10C0200001920093279A18A9FF30FFF72DFF3300E4
:10C030005533FF33394918A8099308F0CBFE289BE4
:10C04000002B03D0180006F0B3FA83B20122049249
:10C05000002203920292023201920093289A18A9B8
:10C060000998FFF711FF3300A933FF332C4918A8B3
:10C070000A9308F0AFFE299B002B03D0180006F0AE
:10C0800097FA83B201220492002218AC0392029222
:10C090000232019200932100299A0A98FFF7F4FED8
:10C0A000204B1B780B93002B2DD1079B1E4913931C
:10C0B000089B0DA81493731CFF331593099B1297CB
:10C0C00016930A9B12AD179308F084FE1D21492098
:10C0D00006AB1B7F1022237006ABDB8D638206ABA1
:10C0E000C918C01805F0C8FF062323750B9B3068DC
:10C0F000A383A56109F0A1F8036821001B68984794
:10C100000122084B1A70300021B0F0BD292A00002E
:10C11000242A0000252A0000272A0000262A0000E1
:10C12000282A0000862900200A18000070B5002582
:10C1300004000B4B8580083385710360C1601830A3
:10C14000FDF7BEF820001C30FDF7BAF80123621C91
:10C15000D377044A2000A56065611460A37170BDA7
:10C16000F86D020018250020FA2130B585B00400D2
:10C17000012302226846890007F0A1FA074D2868CA
:10C18000002809D008F05FFE2188054B2A68198035
:10C19000022391790B43937105B030BD182500201F
:10C1A0002C29002010B50C0007290FD8806809F051
:10C1B00040F8074B195703685B6C98474342584156
:10C1C000044B40421840044BC01810BD0348FCE724
:10C1D000DE780200EA03000016FCFFFF17FCFFFFF9
:10C1E000F0B5A04C0D00A544040007939AAB1B7852
:10C1F0009D4909A804930692FDF728F8200029001C
:10C200001C3007F020FAC020800000F0D1FF082089
:10C210000AF089FB0700002100F0B0FE002108228F
:10C22000A7600FA805F0DAFF002315AD0E932B00D1
:10C230000EAA43CA43C38D4B2900EB60002338008C
:10C240002B6108F0DFFFA06808F0F3FF082200214F
:10C25000059016A805F0C2FF14200AF064FB844B79
:10C260002A0015930300C2CAC2C3824B059EC36055
:10C270000023A43603613368002B00D0ECE030606B
:10C28000A06808F0DAFF08220021060016A805F0D1
:10C29000A5FF14200AF047FB774B1593030086CDCA
:10C2A00086C3764BC36000230361336B002B00D041
:10C2B000D4E03063A06808F0BCFF0822002105909C
:10C2C00016A805F08BFF14200AF02DFB6C4B15AD62
:10C2D00015932A000300C2CAC2C36A4B059EC360FD
:10C2E0000023983603613368002B00D0B8E030603B
:10C2F000012604AB1B7C04AA334308A93000137445
:10C3000008F095FCA06808F09CFF03685E495B6A32
:10C310009847A06808F095FF03685C499B699847B7
:10C32000A06808F08EFF0023026800931768049944
:10C330003200B847049B002B0AD0200008F08CFD87
:10C34000032805DDA06808F07CFF0368DB689847D8
:10C3500000260EAFB819073608F0A8FC1C2EF8D13D
:10C36000183E04ABA0680A975E7708F06AFF03687E
:10C370000AA91B699847A06808F05BFF03680AA92F
:10C380005B6D9847A06808F054FF03680021DB6DDF
:10C390009847A06808F04DFF036802219B6D9847FD
:10C3A00000212000FFF7FEFE18200AF0BCFAA16869
:10C3B00000F054FA364B374A1B68A1680393364B9A
:10C3C00028001B6800250293344B0CAF1B680193B7
:10C3D000069B1B689B190093314B12681B68FFF783
:10C3E000B7FD30200AF09FFA079AA16800F0F6FA2C
:10C3F000A06808F01EFF036839009B6A9847294B24
:10C40000A0680C93BD8008F014FF03683900DB6A54
:10C4100098473100A06808F0E9FC099A092193784F
:10C42000A068921908F0F5FCA06808F002FF32211C
:10C430000571A068FFF76EFD04AB1B7FAB4204D013
:10C44000A06808F0F6FE08F0BBFC09A807F09EF80B
:10C4500095239B009D44F0BD036110E7036128E72D
:10C46000036144E7ACFDFFFF6B7702004F4C020015
:10C4700069C101005D4C0200B1BC01006B4C0200BF
:10C48000994C0200794C0200A9C40100DDC40100EE
:10C490001425002010250020082000200C25002055
:10C4A0000C2000200800100013B506226846FCF797
:10C4B000DDFE094B1C68002C0AD0694601A807F074
:10C4C000BAF8200001A908F0E1FC01A807F05EF825
:10C4D000684607F05BF813BD18250020002373B5EC
:10C4E00001AE0C0031000500019302F09DFD002813
:10C4F00002D1B278064B1A70064B1868002806D095
:10C5000061426141044BC9B21D8008F0C7FC73BD94
:10C5100080200020182500202C29002030B5284C30
:10C52000A9B06A220D000DA8210005F0A5FD0DA9F6
:10C5300003A8FCF7F9FE03A906A807F0F0F8012309
:10C540000193013BFF3B00930533FF33642206A9AF
:10C550002800FEF71FF806A807F0D4F821001922DA
:10C560006A3106A805F088FD05220024110006ABFB
:10C5700004A807F0FBF804A905A807F0D0F82300E9
:10C58000220028000194009405A9FDF76BFF05A87F
:10C5900007F0B8F821002800FEF72CF80534052034
:10C5A000FCF73CFCFF2CF5D1FA208000FCF736FCB0
:10C5B00004A807F0A7F803A807F0A4F829B030BD35
:10C5C0005B780200F0B59C4B95B005921A68082381
:10C5D00004000F00D16C06A80B43D3649749FCF705
:10C5E00035FE974907A8FCF731FE220000250DAE65
:10C5F00030001C3206A907F035F8310007AA08A858
:10C6000007F030F8300006F0C1FF631CDD77A0684A
:10C6100008F00FFE03685B6998477019073508F04A
:10C6200045FB1C2DF9D180230BADDB00AB80A0684E
:10C630000B9608F0FEFD036829005B6D9847A06823
:10C6400008F0F7FD036800219B6D9847A06808F08B
:10C65000F0FD0300002506000A331F220021180008
:10C66000039305F0BBFD039B3000DD7708F09FFBD3
:10C670000621A06808F0BAFB089A09219378A068FF
:10C68000043208F0C6FBA06808F0D3FDC82105718C
:10C69000A068FFF73FFCA06808F0CBFD0581A0680B
:10C6A00008F0C7FD08F08CFB3800FDF76DFE200098
:10C6B000FCF716FB39002000FFF730FF390020009F
:10C6C00008F0FFFBFF230495039362690123160022
:10C6D0001E401A4232D05B4909A8FCF79FFE09A907
:10C6E0000AA807F01CF800220AA913000192009280
:10C6F0003800FDF7B7FE0AA807F004F8049B002BEA
:10C7000047D1039B043B0393039B282B44DC380055
:10C7100007F004FE039B002B00DC0496059807F04D
:10C72000E0F9002806D0012362699A43130004222D
:10C730001343636109A806F0E5FF0025042263693D
:10C74000134234D0FF213800C826FDF753FF0025DF
:10C75000B600A36902229B5EAB4223DD200029B212
:10C76000183006F095FF0023010038001A007430DD
:10C77000FCF7A4FE3000FCF751FB380007F0CEFDBB
:10C78000C820FCF74BFB0222636913420AD1013532
:10C79000DFE7039B0433B6E7039BFE2BBEDD0023DC
:10C7A0000493BBE7FA208000FCF738FB0025022247
:10C7B000636913421ED01E0006321640134224D075
:10C7C000214909A8FCF72AFE09A90AA806F0A7FF33
:10C7D00000220AA91300019200923800FDF742FEE0
:10C7E0000AA806F08FFF1948FCF718FB09A806F005
:10C7F00089FF174D6420FCF711FB164B01359D4254
:10C8000000DC62E706F092FD5FE7134909A8FCF738
:10C8100005FE09A90AA806F082FF330032000AA922
:10C82000380001960096FDF71DFE0AA806F06AFF83
:10C8300009A806F067FFDDE79C2400207977020055
:10C84000897702008B770200D0770200983A0000C7
:10C850008C0A00008B0A00000D7802000022594B60
:10C86000F0B508330360060081600F001000A9B026
:10C870000BABD11801324870102AFAD119000F3AC7
:10C88000514C1A700E32105D01310870013AFAD223
:10C89000997B5A7B09020A4331000C31039125210F
:10C8A0001B7813AD2B7002ABC918452302A81B18C7
:10C8B0006A821800102205F0DFFB039B64216B6184
:10C8C0000123002402AA2B775218199309331370FD
:10C8D0005B1802AA9B18210008221C701FA8EC8379
:10C8E0006C622C8505F07AFC384B0822210024A8C4
:10C8F000AB63EC63EC6205F071FC354B02AAEB64B0
:10C9000046239B180322DA7722002C652C640595B8
:10C91000347306AD631901345A70102CFAD1012317
:10C920002A002C482B700E33195C01321170013B28
:10C93000FAD211212520AA7B6B7B12020BAC134388
:10C940002A78638202ABC9182270C018102205F041
:10C9500093FB0123237505ABA36100233800A38358
:10C9600008F06BFC036821001B68984713ABDB8B56
:10C97000B068B38208F061FC002203680092B18ABB
:10C98000039ADC680123A047B06808F056FC070052
:10C99000142009F0C8FF002201230400026106925E
:10C9A000290040C00832079305F066FB0A4BE3609C
:10C9B000BB69002B03D13000BC6129B0F0BD2361FD
:10C9C000F9E7C046106E0200E6780200414C020012
:10C9D000334C0200F6780200234F0200F0B5002429
:10C9E0000500774BD9B0083303608160C260754998
:10C9F00022008480847143A808F033FB2B00143399
:10CA00000126042706931223069A049601930097A1
:10CA1000230043A90394029419A8FFF735FA2200D2
:10CA2000694943A808F01DFB0C232A000496103224
:10CA300001930097230043A9039402942EA8FFF7C3
:10CA400023FA2200614911A808F00BFB2A001C32CE
:10CA5000079208222300049601920097079A11A9D1
:10CA60000394029443A8FFF70FFA2200584911A833
:10CA700008F0F7FA542009F056FF060012200123AF
:10CA800004212A00019011A8183204930091230078
:10CA900001000394300002941700FFF7F5F930000D
:10CAA0004C4B0822119311AB1900AE62F562303085
:10CAB000129405F0E1FA484B0122B36333002933A5
:10CAC0001A703800079903322C61EC6105F0D4FA32
:10CAD00039000422069805F0CFFA5E22032302A94A
:10CAE0005218D377B2225218D3770A000732FF3296
:10CAF000D377B21CD37719AB08932EAB22003749FA
:10CB00000993AC8543AB0CA80A930B9608F0A9FADD
:10CB100028223C2002AB9B181B7802AA1218137023
:10CB200002AB5B8F123002AA12181380292302A9CC
:10CB30005B181900113802AB1022C01805F09CFADE
:10CB40005022042102AB9B185822197002AB9B188B
:10CB500008AF1797A8681C8008F06FFB036811A93D
:10CB60001B6898477A2202AB9B181B8854322B848F
:10CB700002AB9B181B885432AB8402AB9B181B88FA
:10CB8000A8686B8408F059FB0700142009F0CBFE5D
:10CB90000600134B0461082220C00CA90C930D94CD
:10CBA00005F06AFA0F4BF360BB69A34206D1280077
:10CBB000BE61FCF795F8280059B0F0BD3361F6E787
:10CBC0001C6E020026790200067902001679020026
:10CBD0003679020035500200A14F0200467902006A
:10CBE00059CC0100CB4F0200F0B5040085B01F0006
:10CBF0000CAB1B8810300E001500019306F055FD9C
:10CC00002000243006F0E9FB26806580182009F01A
:10CC10008AFE02AE050033000AAA03CA03C32F60CE
:10CC20002800082700213A000C3005F0D7FA3A0016
:10CC30003100281D05F020FA064B022220006B610E
:10CC400000230199A5600A43E360A2802362E362A6
:10CC500005B0F0BDF54F0200F0B58DB005904B88E2
:10CC6000828C0D89CC689A420AD1032D38DD628806
:10CC70002188012308A806F022FD043D0434F4E7CE
:10CC8000059A528C9A422BD1032D29DD059B302029
:10CC9000DF682388069363880793124B0893002369
:10CCA000099309F040FEC0236A460600029308ABD0
:10CCB00003CB03C23000059B0699079AFFF794FF48
:10CCC0003B68310038005B689847002805D0300089
:10CCD00006F010FC300009F01EFE043D0434D3E7DA
:10CCE0000DB0F0BDB350020070B5040092B0806882
:10CCF00008F0DAF902230100194018421AD1A38D75
:10CD0000002B17D00C4B6A4604931023E568A185CD
:10CD10000591029304AB41CB41C20A00230006A84F
:10CD2000FFF762FF2B6828009B6806A9984706A8B2
:10CD300006F0E0FB12B070BDB3500200002815D021
:10CD4000006041608260C360046145618661C761C3
:10CD5000444604624C464462544684625C46C46263
:10CD6000644604636E46466374468463002A06D0B4
:10CD7000C46B043C043A25681560B442F9D18C6B4D
:10CD8000A6464E6BB546002B06D0CC6B043C043B4C
:10CD90001D682560B442F9D10C6BA446CC6AA34649
:10CDA0008C6AA2464C6AA1460C6AA046CF698E697D
:10CDB0004D690C69CB688A680868496870470060EB
:10CDC00041608260C360046145618661C761444619
:10CDD00004624C464462544684625C46C4626446C3
:10CDE00004636E46466374468463C46B043C043932
:10CDF00025680D60B442F9D1C7698669456904693F
:10CE00007047006041608260C36004614561866173
:10CE1000C761444604624C464462544684625C46A0
:10CE2000C462644604636C46446374468463046964
:10CE30007047846BA646446BA546046BA446C46A3F
:10CE4000A346846AA246446AA146046AA046C7690A
:10CE5000866945690469C3688268006841687047EB
:10CE600010B5041E0CD005F0A3FB431EE318A3422B
:10CE700008D922781978013B21705A700134F6E7FD
:10CE8000014810BD0020FCE717FCFFFFF0B585B09E
:10CE90000D1E009029D000260A27C217141A4B1E17
:10CEA000544003932000029639000136019603F0A6
:10CEB00087FFCB17C9185940039B30312000995583
:10CEC000390003F097FE041EECD1009B002B04DA1E
:10CED0002D23029E019A0236AB5400232800AB5545
:10CEE000FFF7BEFF200005B0F0BD014CFAE7C046D9
:10CEF00017FCFFFF0268084B406810B5C018C0005F
:10CF0000101803009A4205D81C688C4202D31800FE
:10CF1000083BF7E710BDC046FFFFFF1F70B50028B4
:10CF200017D1124D2E68002E11D1083009F0FBFCEC
:10CF3000066046600E4E04003368002B02D108F0F4
:10CF4000C6FB306023682C609B00F3586360286840
:10CF500070BD084A0123116807480C001C401942A3
:10CF6000F6D1036044601360F2E7C046202500203C
:10CF70002C2500201C25002024250020002370B52E
:10CF800004000160436099420AD1064D2B68002BD2
:10CF900002D108F09CFB286023689B00EB5863607B
:10CFA000200070BD2C250020436810B50400002B24
:10CFB00002D1044809F0B3FA606803681B69984716
:10CFC00010BDC04656790200436810B50400002B1E
:10CFD00002D1044809F0A3FA606803689B69984786
:10CFE00010BDC04656790200436810B50400002BFE
:10CFF00002D1044809F093FA606803685B6A9847B5
:10D0000010BDC0465679020010B5040002F0C0FB06
:10D01000034B1B68002B01D02000984710BDC04671
:10D0200034250020F0B58BB0050001F039FE00205A
:10D0300000F010FC036806001B6998473368040081
:10D040009B6930009847336801905B6A30009847CD
:10D050000200288810380B286CD803F02DFD0648F4
:10D060006B6B6B656B6B6B716B83AF8820003900EA
:10D0700008F034FD22001623583216789C46143BE3
:10D080003343A879697B1370012304AEB370002386
:10D09000378032001F00AC44F070981801330771DC
:10D0A000062BFAD1002791723A00F3190137DA7290
:10D0B000062FFAD163463A007361E91D05A804F012
:10D0C000DBFF29000B2004AB3A000E31C01804F03E
:10D0D000D3FF94346368A360A06800282AD0C36893
:10D0E00031009847A368002BF4D01B69F3E72000B8
:10D0F0002E49AE8808F0F2FC220002205832137844
:10D10000A9798343137004AB1E809970A0346368BF
:10D11000A360A06800280DD0C36804A99847A3683D
:10D12000002BF4D01B69F3E75369002B02D0A888C9
:10D13000A91D98472900019808F0A4FD0BB0F0BD87
:10D14000636E002BF6D0AE79A366A06E0028F1D0F6
:10D15000C36831009847A36E002B01D1636EF3E7DB
:10D160001B69F1E7012669460D27AB7BEF575A078C
:10D170001E40920FDB080A720B730622E91D04A8F9
:10D1800004F07AFF6A46127A04AB1A726A46127B7E
:10D190009F715A72DE712B0020000F338C3407937D
:10D1A0008030236804A99847C4E7C046FFFF000009
:10D1B00003000720D72B02D90020014A13607047D3
:10D1C00030250020014B18607047C04634250020F0
:10D1D0001FB58022A323D205DB00D3580820DB072C
:10D1E00000D4053048221C4B1C4902F03BFD0028AE
:10D1F0000AD080B2002807D1BFF34F8F184B194ACD
:10D20000DA60BFF34F8FFEE7002302A802930133D9
:10D210000370154B1B68436008F01BF8002802D010
:10D22000072005B000BD684608F011F80028F7D1C6
:10D23000694608F00AF80028F2D10C4802F042FDD5
:10D2400080B20028EDD10A4802F046FD80B20028E5
:10D25000E7D100F01FF8E4E757520200382500201C
:10D2600000ED00E00400FA053025002025D0010083
:10D2700009D0010080B2002807D1BFF34F8F034BC4
:10D28000034ADA60BFF34F8FFEE7704700ED00E01E
:10D290000400FA051FB5104B01A80293283B039325
:10D2A000112305220D49037007F0E1FF80B2002829
:10D2B0000FD18020800007F0D6FF80B2002808D16F
:10D2C00002A807F0D2FF80B2002802D107F0C9FF00
:10D2D00080B205B000BDC0462800900179790200F7
:10D2E00000487047FFFF0000F0B597B00593036852
:10D2F00007AD1B680491039311002B00060091C930
:10D3000091C30024D368210008220DA8EB602C6192
:10D3100004F064FF22000B4B10940F9311AB0C949C
:10D320001C70E11801344A70102CFAD15A82019312
:10D33000059B2A00009330000499039C0CABA04786
:10D3400017B0F0BD89530200FC3070B5046C0500C5
:10D35000002C0DD1242009F0E6FA064B44608361CD
:10D36000054B8460C46004614461C4610360286447
:10D37000286C70BD086F0200F06F0200FC3070B5C1
:10D38000C56B0400002D11D1342009F0CCFA084BF4
:10D3900085604360074B45610361074B0562C361CC
:10D3A000064BC5628362064BE0630360E06B70BDB1
:10D3B000386F0200286F0200986F0200A86F020009
:10D3C000B86F02007FB503791548002B22D0154EA7
:10D3D000154C33782000002B1CD102AD280007F03B
:10D3E000B0FF002810D16B88592B0DD12B78AA885B
:10D3F000D91F012910D800920C4A2021200005F0E5
:10D4000053F80123337004E020222000084905F07E
:10D4100003F9200004B070BD0092064AEDE7C04653
:10D420007F790200A729002087290020A179020026
:10D4300099790200BE79020010B50400024B08C0C1
:10D4400008F05EF8200010BD286F020010B504003F
:10D45000024B08C008F069F8200010BD386F0200C8
:10D46000064B70B5040003604068002804D00569CD
:10D4700009F051FA2800F8E7200070BD186F02008B
:10D48000064B70B5040003604068002804D00569AD
:10D4900009F041FA2800F8E7200070BD486F02004B
:10D4A000064B70B5040003604068002804D005698D
:10D4B00009F031FA2800F8E7200070BD586F02002B
:10D4C000064B70B5040003604068002804D005696D
:10D4D00009F021FA2800F8E7200070BD986F0200DB
:10D4E000064B70B5040003604068002804D005694D
:10D4F00009F011FA2800F8E7200070BD3C6E020028
:10D50000064B70B5040003604068002804D005692C
:10D5100009F001FA2800F8E7200070BD4C6E020007
:10D52000064B70B5040003604068002804D005690C
:10D5300009F0F1F92800F8E7200070BD5C6E0200E8
:10D54000064B70B5040003604068002804D00569EC
:10D5500009F0E1F92800F8E7200070BD6C6E0200C8
:10D56000064B70B5040003604068002804D00569CC
:10D5700009F0D1F92800F8E7200070BD086F02001B
:10D58000064B70B5040003604068002804D00569AC
:10D5900009F0C1F92800F8E7200070BDA86F02006B
:10D5A000FC3070B5046C0500002C0DD1242009F06E
:10D5B000BAF9064B44608361054B8460C460046122
:10D5C0004461C46103602864286C70BD086F020068
:10D5D000F06F0200134B70B508330360124B040068
:10D5E000C3608023114A451CFF355B00C2502800F0
:10D5F00008F017FF280002F09BFC20000C4BB8300D
:10D60000E360FFF79DFF2000AC30FFF789FF2000AB
:10D61000A030FFF775FF20006C30FFF761FF20009E
:10D6200070BDC0461C70020064700200A871020048
:10D630007C6E0200F0B50500040087B0AC356B6865
:10D64000AB60A868002807D0C36821009847AB6882
:10D65000002BF4D01B69F3E72500B03528680028BB
:10D6600004D0066909F057F93000F8E722000321D9
:10D670005832137828608B43137023005C33187082
:10D6800020000A3008F01AF82000343008F016F8AC
:10D69000606E002804D0056909F03DF92800F8E71C
:10D6A0002500983560662868002804D0066909F0CE
:10D6B00032F93000F8E72600A43628603568002DDE
:10D6C00005D02F69280009F026F93D00F7E7290069
:10D6D0003560082202A804F081FD01AE230032006B
:10D6E00001956C3383CA83C3094B08222900A367C1
:10D6F000E56702A804F072FD23000195803307CE90
:10D7000007C32800034A90341A60256007B0F0BDB3
:10D710006D5302005F530200444AF0B50600C26038
:10D72000A022434B010008330360163600234282D7
:10D730000400320085B00371836003748382353145
:10D74000137001329142FBD1802580222000AD0070
:10D75000D2011100F377358438300093002300F0B4
:10D760007BFD2300210040331A0003932B0000258A
:10D770005F31157001328A42FBD1039A0321D577BC
:10D78000220060321380137920008B431371230031
:10D7900068331D70274B0C22E36600212567783023
:10D7A00004F01CFD2300270088331D60224B08373E
:10D7B000A567FB67843700210C22380004F00EFDBA
:10D7C0001E4B1F4AFB602300A0333D613D601A6081
:10D7D0001C4A5D60DA601C4A1D619A61DD6130009F
:10D7E00007F06CFF039807F069FF184B601CE360BB
:10D7F0002300C4331D809D70FF3002F083FB8C2317
:10D800005B00E55023001933FF335D618023104A2C
:10D810005B00E250230001222000FE3352425A8670
:10D82000023B9D63DD631D6405B0F0BD7C6E0200AC
:10D830001C7002003C6E02006D5302005F53020038
:10D840004C6E02005C6E02006C6E0200647002009E
:10D85000BC71020070B5074D2B68002B07D1A020CA
:10D86000400009F060F80400FFF756FF2C602868BC
:10D8700070BDC0468025002070B50C220D0000212F
:10D88000040004F0ABFC00232361024B2000256060
:10D89000E36070BD7B53020070B500250400254B8A
:10D8A00029000360244B85808360244BC56043615D
:10D8B000234B85610362234B4562C362224B0563A0
:10D8C0008363C5634430FFF7D7FF20002900583039
:10D8D000FFF7D2FF200029006C30FFF7CDFF1B4B74
:10D8E000220023602300F832803320C39342FCD10E
:10D8F00026001D00E936FF362800082200210835E1
:10D9000004F06CFCAE42F7D18E2300229B00E1189C
:10D9100004C68E42FCD18E2300219B00E2540C4BA6
:10D920000C4AE318A218198002339342FBD120005D
:10D9300070BDC046686F0200186F0200286F0200B9
:10D94000386F0200486F0200586F0200F07002004A
:10D950003A02000062020000024B0B6009231360D0
:10D960007047C046E379020010B504000020FFF7BD
:10D9700071FF03681B6998470300F3331C7086230B
:10D980005B00C05003000021044AFC335A61044A82
:10D9900099615A62F43008F055FD10BD9B590200A0
:10D9A000AD590200012110B5054A080002F0F4F952
:10D9B00003005A1E93410B205B42184010BDC04625
:10D9C00069D90100F0B593B0029000200C00FFF778
:10D9D00041FF03685B6A984700F0DEFA030006A87F
:10D9E000002B0DD00023037105AB069308230373AE
:10D9F0000AAB836000F098FB002803D013B0F0BDA1
:10DA0000037103730023237323710193029B019A13
:10DA1000BA331B7893423ED9072353431E00029A20
:10DA2000BB36D318BB331B789619022B2CD100259B
:10DA300006AF3B7BAB4220D9AB000393089BAA0007
:10DA40003000995808F07FFA00281AD0B868AB0067
:10DA5000C118237BA6689C469A000B6893516346C5
:10DA6000013323733B7B5A1E954204D00B4D5B1947
:10DA70009B001B580B6006AB1A73019B0133DBB292
:10DA8000C3E70135EDB2D3E7237921689A0001336A
:10DA900056502371F1E70020B0E7C046FFFFFF3F7B
:10DAA000F0B5040008780D009BB0012846D04B88E3
:10DAB000032830D1A03B224A9BB2934229D880232D
:10DAC000AA880320DB019A4223D20AAB009312AB4F
:10DAD0006A46029326000023B83613711373337815
