:020000021000EC
:1080000000400020C1FC0100FDFC0100FFFC01005C
:108010000000000000000000000000000000000060
:1080200000000000000000000000000001FD010051
:10803000000000000000000003FD010005FD01003C
:1080400007FD010081AB01007D03020007FD010077
:1080500007FD01000000000039FD010007FD0100DF
:1080600007FD0100710502000502020007FD010085
:1080700007FD010007FD010007FD010007FD0100EC
:1080800007FD010007FD010007FD010007FD0100DC
:1080900007FD0100D9FA01004DFA010007FD0100BA
:1080A00007FD010007FD01000000000000000000C6
:1080B00000000000000000000000000000000000C0
:1080C0000448054B10B5834203D0044B002B00D06D
:1080D000984710BDAC200020AC200020000000001C
:1080E00006480749091A8B10C90FC91810B549105D
:1080F00003D0044B002B00D0984710BDAC200020CB
:10810000AC2000200000000010B5074C2378002BA5
:1081100009D1FFF7D5FF054B002B02D0044800E042
:1081200000BF0123237010BDC82000200000000004
:108130008C750200054B10B5002B03D0044905488F
:1081400000E000BFFFF7CCFF10BDC04600000000FC
:10815000CC2000208C750200402292029A1A92468E
:108160007047C046154B002B00D1114B9D46FFF7C1
:10817000F3FF00218B460F461148124A121A09F0EC
:1081800089FE0C4B002B00D098470B4B002B00D0E6
:1081900098470020002104000D000B4809F0F6FC70
:1081A00009F03CFD200029000EF003F809F00CFD59
:1081B0000000080000000000000000000040002057
:1081C000B02000204C2A0020F51B020010B504004E
:1081D000034B036040300BF02EF8200010BDC0466A
:1081E0005C65020010B5084800F00AF9002422007E
:1081F000064907480DF0A3FE01340A2000F0A0FD57
:108200000A2CF4D1002010BDE4200020C96F020028
:10821000E820002010B5054C200000F039F82000BF
:10822000034A04490EF064F910BDC046E420002062
:108230000020002039820100CA23144A9B0010B597
:10824000C2501C330400C0180AF0F5FFD0239B0075
:10825000E0180AF0F0FF20009130FF3001F08AFBB7
:1082600020006930FF3001F085FB2000F03001F084
:10827000FDFE2000D03002F055FA2000643007F0F7
:108280007DFC201DFFF7A2FF200010BDE869020061
:108290001423F0B5040093B0192200931821043080
:1082A00002F0BEFC23002500260064331800B4351C
:1082B00013211093B83607F06DFC28000CF0DBF9A1
:1082C00000221E2130000BF065FE2000D03002F0AD
:1082D00049FA2300F03307211800464A119301F0B0
:1082E000EDFE20000027012369301A0011210097BC
:1082F000FF3001F04BFB20009130012302221A21B4
:108300000097FF3001F042FB2000B930022201212A
:108310000323FF3002F0F8FA300001F03DF9E423C6
:108320005B00E050300001F08BFBE6235B00E05087
:108330000100E42220005200D130119BA258009588
:10834000FF3001F0D5FD2000E13029000822FF3088
:1083500002F000FE782320000F93013B0E93033BB5
:108360000D93013B0C93013B0B93013B0A93013BA3
:108370000993013B0893013B0793013B0693013BA3
:108380000593013B0493013B0393013B0293013BA3
:108390000193F930013B652200936421013BFF30DA
:1083A0000BF019FECA239B002900E01803F06EFDB4
:1083B000D3239B00E018092102F07EFBDD239B0004
:1083C000E7501098032127700DF081FD2300220053
:1083D000200009499C33A0321C6011605760074A95
:1083E00002215A618030012207F058FD200013B0AD
:1083F000F0BDC04664650200892E0200732E0200A3
:108400000278F0B50123170004008FB01F401A4214
:1084100000D085E00300D0331800039300F000FB88
:1084200000F0E4F930200EF072F8050010300AF088
:1084300091FF280024300AF025FE6F4B18202B6096
:108440000EF065F806006D4B0822390004600C3010
:108450000C930D9709F01EFD0CA90822301D09F0A0
:1084600067FC674B2900736112230398AE60EF60CD
:10847000AB802F62EF6202F0E9F8002805D02800F7
:108480000AF08DFE28000EF03AF80123270022782A
:10849000B437134323705B4938000CF0F2F8002620
:1084A0005949059038000CF0ECF83500069064202E
:1084B00000F046FC049623006933FF33180007934D
:1084C0000BF064F900282DD1059B002B34D1069BBD
:1084D000002B31D1DD254D494D48AD0000F0F4FCB5
:1084E0006359002B1CD100F0A1F801000BA800F08B
:1084F0003FFE0CA80AF03CFDCA239B00E018069B37
:108500000CAA0BA90093039B03F01AFD0CA80AF018
:1085100092FE0BA80AF08FFECC239B00E358635118
:108520000FB0F0BD20009130FF300BF02FF9002884
:10853000CAD0049B182BC7DC20006530FF2329B26A
:1085400032B2FF3000F090FE322000F0F9FB049BC5
:1085500001350133EDB20493052D02D1002501361A
:10856000F6B2049B192B0AD0059B002BA3D0380030
:10857000244902F083FC05980DF0C1FF02E0059B41
:10858000002BF4D1069B002B02D018000DF0B7FF92
:108590001E491F4800F098FCCA239B00E31808936B
:1085A000DD239B00E3580993002B1ED100F03EF819
:1085B00001000BA800F0DCFD0CA80AF0D9FC012397
:1085C0000CAA0BA908980093039B03F0B9FC0CA814
:1085D0000AF031FE0BA80AF02EFECC239B00E358D4
:1085E0000993DD23099A9B00E2502100079A08981D
:1085F000F03103F097FE5EE7FD030000FB2E020062
:10860000BB2E0200CD6F0200D86F020000200020B8
:10861000001C0020BFF34F8F024B034ADA60BFF308
:108620004F8FFEE700ED00E00400FA05F0B58BB0D7
:1086300003AF19223800154909F07AFB0023144DC5
:1086400005266B7180235B055B6E2C000093012374
:1086500001933100009808F025F90800019908F00D
:108660009BF80522009B56431B1A0093019B534322
:1086700001932B1B5343FB181B5C013C6371054B9F
:108680009C42E6D102480BB0F0BDC0461E7002000D
:108690007A29002075290020F0B595B01822002114
:1086A00004000EA809F0F6FB13210EA80DF05FFDE3
:1086B00003210EA80DF006FE464B1B68002B00D1CF
:1086C0000133DBB2009300210123434A09A807F0DC
:1086D00055FDFA239B009C429B411C4072B63F4BC8
:1086E00064211E683E4B20000593052508F0DEF846
:1086F0006843503030180A210690200008F0D6F860
:108700000A2108F0B9F96943503171182000079126
:108710000A2108F0B1F94D435035761908968026A4
:108720000024B601009B002B52D004AD0027032C7F
:1087300002D180260024B6016B682A4A02936300A6
:10874000D3180022019258780299095C0391197894
:108750008C461021604601410398014204D001205B
:10876000904001990143019101320633092AEAD16F
:10877000019B2A68D9431C4B09011940029B934273
:1087800024D1312F22DC002109A80DF054FEFA2358
:10879000139A0F99DB001068014219D0013B002B9E
:1087A000F9D1FA23013401377600E4B25B009F422D
:1087B000BDD1043508ABAB42B8D1064B1B68002BCA
:1087C000B0D0009B013BDBB20093ABE73143DBE76A
:1087D000FFF720FF60240020F0FF000004200020AD
:1087E0006D70020037700200F01F0000F8B5002322
:1087F000124C23600AF0DDFB002808D00421200081
:108800000AF0D3FB002801D00D4B2360F8BD0122F4
:10881000A12704250B4B0C491A602268FF00486011
:108820004E68002EFCD0DE591202013D3243002D6D
:10883000F5D1226001225A60E8E7C0465C2400209E
:10884000ED5EBC0B00D00040FCD00040F0B585B020
:108850001F000AAB1B880600150002910393002F2E
:108860001BD030200DF053FE6B4604001989039B8A
:10887000AAB200933B000AF078FC33682100300074
:108880005B689847002806D020000AF088FC20008A
:108890000DF035FE024805B0F0BD0248FBE7C046CA
:1088A00016FCFFFF17FCFFFF0B4B70B51C68002C7C
:1088B00010D0656D00F018FCA36C002901D1834233
:1088C00006D820000AF0A6FB200004490AF092FB1B
:1088D0002C00ECE770BDC0466824002088240020EE
:1088E000F0B595B007932A4B04AC1E68049005912F
:1088F0000692002E49D0274B258867881C680023E4
:108900000293002C2DD0636D23480393A36C190CA4
:108910009AB20B00854214D12048824211D100291D
:1089200001D0B9420BD1029B002B08D120000AF0E4
:1089300071FB20001A490AF05DFB01230293039C9E
:10894000DFE7002A01D09542F9D1002901D0BB42CE
:10895000F5D120000AF05EFB200011490AF04AFB25
:10896000EDE7104BEB18012B0FD910233A0029002B
:10897000009308A80C4B0AF0F8FB336830009B68A2
:1089800008A9984708A80AF00AFC15B0F0BDC0462F
:108990006424002098240020FE030000FF03000050
:1089A0008824002002FCFFFFE188010010B572B6A8
:1089B0000E4B1C68002C0ED020000AF02BFB00236D
:1089C000E3640B4BE36372B60A4B1A681C60A26542
:1089D00062B6200010BD62B65C200DF098FD5C22EE
:1089E0000021040009F056FAE9E7C046902400206F
:1089F000004000208C240020074B10B51C68E36C5D
:108A0000DB0706D5FFF7D2FF044B1860002800D023
:108A10000400200010BDC0469C2400206C240020CF
:108A2000F7B51E4C0123227816001E401A4233D19E
:108A30001B4D2860FFF7BAFF1A4B1B4918600AF05C
:108A4000D9FAFFF7B3FF194B1860194B4363194B61
:108A50008363286800280FD0C023174F32001749BE
:108A600000933B00FFF7F2FEC023009332003B006F
:108A700013492868FFF7EAFE0C200DF048FD00239B
:108A8000838083710F4B03600F4B836000F044FBC6
:108A90000123227813432370F7BDC04680290020AC
:108AA000642400209C24002088240020942400209A
:108AB000FC3F002079300200E1880100FF03000044
:108AC000FE03000084650200A9880100024B1878AB
:108AD000012318407047C04680290020F7B5134F86
:108AE00004003B680E00002B1ED0114B1B78DB07E7
:108AF0001AD5FFF781FF05003304234383640AF08E
:108B000089FA28000B490AF075FA0B4B0025E31887
:108B1000012B07D9C023009332002100074B38688E
:108B2000FFF794FE2800FEBD054DFBE764240020FE
:108B3000802900209824002002FCFFFFE18801002A
:108B400016FCFFFFF7B506000D0017000193002883
:108B500002D100242000FEBD0029FAD0FFF726FF35
:108B6000041EF6D0074B019A43630660064B45602E
:108B70008760002A00D0054B20000549A3630AF056
:108B800039FAE7E7FC3F0020533002006130020071
:108B90008824002070B5074B0E0011001A780500DC
:108BA0000123100018401A4203D032002800FFF7BA
:108BB000C9FF70BD80290020F8B50500EFF30884D7
:108BC000C36B006C1C1B6B6C1B1A9C420FD91F23C0
:108BD000074E203437689C43002801D000F0D6F9B6
:108BE000200000F09FF92864001968643760F8BD20
:108BF0009C240020024B1868434258417047C046ED
:108C0000882400200300002210B504499400605815
:108C1000002801D00132F9E7635010BD7024002014
:108C2000002310B5044A99008C58844201D00133C6
:108C3000F9E70020885010BD7024002010B50024F2
:108C4000084BA200D058002802D003685B68984700
:108C50000134062CF4D1044B1B68002B00D120BF3B
:108C600010BDC04670240020882400200122F8B5E1
:108C70002C4B1B7813421CD02B4D2C68E36C1342F9
:108C800018D002273B43E364284B1E680423F26C90
:108C900030001343F364636BF363FFF78DFF300021
:108CA000716C03F03CFF2868C36C3B4201D003F0B9
:108CB00070FFF8BD1E4F1F4E3A683068002A0AD177
:108CC00028601B0712D52C60FFF7B8FF3B68002B0C
:108CD000FAD02B600AE0216DB94219D1616D0029EB
:108CE00000D1110029602A688242EAD029688C42AA
:108CF000DFD0336899420DD10F4B4B630F4B8B6321
:108D00002000FFF759FF296820004B6C626C06E0D9
:108D10002A60E8E79C42F3D1002210004B6C03F07C
:108D2000BDFEC6E7802900209C2400206C24002082
:108D30008824002094240020FC3F00207930020089
:108D400070B50C4B04001B78DB0702D40DF0B3FAAE
:108D500070BDFFF751FE050000F0C6F92418AC64A1
:108D600028000AF057F9280003490AF043F9FFF7F1
:108D70007DFFEDE78029002068240020F8B51B4B1B
:108D80001B78DB0727D50024194E30680AF042F91A
:108D9000184D2B68002B02D05B6D0134FAE7032CD1
:108DA0000ADD2F68013C7B6D386C2B6000F0EEF81B
:108DB000380000F0EBF8F2E7290030680AF01AF901
:108DC00072B60D4932680B68934206D19B6D0B60F9
:108DD00062B6FFF74BFFF8BD0B00002BF8D0996D82
:108DE0008A42F9D1926D9A65F2E7C0468029002047
:108DF0009C240020902400208C24002010B5034BDC
:108E00001B78DB0701D5FFF7B9FF10BD80290020D3
:108E1000F7B505000C00002833D001261B4B1B784A
:108E2000334230D01A4F07233868C26C1100194002
:108E300000911A4207D021002800164AFFF7AAFE27
:108E400000252800FEBD03F08CFE3A680221D36C99
:108E50001800084001900B4203D001318B43D364CA
:108E6000EEE73343D3642000A8473A68019DD36CF2
:108E70001900B143D1645B07E3D52000FFF7BEFFC3
:108E8000DFE7054DDDE7054DDBE7C0468029002023
:108E90009C240020FD8D010017FCFFFF16FCFFFF46
:108EA000020010B5014B12CB12C210BDA02400204D
:108EB000034B1A68034B1A607E225A607047C04603
:108EC00004200020A0240020F0B5124E03003278C8
:108ED000022A1BD081421BD90C1A072C18D90D006D
:108EE00005430327280038403D4211D172B6BA40ED
:108EF000094DA4085351AA18516080221206144348
:108F00001C6033780133337062B6F0BD0348FCE770
:108F10000348FAE782290020A824002013FCFFFF61
:108F200017FCFFFF70B5041E23D0124D124E2B7894
:108F3000002B0CD1114912483370FFF7C5FF114BBC
:108F4000984202D11E20FFF7A7FB01232B700025BA
:108F50003378AB4209DD0C49EB002000C9180AF058
:108F600095F8002805D10135F2E71420FFF794FBAE
:108F7000002070BD812900208229002000380020B7
:108F8000502A002017FCFFFFA824002010B500285D
:108F900017D000220F4B19780F4B914215DD1C683A
:108FA00084420FD25C6884420CD9041F2368002BD2
:108FB00002DC1E20FFF770FB802322681B06134390
:108FC000236010BD01320833E7E71E20FFF764FB82
:108FD000F7E7C04682290020A824002070B5051EAE
:108FE00014DD0B4E0B4C3368002B02D020680DF0C3
:108FF00017F8FA2120680024074B89008361C462B6
:10900000694335600DF01DF8200070BD0348FCE792
:10901000B8240020E8240020C590010017FCFFFFC1
:10902000F8B5114F05003E68002E0AD130200DF032
:109030006EFA040006F016FE0C4BA6612360E66291
:109040003C600B4E3368002B09D110200DF05FFA05
:1090500004000DF042F8200034600DF018F82800EC
:10906000FFF7BCFFF8BDC046E8240020906D020069
:10907000E4240020014B18687047C046B824002043
:1090800070B50D4C2368002B03D00C4B1B68002BD4
:1090900002D10620FFF7C4FF20680DF00FF8020090
:1090A0000749C3170D684E685219734120680A605A
:1090B0004B600DF009F870BDE4240020E824002086
:1090C000B020002010B5FFF7DBFF0024054BA20005
:1090D000D058002802D003681B68984701340A2C36
:1090E000F4D110BDBC24002010B5FFF7C9FFFA224F
:1090F000034B920018685968002307F0FDFC10BD6F
:10910000B020002010B5FFF7BBFF024B186859686C
:1091100010BDC046B02000200B4B10B51B680400EA
:10912000002B03D0094B1B68002B02D10620FFF750
:1091300077FF0023064A99008858002801D00133A0
:10914000F9E78C5010BDC046E4240020E82400203C
:10915000BC240020002310B5044A99008C58844296
:1091600001D00133F9E70020885010BDBC24002055
:1091700010B50400002902D00B78002B03D1034B5B
:109180002360200010BD0AF05DF8FAE79465020044
:10919000F8B504000E00150000290AD00B78002B4A
:1091A00007D0002A05D0080097B209F05DF8874281
:1091B00003D90B4B23602000F8BD681DFFF7B2FEFA
:1091C00020600AF0E2F920682A004780310004306C
:1091D00008F0AEFD23685D1900232B71EBE7C04654
:1091E00094650200014B03607047C046946502001D
:1091F00010B50548054C20600AF0CAF92000044A61
:1092000004490DF075F910BD94650200EC240020AE
:109210000020002037320200084B73B51D6804009F
:10922000002D0AD001002E6808220831684608F097
:109230007FFD0CCC28003168884773BDF0240020E6
:10924000014B03607047C0469C65020010B50400E6
:10925000081E03D1034B2360200010BD21600AF0DB
:1092600097F9F9E79C65020030B500684488A1428F
:109270000CDA8588AA4209DA002907DB002A05DB17
:109280006243401880188371002030BD0048FCE71D
:1092900017FCFFFFF0B507000E001D0085B0002988
:1092A00021DD002A1FDD002B1DD004686388039395
:1092B0008B4200DD0391A3880293934200DD02926A
:1092C000002306340193019B029A93420ED0290099
:1092D0002000039A08F02CFD3B68AD195B88E41868
:1092E000019B0133EEE7024805B0F0BD0020FBE72B
:1092F00017FCFFFFF8B504000D0016001F00002941
:1093000001DB002A02DA0D4B2360F8BD1000484350
:109310000630FFF707FE20600AF037F923685D800A
:109320009E80002F06D03B00320029002000FFF76E
:10933000B1FFEAE720000AF05EF8E6E79C6502006C
:10934000F7B507000D1E03D1244B03603800FEBDA6
:10935000002408002600210001940378002B1AD075
:109360003022524294469C446246092A11D90A2B63
:109370000AD1019B361901330193B14200DA310061
:10938000002426000130E8E7002CFBD00024013641
:10939000F8E70124F6E70126019A380012B209B273
:1093A0007642FFF7A7FF31000A203B689A1D2C7810
:1093B000002CCBD02300303B092B08D8F343DB171C
:1093C000334043431B19303B1E000135EFE7002EAD
:1093D000FBDB16700E000132F7E7C0469C65020009
:1093E000F0B5050087B004A816001C000F00FFF7B9
:1093F00057FD2B685A88964235DA9B889C4232DAB0
:109400001F2F30D9059B01939F422CDC0521794306
:10941000049BA0395B1801932300621D0392019AFB
:109420001278029200222C68B7186088B8420DDDCD
:10943000A1888B420ADAE419102717415843029990
:1094400024180F40781E87417F42A7710132052AF8
:10945000E9D1019A013301320192039A9342DED19C
:10946000002007B0F0BD0148FBE7C04617FCFFFF36
:10947000F7B5036806009F1D5B880D005A1A01921C
:10948000002919DD0024994203DB09F0B4FF002014
:1094900013E033689B889C42F9DA79193800019A05
:1094A00008F046FC019B2900F81809F087FF336893
:1094B00001345B88FF18ECE70048FEBD17FCFFFF96
:1094C00010B50548054C20600AF062F82000044AF7
:1094D00004490DF00DF810BD9C650200F424002035
:1094E00000200020AF33020010B5054C0121200000
:1094F0000AF042F82000034A03490CF0F9FF10BDBE
:10950000F82400200020002037350200074A03001D
:1095100010B50120934208D0834202D00020DB071F
:1095200003D41E20FFF7B8F8002010BDFFFF000095
:109530000048704716FCFFFF10B53220FFF7ACF86B
:10954000004810BD16FCFFFF82801422002310B5D6
:1095500041620F4C0100083404600E240281123A6B
:10956000837182720363838636310A78C360A243B3
:10957000036143618361C36103620A70021DD38783
:1095800001224287034AC26302004032137010BDB9
:10959000BC65020001000100F0B5564E05003768B9
:1095A00097B0002F00D090E006AC0B231C22822144
:1095B000200001F0E1F90B231D2283210AA801F00C
:1095C000DBF90B231B2284210EA801F0D5F908201A
:1095D0000CF09DFF01223B00110004900BF0B5FB45
:1095E0003A2128000BF0CEF800281CD0A38812AF37
:1095F000BB80A379A268BB713F4B5C2012930E2302
:10960000E3561492A289BB73BA810CF080FF052344
:109610000193353300933A002900049B040001F0C4
:1096200083FF346051E0322128000BF0D9F8002884
:109630001BD0A38812AFBB80A379A268BB712E4B4D
:109640005C2012930E23E3561492A289BB73BA8155
:109650000CF05DFF052301932D3300933A002900A0
:10966000049B040002F0F8F8DBE73C2128000BF033
:1096700072F8002834D0362202AB9B8E12AFBB802A
:1096800002AB9B181B780832BB711B4BA4201293B2
:1096900002AB9B18109A1B781492059202AA928F23
:1096A0005BB2BA81BB730CF032FF06230400029355
:1096B000013B0193373300933A00049B290001F0EA
:1096C00053FE0E4B346044341C600C4B094C18683C
:1096D000002802D021680AF0C7F8206817B0F0BD52
:1096E00044200CF014FF052204990400FFF72CFF1E
:1096F00097E7C046FC240020AC650200002500204E
:10970000F0B56349C56885B08D4258DA0300363339
:109710001C7802222300134014425BD1026901929B
:109720008A4265DA02003632127852076AD44269F8
:1097300002920200029C40328C4270DA0100363103
:109740000978090775D4002B7ED113789C46002B2D
:1097500016D00100061DF38F363101339BB2F3871B
:109760000391097801270C003C40394200D188E080
:109770001D2B05D9039BB94319700023F387137080
:1097800009F052FF434A0723904277D94249043BEC
:109790008D4273DBC8220133920095426EDC019842
:1097A000023B88426ADB013B904267DC029804334B
:1097B000884263DB0023904260DD06335EE0C8220E
:1097C000002352009542A9DD030036331A780023A6
:1097D0009207A3D4012306001F00363632785408BE
:1097E000A7433C0002279C40BA432243327095E7CE
:1097F000C822019C5200944299DD02003632127850
:10980000520794D4012306001C003636327897089C
:10981000BC43A7000424A2433A43327087E7C8211F
:10982000029C49008C428EDD01003631097809071F
:1098300089D40100012636310B78DF08BE430827A2
:10984000F600BB4333430B701378032B00D97CE73E
:109850000133DBB21370012B03D10021031DD98723
:1098600073E7042B00D070E7020036321178033B17
:109870000B43137000230430C3870B33180005B06B
:10988000F0BD092B00D87BE76346F487013B76E700
:1098900070FEFFFFFF700200E0FCFFFFF0B5C36940
:1098A000C1681A68451D0400EB7F89B0114225D0BC
:1098B000002B57D10123A2791A4237D00026022269
:1098C0006846A188A67109F04FFDA31DDD7F012D1B
:1098D0002CD1FFF709FC3300226A801A99410F004E
:1098E0000600A1889F4203D1FA239B009E423BD3EE
:1098F0000123042204A809F037FD17E00B2B01D83F
:109900000133EB77EB7F082B0DD90122A3791342AA
:109910000CD11343A188A37104A8130009F024FDFE
:10992000FFF7E2FB2062EB7F012BC3D90322A3796F
:109930001340012B14D1FFF7D7FB0023226A801AB2
:109940009941994202D10A4B984209D90223A2793E
:10995000A1881343A3710522012304A809F004FD83
:1099600009B0F0BD013BCCE72B000322C2E7C046A3
:10997000DB05000010B50400034B08330360FFF75C
:10998000E9FB200010BDC046F0650200F0B50600FE
:1099900000250F00040085B002930AAB1B7808363F
:1099A00003930F4B29000833036001928580857172
:1099B0001822300008F06EFA39003000039A0CF0DB
:1099C000DBFB019B029AA380A31DE771DA77631D7D
:1099D00025622000DD77FFF79FFB200005B0F0BD7A
:1099E000F06502000048704716FCFFFF10B53320F9
:1099F000FEF752FE004810BD16FCFFFF002310B515
:109A00000400838083710D48216408302060802029
:109A1000C000A061E061206211002000E3602361CA
:109A200063616362A362E36223636363A363E363CB
:109A3000636409F0F1FE200010BDC0460866020014
:109A4000F0B5544E0500376897B0002F3DD10B2379
:109A50001C22822106A80AAC00F08EFF0B231D22D7
:109A60008321200000F088FF0B231B2284210EA8F5
:109A700000F082FF08200CF04AFD01223B0011009B
:109A800004900BF062F91D2128000AF092FE0028D4
:109A900024D0A38812AFBB80A379A268BB713E4BD0
:109AA000602012930E23E3561492A289BB73BA81ED
:109AB0000CF02DFD06230193173300933A00290083
:109AC000049B040001F0F8FD3460344B314A1B68FC
:109AD0001068002B00D0436417B0F0BD3C21280073
:109AE0000AF095FE00281BD0A38812AFBB80A37993
:109AF000A268BB71284B602012930E23E356149288
:109B0000A289BB73BA810CF002FD062301933633A0
:109B100000933A002900049B040001F03FFFD3E7C3
:109B20003C2128000AF017FE002829D0362202AB7B
:109B30009B8E12AFBB8002AB9B181B780832BB71A7
:109B4000154BA420129302AB9B18109A1B78149209
:109B5000059202AA928F5BB2BA81BB730CF0D7FC5C
:109B6000062304000293013B0193373300933A002C
:109B7000049B290001F0F8FB084B1C604434A3E768
:109B800048200CF0C4FC062204990400FFF736FFBD
:109B90009AE7C04600250020AC650200FC240020A6
:109BA00082B0F0B50400EDB06420739372920CF0B3
:109BB00082FB052210A8110009F026FC984911A883
:109BC000FFF7BEFB1925002221AB013D1A605A6048
:109BD0009A600C33002DF8D11522290014A8139592
:109BE00008F058F9A0680AF0CEF9FF210A90A068A1
:109BF00000F092FC8B4FA06800F058FB049507958D
:109C00000995884B9F4203D0874B9F4200DBFDE0C4
:109C1000A0680AF0BAF9A56884491AA8FFF7A8FA5B
:109C200078221AA9280000F0E3FB1AA809F003FB28
:109C300000237C4F04930326099B60680133334063
:109C4000099309F089FD0500606809F08CFD002288
:109C5000774B05929D420FDB013205922A00C832F4
:109C60000ADBAA22042192000591954204DC0596A4
:109C7000C82D01DC0222059200220692984210DBD8
:109C8000012306930300C8330BDBAA2304329B0095
:109C90000692984205DC03230693C82801DC013BA9
:109CA000069310A809F0A7FB624B00251E0008933D
:109CB00013ABEB5C012B05D172783178FE3310A821
:109CC000FFF7D2FA01350236192DF1D16B46182271
:109CD0009A5E6B4610A81421595E099BFFF7C4FADF
:109CE000002F02DB049B0F2B07D90023A0681A006A
:109CF0007430009310A909F094FB0026089B059A84
:109D00001B78934228D1089B069A5B78934223D113
:109D10002C2308AAD218935D012B1DD00C22079981
:109D20000CAD4A43280021680B92002209F09EFDE9
:109D300021A98C460B9A6244130007CD07C32C233C
:109D400008AAD31801229A55079B9B18DBB20793E8
:109D5000049B9B18DBB20493089B013602330893E3
:109D6000192ECBD164200CF0A6FA079B643F3FB2BA
:109D7000182B00D845E71A0021A91AA809F085FF79
:109D80006A461DAB23CB23C21B6813601A991B9A2A
:109D90001C9B206809F052FDE568002D0CD0264977
:109DA00012A8FFF7E5F91C2328001AAA12A90AF045
:109DB0009DFC12A809F03FFAA0680AF0E6F811A984
:109DC00012A8A56809F000FB00221C4B009212A902
:109DD00001932800130000F0ADFA12A809F0E7FA89
:109DE000FA2080000CF067FAA0680AF0CEF80A9911
:109DF000A06800F091FB11A809F0D9FA10A809F0A9
:109E0000D6FA6DB0F0BC08BC02B01847002F03D0E2
:109E1000049B0F2B00D00EE7A06800F047FA0AE77A
:109E20004D7202008C3C0000D18AFFFF927202004A
:109E300058FDFFFFB2720200A7720200DC050000AD
:109E4000F0B587B001930EAB1B88060003930D9B02
:109E50000D000093019B0C9F0292002B40D0002F1D
:109E600002D1009BDB073BD530200CF050FB0400F7
:109E7000103009F06FFA2000243009F003F9029B3A
:109E80001820258063800CF042FB0500009B08220F
:109E90000593019B002103600C30049707F0FAFF43
:109EA000082204A9281D07F043FF0E4B02226B6114
:109EB00000230399E3602362E36233680A433000BE
:109EC00021005B68A560A2809847002806D020008A
:109ED00009F065F920000CF012FB034807B0F0BD53
:109EE0000248FBE7AD38020016FCFFFF17FCFFFF3E
:109EF00070B58CB08360109B01604260C360040049
:109F0000184918000AF0BDFB051E14D001001C22E0
:109F1000103105A807F00CFF6A4608AB43CB43C2DB
:109F20001B68136020680599069A079B09F086FC58
:109F300028000CF0E4FA0C4B186800280ED00B4AED
:109F400005AB059200220692C03202926A4622CBED
:109F500022C2230003220621FFF772FF20000CB06B
:109F600070BDC046A7720200F0240020A19B010032
:109F7000F0B5040085B0637A9C46002B04D1200024
:109F800009F0A1FE05B0F0BDA37A266F019310235E
:109F9000019AF35600259B1801229A402900F36884
:109FA00003920293029BAB4231DDB068019B684390
:109FB000C01873694000E77A1A181B5C5078E27980
:109FC000012F14D1571E3F1A18003B004243606F07
:109FD00052008218D2189379634500DD6346627B94
:109FE0001A4202D00123AB4019430135DAE7022FB0
:109FF00007D0032FEAD1277A013FFF1A0300380068
:10A00000E4E7571EFB1A277A013F381ADEE71123CF
:10A01000C943F356606C994023691940039B194367
:10A020000CF009FAA27B072AACD8637B0C495B00D1
:10A030006373531CDBB290004158A373022A03D808
:10A0400008000CF02DF996E7064B2000236300234F
:10A050006363054BE462236414300BF0F2FF91E775
:10A0600034660200719F0100B13C020070B504002B
:10A07000104B250008330360FFF76CF820007430A4
:10A0800009F095F92000603009F091F9200058306E
:10A0900009F0D1F82000503009F0CDF8064B143506
:10A0A000280063610BF0BCFF280005F0F1FD2000E3
:10A0B00070BDC04654660200906D0200F8B50025E0
:10A0C0000400324B8580083303608571143016001C
:10A0D0000F0005F0C7FD20002D4BE562636125648C
:10A0E0005030FFF77FF820005830FFF77BF8200052
:10A0F0006030FFF7A5F820000423F25E336826677E
:10A10000590009B2743009F07FF93368226FE371A6
:10A1100073680126237210236581A7802561D356B9
:10A1200091685918994204DD300098400133054385
:10A13000F8E711230120D356D1685918994206DD5A
:10A1400002009A402669013332432261F6E7142067
:10A150000CF0DDF9226900212A430123060006F0F4
:10A160000DF8FF23220063720133A38100234832DC
:10A170006664A37320001370A366FEF7CDFF01236E
:10A18000A27920001343A371F8BDC04654660200B3
:10A19000A46D0200F0B5437A040085B0002B04D111
:10A1A000200009F090FD05B0F0BD0122837A110076
:10A1B0009C461023066F0025F35603926344994092
:10A1C00002912900F3680193019BAB422CDDB0683A
:10A1D0007369684360444000E77A1A181B5C507842
:10A1E000E279012F10D1571E3F1A18003B0042435D
:10A1F000606F52008218D2189379002B02D0039B13
:10A20000AB4019430135DFE7022F07D0032FEED112
:10A21000277A013FFF1A03003800E8E7571EFB1AB0
:10A22000277A013F381AE2E71123C943F356606CDD
:10A23000994023691940029B19430CF0FCF8667A97
:10A24000B31EDBB2FC2B14D8FEF714FF0B4B05003A
:10A25000236300230A4863630A4BFF217043E462CF
:10A26000236406F023FB29004143200014300BF047
:10A27000E8FE637A012B00D995E791E7C73C02001D
:10A28000B6030000B13C02001FB5012381881A000B
:10A29000684609F069F8012368461A00024909F086
:10A2A00063F805B000BDC046FE0300001FB5030003
:10A2B00048331A780400002A0DD000221A700123B6
:10A2C00081881A00684609F04FF8012368461A0091
:10A2D000034909F049F82000743009F08CF81FBDDB
:10A2E000FF03000010B50400230048331A78002A49
:10A2F00007D01B78012B04D00121024808F0A0FEF2
:10A30000F2E710BDFF03000010B501210400072093
:10A3100008F096FE064B984208D148342378002B6B
:10A3200004D02378012B01D020BFF7E710BDC04631
:10A3300016FCFFFF73B5079C0500002C1CDB060014
:10A3400048363078002802D03078012816D1069897
:10A350001BB2C0B20090280012B2743009F061F84C
:10A36000002C07D02B004A331C80002407234C35D7
:10A370002C803370200076BD014CFBE7014CF9E7DF
:10A3800017FCFFFF12FCFFFFF0B587B00D9C050026
:10A390000E0017000393002C21DBFFF7A3FF2B0017
:10A3A00048331B78DAB20292002B1AD1310005A88B
:10A3B00009F00AF80C9B3A0000932800039B0194D3
:10A3C00005A9FFF7B7FF05A808F0F1FF002C03D09F
:10A3D0002800FFF799FF029C200007B0F0BD024C57
:10A3E000FAE7024CF8E7C04617FCFFFF11FCFFFF3D
:10A3F000F8B50400171E1DDD060048363378002B23
:10A4000002D03378012B17D12200E3795632013B79
:10A41000137023000025200054331D80503008F0B5
:10A4200067FF23004A331F80022328004C34258015
:10A430003370F8BD0148FCE70148FAE717FCFFFF5D
:10A4400012FCFFFFF8B50400171E2DDD060048368C
:10A450003278002A02D03278012A27D15D42069B49
:10A46000FF331FD16B1D22001BB264321380230007
:10A47000200066331D70603008F0AEFF230000221C
:10A480006C331A70954200D03D0023004A331D8082
:10A49000079B00205A1E9341013F4C34053327800F
:10A4A0003370F8BD069BDEE70148FAE70148F8E79C
:10A4B00017FCFFFF12FCFFFFF0B504000F001600B1
:10A4C0001D0087B0002A1FDDFFF70CFF2300483373
:10A4D0001B78DAB20392002B18D1390005A808F0D6
:10A4E00073FF0D9B320001930C9B05A90093200084
:10A4F0002B00FFF7A7FF05A808F059FF2000FFF782
:10A5000003FF039807B0F0BD0148FBE70148F9E7F6
:10A5100017FCFFFF11FCFFFFFF2902D8417200204A
:10A5200070470148FCE7C04617FCFFFF13B5040065
:10A5300004A80078009020000BF0A1FC002801D1B5
:10A54000207516BD0048FCE70EFCFFFF13B50400A4
:10A5500004A80078009020000BF079FC002801D1BD
:10A56000207516BD0048FCE70EFCFFFF7FB50D000F
:10A5700011000F226A4404001E1E117015D0089BA2
:10A58000002B12DD012329000093FFF7DFFF0028D5
:10A5900008D10090320029002000089BFFF7C6FF79
:10A5A000002800D0024804B070BD0248FBE7C04656
:10A5B0000EFCFFFF17FCFFFFF7B506000D1E3ED097
:10A5C0000023022704690193002C34D0AA88A388B1
:10A5D00053403B422DD13A4222D1A368AA6893420C
:10A5E00027D12B88002B02D022889A4221D16B8858
:10A5F000002B02D062889A421BD1EB68E26893423A
:10A6000001D0002B15D17368002B01D02000984792
:10A61000A2880C4B1343A380019B0133019308E0F4
:10A62000A968A0680AF076FB0028DAD1AB883B4223
:10A63000D3D0E46AC8E7019B2000002B00DC02486D
:10A64000FEBDC0460080FFFF17FCFFFFF0B506000F
:10A650000D0085B000295DD001270469002C27D0AA
:10A660000221AA8800230A4202D0A3885B083B404B
:10A67000226829688A4215D1A068A968002B0FD0EA
:10A680000AF048FB00280DD0EB68E268934209D13C
:10A690000421625EA388002A06DB1F4805B0F0BDD6
:10A6A0008842F1D0E46AD9E75B045B0CA380F4E74D
:10A6B00030692A880100031E07D1356101236846ED
:10A6C000164908F051FE0020E8E71C88944206D2A3
:10A6D000DC6A1900002C0DD02300F6E723001C884B
:10A6E000944207D15F886C88A74203D8DC6A1900BE
:10A6F000002CF3D1884209D10B889A4204D305D1AA
:10A7000048886B88984201D9E962D6E7CB6AEB6248
:10A71000CD62D3E70248C1E716FCFFFFFD0300004E
:10A7200017FCFFFF064B10B51A00040008322C334B
:10A73000026083600830FEF773FA200010BDC04647
:10A740006C66020008B4024B9C46083808BC60479F
:10A7500025A7010008B4024B9C46083808BC604796
:10A76000FD4002000C4A002311002C32083110B5C4
:10A770004360838183738260036143618361838368
:10A78000016004000830FEF73DFA044B1A68002A05
:10A7900000D11C60200010BD6C660200F024002077
:10A7A00082B0F7B50125402609930CAB1B780469EC
:10A7B00008920193002C38D008AA238812889A4264
:10A7C00001D0002B29D108AA638852889A4201D06F
:10A7D000002B22D1FEF77AF90123002806D0C022EF
:10A7E000A3881340C03B5A425341DBB2019A9342C3
:10A7F00019D10422A35EA788002B14DB102208A91C
:10A80000A01807F095FA374209D1FEF75FF9002842
:10A8100005D021000748FEF7FBFAE46ACAE72000EA
:10A8200009F075FCF9E70025F7E72800FEBC08BC35
:10A8300002B018470F41020008B4024B9C4608388A
:10A8400008BC6047AB42020010B5024808F082FD28
:10A8500010BDC046B8200020F0B587B001930EAB04
:10A860001B88060003930D9B0D000093019B0C9F1A
:10A870000292002B40D0002F02D1009BDB073BD57A
:10A8800030200BF044FE0400103008F063FD20007F
:10A89000243008F0F7FB029B1820258063800BF022
:10A8A00036FE0500009B08220593019B00210360F2
:10A8B0000C30049707F0EEFA082204A9281D07F0CF
:10A8C00037FA0E4B02226B6100230399E360236287
:10A8D000E36233680A43300021005B68A560A28010
:10A8E0009847002806D0200008F059FC20000BF003
:10A8F00006FE034807B0F0BD0248FBE7F94202003C
:10A9000016FCFFFF17FCFFFFF0B516000025838043
:10A91000164A174B04008571026001814681057358
:10A9200018688C4689B0A8421DD0124A0595049239
:10A93000C02202926A4604AB82CB82C223002A0064
:10A940006146FFF789FFC022094B0A491868029245
:10A950006A46069106AB079582CB82C223002A0085
:10A960003100FFF779FF200009B0F0BDB0660200AA
:10A97000F02400202344020030B500240373012397
:10A98000034D05608471818082734373846030BDA0
:10A99000AC65020070B583790400DB0704D58068DC
:10A9A000002801D00BF0ABFDA3799B0704D5A0686C
:10A9B000002801D00BF0A3FDA3795B0709D5A023E4
:10A9C0000021154AA068DB00D150884201D00BF06D
:10A9D00096FDA3791B0708D5A568002D05D0280092
:10A9E0000AF009FA28000BF08AFDA379DB0605D5E9
:10A9F000A068002802D00368DB6898476023A2792A
:10AA00001A4205D0A068002802D003685B68984706
:10AA10000023A360A37170BD00700040F7B501264C
:10AA2000037B040033422CD082796123110019404A
:10AA300001911A4216D1FFF7ADFF18200BF067FD08
:10AA40000E230500E356677B18220199009307F057
:10AA500021FA3A00280000990BF08EFBA379A5603B
:10AA60003343A3716023A279A0681A4202D00BF08D
:10AA700027FAFEBD436940681B681840431E984191
:10AA8000F7E70148F5E7C04616FCFFFF012210B5C5
:10AA900083794173134204D080680BF013FC0020CB
:10AAA00010BD6022134203D080680BF010FAF6E765
:10AAB0000048F5E716FCFFFF70B5040000250C4BBD
:10AAC0000E0008338580857103602100183009F07D
:10AAD00059FD20002100203009F077FD054B2000B2
:10AAE000A680E5802572E560256165611C6070BD0A
:10AAF000C0660200042500208379DB0702D5C1600F
:10AB0000002070470048FCE716FCFFFF8379DB0755
:10AB100001D5C06870470148FCE7C04616FCFFFF3E
:10AB200070B545690400002D22D0037A032B21D88B
:10AB3000FFF7ECFFA8622C200BF0E9FC2C2200218F
:10AB4000050007F0A7F9002263695A62236993425E
:10AB500007D1636923610020237A65610133237281
:10AB600070BD1A005B6A002BFBD163695362F2E788
:10AB70000148F5E70148F3E717FCFFFF13FCFFFF6F
:10AB8000144B70B55A68144C002A03D000225A6046
:10AB90000132A2601A69002A17D0002119618023AE
:10ABA000DB000E4DE3582868012B0FD1A923DB00F1
:10ABB000E1584942FFF7A0FF2868FFF7B1FF2B6873
:10ABC0005A69074BE2500123A36070BDFFF794FF61
:10ABD000F9E7C046FC1000400010004004250020AA
:10ABE0000405000003000069002809D00221054A7D
:10ABF000D167426A1A611A7A013A1A72024B1960D5
:10AC00007047C04604E100E000E100E010B5002913
:10AC100003DB024B19600BF0DEF910BD08250020A4
:10AC200070B504001D0004AB1E7804F0D7FF2000AF
:10AC30000E4B40302360FEF7D5FA23002200013589
:10AC40004C331D700023E1215832013616700A3A48
:10AC5000A3646365138053809381D381013B2000FB
:10AC600063644902FFF7D2FF200070BD5C650200FB
:10AC7000F7B580277F053E697C690822113C744343
:10AC800005002100684607F053F8104B009A9A42DD
:10AC900019D0009300230193796928001339714377
:10ACA00009F0AAFC019A2800009909F0BDFC2100D6
:10ACB000280009F0A1FC79692200133928007143AA
:10ACC000B30809F0A3FC0198FEBDC046FECA00000F
:10ACD000F0B50D00ABB000210D920700302212A894
:10ACE0001E0007F0D7F8280007F0BEFA431C0C93AB
:10ACF000102B00D9B8E0202E00D9B5E0290038008B
:10AD000009F0BFFC0B90002854D129000C9A12A81E
:10AD100007F00EF832000D9916A807F009F8802305
:10AD20005B051A695D690B92113D6A4338005E69E3
:10AD30000D92FFF79DFF0D9B302208330021040088
:10AD40001EA80F9307F0A6F831000B9B1339594347
:10AD5000380009F051FC00230F9E0C930E930C9BBE
:10AD6000A34246DA310030221EA806F0E1FF12A904
:10AD70001EA807F035FA00282BD13D4938002200E3
:10AD80001091119409F050FC6A46099615AB23CB3B
:10AD900023C223CB23C223CB23C23800149B129996
:10ADA000139A09F04FFC01230E930C9B30360133AC
:10ADB0000C93D4E70B9832000D99103006F090FFF9
:10ADC00004000B980BF09BFB002C9ED120002BB0B5
:10ADD000F0BD6A46099621AB23CB23C223CB23C205
:10ADE00023CB23C238001E991F9A209B09F02AFC0E
:10ADF000DBE7E6433021F61726404E430F9B9E19B2
:10AE00000E9B002B1CD10B9B981E05F0C5FCA0428D
:10AE10002CD017490134380022001091119409F008
:10AE200003FC6A46099615AB23CB23C223CB23C26E
:10AE300023CB23C238001299139A149B09F002FC09
:10AE400038000D9909F0D8FB80235B0559690C2364
:10AE50000B9A133963434A433800110002330D9AA9
:10AE600009F0D4FB0024B1E7024CAFE7024CADE798
:10AE7000FECA000017FCFFFF13FCFFFF8023F0B5A4
:10AE80005B051A6995B002925A6905910299113AC7
:10AE900051435C69029B133C05005C430391FFF73F
:10AEA000E7FE061E3AD030220021083408A8039F8E
:10AEB00006F0F0FF2100280009F09EFB0023083770
:10AEC00001930493019BB34220DA3900302208A891
:10AED00006F02EFF059908A807F082F900280DD189
:10AEE0001A49721E28000691079209F09DFB012362
:10AEF0000493019B303701330193E3E722000C23D5
:10AF00003900280009F082FB3034F2E7049B002B63
:10AF100006D1320028000D4909F086FB0C4812E0EA
:10AF20002800039909F068FB80235B0559690C230D
:10AF3000029A13394A43734311002800039A0233DB
:10AF400009F064FB002015B0F0BDC046FECA000049
:10AF50000CFCFFFF70B50400A280FA220023080059
:10AF60000C49920008312160A3710B496061E260D5
:10AF7000A360638209F085FB051E09D00100200053
:10AF800002221031123006F0D3FE28000BF0B7FA7F
:10AF9000200070BDD8660200E472020030B50225C0
:10AFA0008379040087B02B4204D1FDF72BFEA379EF
:10AFB0001D43A571200009F0AAFB00281CD06B4698
:10AFC000DD1C280009F09AFB2B78002B17D001A874
:10AFD00009F092FB0321019AD3170B409B189B1099
:10AFE0002382FEF781F8E368A18818180123A06086
:10AFF0001A0002A808F0B8F9002007B030BD0122FD
:10B00000064B1A60064A51680029FCD000215160A5
:10B01000044A1268019201225A60DBE700C0004036
:10B02000FCC0004008C50040022802D10122014BAB
:10B030001A7070478329002070B5064D04002B78E4
:10B04000002B04D1044801F06DFF01232B70200078
:10B0500070BDC0468429002029B0010070B50C00E5
:10B0600007F0A7FF002810D00023144DA40A2B706E
:10B07000200009F060FB002803D00A200BF01BF928
:10B08000F6E72B78002BFCD070BD02210C4B0D4A4B
:10B0900099508021C90008005D58002DFCD0A121E5
:10B0A000C9005C5019580029FCD00021995080211A
:10B0B000C9005A58002AFCD0E6E7C0468329002080
:10B0C00000E0014004050000F8B50C0015001E006A
:10B0D00007F06FFF002811D00023174F3B7032009C
:10B0E0002900200009F025FB002803D00A200BF0DE
:10B0F000E2F8F4E73B78002BFCD0F8BD01220F49C1
:10B100000F488C4642508022D2008358002BFCD03E
:10B1100080270023FF009E4207DD9A00A958A15016
:10B12000C259002AFCD00133F5E700236246835060
:10B13000C359002BFCD0E0E7832900200405000060
:10B1400000E0014008B4024B9C46443808BC60470C
:10B150003B470200FA21F8B50389C90004005943AE
:10B16000324809F0EDFDFA21890005F015FB304F5A
:10B17000A17A2081380009F0E3FD23002600250094
:10B1800022894C33A072A0361A808C3500232A22E3
:10B190003178286808F006FF002844D11F235B227D
:10B1A0003178286808F0FEFE00283CD120235C227C
:10B1B0003178286808F0F6FE002834D101232C22CB
:10B1C0003178286808F0EEFE00282CD101232D22CA
:10B1D0003178286808F0E6FE002824D101232E22C9
:10B1E0003178286808F0DEFE00281CD1A17A3800EA
:10B1F00009F0A1FD0E22C3B23178286808F0D2FE12
:10B20000002810D1FA21238989005943074809F001
:10B2100092FD012303432A2231782868DBB208F02B
:10B22000C1FE002800D00348F8BDC046F866020001
:10B23000F06602000EFCFFFF08B4024B9C46443847
:10B2400008BC604755B10100074B10B51A00040057
:10B2500008323C3302604364443008F0ABFA20000B
:10B2600008F0D4F9200010BD5867020008B4024B62
:10B270009C46443808BC604749B2010008B4024B00
:10B280009C46443808BC604745470200F0B5042599
:10B290008379040089B02B4204D1FDF7B3FCA37974
:10B2A0001D43A57120009030FFF7B8FB0025A84290
:10B2B0000FD12300A033197820000C2305AE009392
:10B2C0008C30330001220068FFF750F9051E03D0CF
:10B2D000204D280009B0F0BDB1883088CABA0A21D3
:10B2E0009446F2887388D2BA02923789728902AE84
:10B2F00089191F2652BA0A80A17ADBBA4B4312B2CF
:10B300005B42C0BA03924843DA173240D3185B114C
:10B31000A361C3173340181863464B43D917314014
:10B32000C9186423029A49115B42FFBA21625F4344
:10B330000399C8335A434B43E2674011221DE06131
:10B34000A7672000D36708F0DAF92000443008F03E
:10B3500038FABEE70EFCFFFF08B4024B9C464438A7
:10B3600008BC60478DB20100F7B51E00040008ABB1
:10B370001B881500019309AB1A8800910AAB3100B4
:10B380001F88FEF7E1F820003A0031004430FEF754
:10B3900035FB134B20001A003C3363642300083252
:10B3A0002260009A8C331A60AB8890308380AB792E
:10B3B000AA6883710B4BA98903600E23EB56826048
:10B3C00022009C32118083732300019AA033032151
:10B3D0001A80FFF75BFB2000FFF7BCFE2000FEBDDC
:10B3E00058670200AC650200F8B5FA260189B6007C
:10B3F00004007143254809F0A3FC310005F0CCF9A5
:10B40000234FA17A2081380009F09AFC2500A07210
:10B41000583500232A222978606C08F0C3FD0028E3
:10B4200032D110232B222978606C08F0BBFD002854
:10B430002AD101232D222978606C08F0B3FD002861
:10B4400022D101232E222978606C08F0ABFD002860
:10B450001AD1A17A380009F06EFC0E22C3B2297805
:10B46000606C08F09FFD00280ED1218907487143C8
:10B4700009F061FC012303432A222978606CDBB2C6
:10B4800008F090FD002800D00248F8BDC067020017
:10B49000B86702000EFCFFFF10B50400034B083331
:10B4A000036008F0B3F8200010BDC0462068020019
:10B4B0007FB50425837904002B4204D1FDF7A2FB5C
:10B4C000A3791D43A57120004830FFF7A7FA002596
:10B4D000A8420DD1230058331978062302AE0093F9
:10B4E00001223300606CFFF741F8051E03D00D4DBB
:10B4F000280004B070BD002104200222A37A305637
:10B500007156B25659435A434343DB002362D2007B
:10B5100023685242C90020009B6AA261E1619847FA
:10B52000E6E7C0460EFCFFFFF8B504000F00190067
:10B5300006AB1E8807AB15001A88FEF705F80F4BFF
:10B540006764083323602300AA8848339A80AA7965
:10B55000A9689A710A4AA889A2640E22AA5621658E
:10B560002100543108809A730023A37123005833BB
:10B570001E802000FFF738FF2000F8BD2068020081
:10B58000AC65020010B50400034B0833036008F0FB
:10B5900011F9200010BDC046B4680200F0B50700E4
:10B5A0005C37040087B0002310223978806C08F0E3
:10B5B000F9FC00283BD103260F2502ABED1801232F
:10B5C000397808220093A06C2B00FEF7CFFF194BAF
:10B5D00098422CD02B78334203D06420FDF7B0FB87
:10B5E000EAE7FA262189144DB6007143280009F0D4
:10B5F000A7FB310005F0D0F82081A0231122397873
:10B60000A06C08F0CFFC002811D1A36C2189039312
:10B61000714328003F7809F08EFB01231843C3B221
:10B6200010223900039808F0BDFC002800D0014822
:10B6300007B0F0BD0EFCFFFF5468020070B508258E
:10B640008379040086B02B4204D1FDF7DBFAA3799D
:10B650001D43A57120004C30FFF7E0F9051E0DD009
:10B6600023005C331978062304AE009301223300D3
:10B67000A06CFEF77BFF051E03D00E4D280006B020
:10B6800070BD6423642132884942D2BA5343728820
:10B69000A363D2BA4A4362630E22B3886A445BBA98
:10B6A00013801BB24B43E363236820001B6A984757
:10B6B000E4E7C0460EFCFFFFF8B504000F001900D8
:10B6C00006AB1E8807AB15001A88FEF797F90D4BDD
:10B6D000A764083323602300AA884C339A80AA7990
:10B6E000A9689A71084AA889E2640E22AA5661657F
:10B6F0002100583108801E8220009A73FFF74EFF08
:10B700002000F8BDB4680200AC650200F0B5FA256F
:10B710000189234FAD0085B004006943380009F06A
:10B720000FFB290005F038F81E4EA17A2081300069
:10B7300009F006FB636CA072029323005833218941
:10B7400001931B7869433800039309F0F4FA072347
:10B750000343202203990298DBB208F023FC00285F
:10B760001AD1019B22221978606C102308F01AFC70
:10B77000002811D1019BA17A30001F78656C09F077
:10B78000DAFA80235B420343232239002800DBB22C
:10B7900008F008FC002800D0034805B0F0BDC04602
:10B7A000E8680200E06802000EFCFFFF10B504002C
:10B7B000034B0833036007F029FF200010BDC0468B
:10B7C00058690200F0B504258379040085B02B4246
:10B7D00004D1FDF717FAA3791D43A5712000483065
:10B7E000FFF71CF9051E0DD02300583319780623E6
:10B7F00002AE0093A8223300606CFEF7B7FE051E70
:10B8000003D0144D280005B0F0BD1F200023F25EC8
:10B81000D31703409B180222B15E5B11CA17024086
:10B8200052180421775E3380F9170140A07A521133
:10B830004343C919728049114243B18041435B427D
:10B84000E3612368524220009B6AA261216298470B
:10B85000D8E7C0460EFCFFFFF8B504000F00190042
:10B8600006AB1E8807AB15001A88FDF76DFE0F4B5F
:10B870006764083323602300AA8848339A80AA7932
:10B88000A9689A710A4AA889A2640E22AA5621655B
:10B890002100543108809A730023A3712300583388
:10B8A0001E802000FFF732FF2000F8BD586902001B
:10B8B000AC650200F7B5FA2504000189134EAD000E
:10B8C0006943300009F03CFA290004F065FF2700C5
:10B8D000A36C208100935C373B7881B269433000D0
:10B8E000019309F028FA6022C3B20199009808F088
:10B8F00059FB002807D1012362223978A06C08F097
:10B9000051FB002800D00248FEBDC0468C690200F1
:10B910000EFCFFFF10B50400034B0833036007F073
:10B9200049FF200010BDC046B46902007FB508255C
:10B93000837904002B4204D1FDF764F9A3791D43F8
:10B94000A57120004C30FFF769F8051E0DD02300CB
:10B950005C331978062302AE0093E8223300A06C12
:10B96000FEF704FE051E03D00B4D280004B070BD89
:10B970000223F25E96235B425A4362630021725EA9
:10B9800020005343A3630423F25E96235343E363EF
:10B9900023681B6A9847E8E70EFCFFFFF8B5040030
:10B9A0000F00190006AB1E8807AB15001A88FEF7BA
:10B9B00025F80D4BA764083323602300AA884C3375
:10B9C0009A80AA79A9689A71084AA889E2640E2225
:10B9D000AA5661652100583108801E8220009A73A2
:10B9E000FFF768FF2000F8BDB4690200AC650200F3
:10B9F00010B50400054B083303601C3007F01BFC36
:10BA00002000183007F017FC200010BDE06902008C
:10BA1000FF23F0B52C4E8DB033700023040069462F
:10BA20000088009303F0B0F9002802D16B469B78A0
:10BA30003370264D2B68DB68002B07D1002320884C
:10BA40001A00190008F0EEFE0DB0F0BD3378032B9C
:10BA5000F4D81F4901A8FDF78BFB2B6801A9DD680D
:10BA600004A807F03DFC280004A908F039FE0027CF
:10BA7000050004A807F0DFFBBD421ED029002022EC
:10BA8000103104A806F054F928000AF038FD317886
:10BA900004ABC9005918082202A806F049F901238D
:10BAA0000822208802A908F0BDFE0137002804D131
:10BAB0000C212088074A08F0B3FE01A807F0BBFB61
:10BAC000002FBBD0C0E7C0468020002018250020F2
:10BAD000EC720200FFFF0000F0B58379040091B022
:10BAE0005B071BD5FDF700FB00232269801A9941F3
:10BAF000994203D1F533FF3398420FD3A068002851
:10BB000008D0354B1D8809F093F9036815222900E8
:10BB10001B6A98470422A3799343A371A3799B07D7
:10BB200058D52E4E3368DB68002B4FD02C4F3B7816
:10BB3000032B4BD8284B2B491B8804A80193FDF7F6
:10BB400017FB336804A9DD6808A807F0C9FB08A93A
:10BB5000280008F0C5FD050008A807F06CFB0823C5
:10BB600002AAD3800198073B063206A908F05CFEC2
:10BB7000002D08D029002022103108A806F0D8F89E
:10BB800028000AF0BCFC3D7802ABDA88ED0008AB77
:10BB90005D19280006A906F0A3F8002813D0082292
:10BBA000280006A906F0C4F8336804A9DD6805A8D2
:10BBB00007F096FB2023280008AA05A908F096FDA7
:10BBC00005A807F038FB04A807F035FB0222A3798B
:10BBD0009343A37111B0F0BD2C290020182500203B
:10BBE00080200020EC720200F0B50400150085B042
:10BBF00001930AAB1F880BAB1B78461C02930EAB5C
:10BC00001B78102203930B7803704B8A0131438217
:10BC1000300006F08DF8656100250122019B278325
:10BC20006383039BE5832377029B2000F377A31CA8
:10BC3000DA770C9B0C26636223000D9A28332900C7
:10BC40001A705D7032009D702C3006F023F92000D0
:10BC5000064B3200A3632900E563403006F01AF971
:10BC60002000034B2565E36405B0F0BD3F480200AA
:10BC70003148020070B50D0009F0DAF804000368DD
:10BC8000002D09D15B699847FA2080006843074975
:10BC900004F082FDE08070BD9B6898478542F3D236
:10BCA000236820009B6898470500EDE771020000BB
:10BCB000F0B507001500A1B002C706006B4918A82F
:10BCC0001C0008F086FE2B1E03D0280006F0CCFADC
:10BCD00083B2012204920022039202920232019264
:10BCE00000932A0018A93800FFF77EFF330060494F
:10BCF000583318A8079308F06CFE231E03D02000C9
:10BD000006F0B2FA83B20122049200220392029258
:10BD1000023201920093220018A90798FFF764FFEE
:10BD200033005449AC3318A8089308F052FE269B00
:10BD3000002B03D0180006F097FA83B20122049278
:10BD4000002203920292023201920093269A18A9CD
:10BD50000898FFF749FF731CFF33474918A8099358
:10BD600008F037FE279B002B03D0180006F07CFA62
:10BD700083B2012204920022701C039202920232CA
:10BD800001920093279A18A9FF30FFF72DFF330087
:10BD90005533FF33394918A8099308F01AFE289B38
:10BDA000002B03D0180006F05FFA83B20122049240
:10BDB000002203920292023201920093289A18A95B
:10BDC0000998FFF711FF3300A933FF332C4918A856
:10BDD0000A9308F0FEFD299B002B03D0180006F003
:10BDE00043FA83B201220492002218AC0392029219
:10BDF0000232019200932100299A0A98FFF7F4FE7B
:10BE0000204B1B780B93002B2DD1079B1E491393BE
:10BE1000089B0DA81493731CFF331593099B12976D
:10BE200016930A9B12AD179308F0D3FD1D214920EC
:10BE300006AB1B7F1022237006ABDB8D638206AB43
:10BE4000C918C01805F074FF062323750B9B3068D2
:10BE5000A383A56108F0F0FF036821001B689847E1
:10BE60000122084B1A70300021B0F0BD292A0000D1
:10BE7000242A0000252A0000272A0000262A000084
:10BE8000282A0000852900200A18000070B5002526
:10BE900004000B4B8580083385710360C160183046
:10BEA000FDF7A0F920001C30FDF79CF90123621C6E
:10BEB000D377044A2000A56065611460A37170BD4A
:10BEC000E069020018250020FA2130B585B0040091
:10BED000012302226846890007F046FA074D2868C8
:10BEE000002809D008F0AEFD2188054B2A6819808A
:10BEF000022391790B43937105B030BD18250020C2
:10BF00002C29002010B50C0007290FD8806808F0F4
:10BF10008FFF074B195703685B6C984743425841A2
:10BF2000044B40421840044BC01810BD0348FCE7C6
:10BF30006B740200EA03000016FCFFFF17FCFFFF12
:10BF4000F0B5A04C0D00A544040007939AAB1B78F4
:10BF50009D4909A804930692FDF70AF920002900DB
:10BF60001C3007F0C5F9C020800000F0D1FF082088
:10BF70000AF0CDFA0700002100F0B0FE00210822EF
:10BF8000A7600FA805F086FF002315AD0E932B00C8
:10BF90000EAA43CA43C38D4B2900EB60002338002F
:10BFA0002B6108F02EFFA06808F042FF0822002154
:10BFB000059016A805F06EFF14200AF0A8FA844B2D
:10BFC0002A0015930300C2CAC2C3824B059EC360F8
:10BFD0000023A43603613368002B00D0ECE030600E
:10BFE000A06808F029FF08220021060016A805F025
:10BFF00051FF14200AF08BFA774B1593030086CD7E
:10C0000086C3764BC36000230361336B002B00D0E3
:10C01000D4E03063A06808F00BFF082200210590EF
:10C0200016A805F037FF14200AF071FA6C4B15AD15
:10C0300015932A000300C2CAC2C36A4B059EC3609F
:10C040000023983603613368002B00D0B8E03060DD
:10C05000012604AB1B7C04AA334308A930001374E7
:10C0600008F0E4FBA06808F0EBFE03685E495B6A39
:10C070009847A06808F0E4FE03685C499B6998470C
:10C08000A06808F0DDFE0023026800931768049999
:10C090003200B847049B002B0AD0200008F0DBFCDC
:10C0A000032805DDA06808F0CBFE0368DB6898472D
:10C0B00000260EAFB819073608F0F7FB1C2EF8D192
:10C0C000183E04ABA0680A975E7708F0B9FE0368D3
:10C0D0000AA91B699847A06808F0AAFE03680AA984
:10C0E0005B6D9847A06808F0A3FE03680021DB6D34
:10C0F0009847A06808F09CFE036802219B6D984752
:10C1000000212000FFF7FEFE18200AF000FAA168C7
:10C1100000F054FA364B374A1B68A1680393364B3C
:10C1200028001B6800250293344B0CAF1B68019359
:10C13000069B1B689B190093314B12681B68FFF725
:10C14000B7FD30200AF0E3F9079AA16800F0F6FA8B
:10C15000A06808F06DFE036839009B6A9847294B78
:10C16000A0680C93BD8008F063FE03683900DB6AA9
:10C1700098473100A06808F038FC099A09219378A3
:10C18000A068921908F044FCA06808F051FE322122
:10C190000571A068FFF76EFD04AB1B7FAB4204D0B6
:10C1A000A06808F045FE08F00AFC09A807F043F86B
:10C1B00095239B009D44F0BD036110E7036128E7D0
:10C1C000036144E7ACFDFFFFF87202004D48020036
:10C1D000C9BE01005B48020011BA010069480200B3
:10C1E000974802007748020009C201003DC20100E1
:10C1F0001425002010250020082000200C250020F8
:10C200000C2000200800100013B506226846FCF739
:10C21000BFFF094B1C68002C0AD0694601A807F033
:10C220005FF8200001A908F030FC01A807F003F82E
:10C23000684607F000F813BD18250020002373B5E9
:10C2400001AE0C0031000500019302F09DFD0028B5
:10C2500002D1B278064B1A70064B1868002806D037
:10C2600061426141044BC9B21D8008F016FC73BDE8
:10C2700080200020182500202C29002030B5284CD3
:10C28000A9B06A220D000DA8210005F051FD0DA9ED
:10C2900003A8FCF7DBFF03A906A807F095F8012324
:10C2A0000193013BFF3B00930533FF33642206A952
:10C2B0002800FEF701F906A807F079F821001922F5
:10C2C0006A3106A805F034FD05220024110006ABF2
:10C2D00004A807F0A0F804A905A807F075F8230042
:10C2E000220028000194009405A9FEF74DF805A846
:10C2F00007F05DF821002800FEF70EF9053405204F
:10C30000FCF71EFDFF2CF5D1FA208000FCF718FD8C
:10C3100004A807F04CF803A807F049F829B030BD8D
:10C32000E8730200F0B59C4B95B005921A6808239B
:10C3300004000F00D16C06A80B43D3649749FCF7A7
:10C3400017FF974907A8FCF713FF220000250DAE41
:10C3500030001C3206A906F0DAFF310007AA08A84F
:10C3600006F0D5FF300006F066FF631CDD77A0689D
:10C3700008F05EFD03685B6998477019073508F09F
:10C3800094FA1C2DF9D180230BADDB00AB80A068A3
:10C390000B9608F04DFD036829005B6D9847A06877
:10C3A00008F046FD036800219B6D9847A06808F0DF
:10C3B0003FFD0300002506000A331F22002118005C
:10C3C000039305F067FD039B3000DD7708F0EEFA7C
:10C3D0000621A06808F009FB089A09219378A06853
:10C3E000043208F015FBA06808F022FDC821057191
:10C3F000A068FFF73FFCA06808F01AFD0581A0685F
:10C4000008F016FD08F0DBFA3800FDF74FFF2000BA
:10C41000FCF7F8FB39002000FFF730FF390020005F
:10C4200008F04EFBFF230495039362690123160075
:10C430001E401A4232D05B4909A8FCF781FF09A9C6
:10C440000AA806F0C1FF00220AA913000192009277
:10C450003800FDF799FF0AA806F0A9FF049B002BFE
:10C4600047D1039B043B0393039B282B44DC3800F8
:10C4700007F08BFD039B002B00DC0496059807F06A
:10C4800085F9002806D0012362699A43130004222B
:10C490001343636109A806F08AFF0025042263693B
:10C4A000134234D0FF213800C826FEF735F80025A6
:10C4B000B600A36902229B5EAB4223DD200029B2B5
:10C4C000183006F03AFF0023010038001A007430DB
:10C4D000FCF786FF3000FCF733FC380007F055FD11
:10C4E000C820FCF72DFC0222636913420AD10135F2
:10C4F000DFE7039B0433B6E7039BFE2BBEDD00237F
:10C500000493BBE7FA208000FCF71AFC0025022206
:10C51000636913421ED01E0006321640134224D017
:10C52000214909A8FCF70CFF09A90AA806F04CFF4D
:10C5300000220AA91300019200923800FDF724FF9F
:10C540000AA806F034FF1948FCF7FAFB09A806F020
:10C550002EFF174D6420FCF7F3FB164B01359D426F
:10C5600000DC62E706F037FD5FE7134909A8FCF736
:10C57000E7FE09A90AA806F027FF330032000AA93E
:10C58000380001960096FDF7FFFE0AA806F00FFF9F
:10C5900009A806F00CFFDDE79C24002006730200CA
:10C5A00016730200187302005D730200983A0000CF
:10C5B0008C0A00008B0A00009A7302000022594B7B
:10C5C000F0B508330360060081600F001000A9B0C9
:10C5D0000BABD11801324870102AFAD119000F3A6A
:10C5E000514C1A700E32105D01310870013AFAD2C6
:10C5F000997B5A7B09020A4331000C3103912521B2
:10C600001B7813AD2B7002ABC918452302A81B1869
:10C610006A821800102205F08BFB039B64216B617A
:10C620000123002402AA2B7752181993093313709F
:10C630005B1802AA9B18210008221C701FA8EC831B
:10C640006C622C8505F026FC384B0822210024A8BA
:10C65000AB63EC63EC6205F01DFC354B02AAEB64A6
:10C6600046239B180322DA7722002C652C6405955B
:10C67000347306AD631901345A70102CFAD10123BA
:10C680002A002C482B700E33195C01321170013BCB
:10C69000FAD211212520AA7B6B7B12020BAC13432B
:10C6A0002A78638202ABC9182270C018102205F0E4
:10C6B0003FFB0123237505ABA36100233800A3834F
:10C6C00008F0BAFB036821001B68984713ABDB8BAB
:10C6D000B068B38208F0B0FB002203680092B18A10
:10C6E000039ADC680123A047B06808F0A5FB0700A7
:10C6F000142009F00CFF00220123040002610692BD
:10C70000290040C00832079305F012FB0A4BE36092
:10C71000BB69002B03D13000BC6129B0F0BD23619F
:10C72000F9E7C046F8690200737402003F4802004E
:10C730003148020083740200214B0200F0B500244E
:10C740000500774BD9B0083303608160C26075493A
:10C7500022008480847143A808F082FA2B001433ED
:10C760000126042706931223069A04960193009744
:10C77000230043A90394029419A8FFF735FA220075
:10C78000694943A808F06CFA0C232A000496103279
:10C7900001930097230043A9039402942EA8FFF766
:10C7A00023FA2200614911A808F05AFA2A001C3223
:10C7B000079208222300049601920097079A11A974
:10C7C0000394029443A8FFF70FFA2200584911A8D6
:10C7D00008F046FA542009F09AFE060012200123C0
:10C7E00004212A00019011A818320493009123001B
:10C7F00001000394300002941700FFF7F5F93000B0
:10C800004C4B0822119311AB1900AE62F562303027
:10C81000129405F08DFA484B0122B363330029339B
:10C820001A703800079903322C61EC6105F080FA28
:10C8300039000422069805F07BFA5E22032302A940
:10C840005218D377B2225218D3770A000732FF3238
:10C85000D377B21CD37719AB08932EAB220037499C
:10C860000993AC8543AB0CA80A930B9608F0F8F932
:10C8700028223C2002AB9B181B7802AA12181370C6
:10C8800002AB5B8F123002AA12181380292302A96F
:10C890005B181900113802AB1022C01805F048FAD5
:10C8A0005022042102AB9B185822197002AB9B182E
:10C8B00008AF1797A8681C8008F0BEFA036811A992
:10C8C0001B6898477A2202AB9B181B8854322B8432
:10C8D00002AB9B181B885432AB8402AB9B181B889D
:10C8E000A8686B8408F0A8FA0700142009F00FFE6E
:10C8F0000600134B0461082220C00CA90C930D9470
:10C9000005F016FA0F4BF360BB69A34206D128006D
:10C91000BE61FCF777F9280059B0F0BD3361F6E746
:10C92000046A0200B374020093740200A37402004C
:10C93000C3740200334C02009F4B0200D374020008
:10C94000B9C90100C94B0200F0B5040085B01F0051
:10C950000CAB1B8810300E001500019306F0FAFC9A
:10C960002000243006F08EFB26806580182009F018
:10C97000CEFD02AE050033000AAA03CA03C32F602E
:10C980002800082700213A000C3005F083FA3A000D
:10C990003100281D05F0CCF9064B022220006B6106
:10C9A00000230199A5600A43E360A2802362E36249
:10C9B00005B0F0BDF34B0200F0B58DB005904B888B
:10C9C000828C0D89CC689A420AD1032D38DD6288A9
:10C9D0002188012308A806F0C7FC043D0434F4E7CD
:10C9E000059A528C9A422BD1032D29DD059B3020CC
:10C9F000DF682388069363880793124B089300230C
:10CA0000099309F084FDC0236A460600029308AB2F
:10CA100003CB03C23000059B0699079AFFF794FFEA
:10CA20003B68310038005B689847002805D030002B
:10CA300006F0B5FB300009F062FD043D0434D3E795
:10CA40000DB0F0BDB14C020070B5040092B080682A
:10CA500008F029F902230100194018421AD1A38DC8
:10CA6000002B17D00C4B6A4604931023E568A18570
:10CA70000591029304AB41CB41C20A00230006A8F2
:10CA8000FFF762FF2B6828009B6806A9984706A855
:10CA900006F085FB12B070BDB14C0200002815D025
:10CAA000006041608260C360046145618661C76166
:10CAB000444604624C464462544684625C46C46206
:10CAC000644604636E46466374468463002A06D057
:10CAD000C46B043C043A25681560B442F9D18C6BF0
:10CAE000A6464E6BB546002B06D0CC6B043C043BEF
:10CAF0001D682560B442F9D10C6BA446CC6AA346EC
:10CB00008C6AA2464C6AA1460C6AA046CF698E691F
:10CB10004D690C69CB688A6808684968704700608D
:10CB200041608260C360046145618661C7614446BB
:10CB300004624C464462544684625C46C462644665
:10CB400004636E46466374468463C46B043C0439D4
:10CB500025680D60B442F9D1C769866945690469E1
:10CB60007047006041608260C36004614561866116
:10CB7000C761444604624C464462544684625C4643
:10CB8000C462644604636C46446374468463046907
:10CB90007047846BA646446BA546046BA446C46AE2
:10CBA000A346846AA246446AA146046AA046C769AD
:10CBB000866945690469C36882680068416870478E
:10CBC00010B5041E0CD005F04FFB431EE318A34222
:10CBD00008D922781978013B21705A700134F6E7A0
:10CBE000014810BD0020FCE717FCFFFFF0B585B041
:10CBF0000D1E009029D000260A27C217141A4B1EBA
:10CC0000544003932000029639000136019603F048
:10CC100033FFCB17C9185940039B30312000995579
:10CC2000390003F043FE041EECD1009B002B04DA14
:10CC30002D23029E019A0236AB5400232800AB55E7
:10CC4000FFF7BEFF200005B0F0BD014CFAE7C0467B
:10CC500017FCFFFF0268084B406810B5C018C00001
:10CC6000101803009A4205D81C688C4202D31800A1
:10CC7000083BF7E710BDC046FFFFFF1F70B5002857
:10CC800017D1124D2E68002E11D1083009F03FFC4B
:10CC9000066046600E4E04003368002B02D108F097
:10CCA00015FB306023682C609B00F3586360286894
:10CCB00070BD084A0123116807480C001C40194246
:10CCC000F6D1036044601360F2E7C04620250020DF
:10CCD0002C2500201C25002024250020002370B5D1
:10CCE00004000160436099420AD1064D2B68002B75
:10CCF00002D108F0EBFA286023689B00EB586360D0
:10CD0000200070BD2C250020436810B50400002BC6
:10CD100002D1044809F002FA606803681B69984769
:10CD200010BDC046E3740200436810B50400002B38
:10CD300002D1044809F0F2F9606803689B699847DA
:10CD400010BDC046E3740200436810B50400002B18
:10CD500002D1044809F0E2F9606803685B6A984709
:10CD600010BDC046E374020010B5040002F0C0FB21
:10CD7000034B1B68002B01D02000984710BDC04614
:10CD800034250020F0B58BB0050001F039FE0020FD
:10CD900000F010FC036806001B6998473368040024
:10CDA0009B6930009847336801905B6A3000984770
:10CDB0000200288810380B286CD803F0D9FC0648EC
:10CDC0006B6B6B656B6B6B716B83AF88200039008D
:10CDD00008F083FC22001623583216789C46143B38
:10CDE0003343A879697B1370012304AEB370002329
:10CDF000378032001F00AC44F0709818013307717F
:10CE0000062BFAD1002791723A00F3190137DA7232
:10CE1000062FFAD163463A007361E91D05A804F0B4
:10CE200087FF29000B2004AB3A000E31C01804F034
:10CE30007FFF94346368A360A06800282AD0C36889
:10CE400031009847A368002BF4D01B69F3E720005A
:10CE50002E49AE8808F041FC220002205832137897
:10CE6000A9798343137004AB1E809970A034636862
:10CE7000A360A06800280DD0C36804A99847A368E0
:10CE8000002BF4D01B69F3E75369002B02D0A8886C
:10CE9000A91D98472900019808F0F3FC0BB0F0BDDC
:10CEA000636E002BF6D0AE79A366A06E0028F1D099
:10CEB000C36831009847A36E002B01D1636EF3E77E
:10CEC0001B69F1E7012669460D27AB7BEF575A072F
:10CED0001E40920FDB080A720B730622E91D04A89C
:10CEE00004F026FF6A46127A04AB1A726A46127B75
:10CEF0009F715A72DE712B0020000F338C34079320
:10CF00008030236804A99847C4E7C046FFFF0000AB
:10CF100003000720D72B02D90020014A1360704775
:10CF200030250020014B18607047C0463425002092
:10CF30001FB58022A323D205DB00D3580820DB07CE
:10CF400000D4053048221C4B1C4902F03BFD002850
:10CF50000AD080B2002807D1BFF34F8F184B194A6F
:10CF6000DA60BFF34F8FFEE7002302A8029301337C
:10CF70000370154B1B68436007F06AFF002802D05E
:10CF8000072005B000BD684607F060FF0028F7D114
:10CF9000694607F059FF0028F2D10C4802F042FD23
:10CFA00080B20028EDD10A4802F046FD80B2002888
:10CFB000E7D100F01FF8E4E7554E020038250020C5
:10CFC00000ED00E00400FA053025002085CD0100C9
:10CFD00069CD010080B2002807D1BFF34F8F034B0A
:10CFE000034ADA60BFF34F8FFEE7704700ED00E0C1
:10CFF0000400FA051FB5104B01A80293283B0393C8
:10D00000112305220D49037007F030FF80B200287C
:10D010000FD18020800007F025FF80B2002808D1C2
:10D0200002A807F021FF80B2002802D107F018FF04
:10D0300080B205B000BDC046280090010675020010
:10D0400000487047FFFF0000F0B597B005930368F4
:10D0500007AD1B680491039311002B00060091C9D2
:10D0600091C30024D368210008220DA8EB602C6135
:10D0700004F010FF22000B4B10940F9311AB0C9493
:10D080001C70E11801344A70102CFAD15A820193B5
:10D09000059B2A00009330000499039C0CABA04729
:10D0A00017B0F0BD874F0200FC3070B5046C05006E
:10D0B000002C0DD1242009F02AFA064B446083612C
:10D0C000054B8460C46004614461C46103602864EA
:10D0D000286C70BDF06A0200D86B0200FC3070B59D
:10D0E000C56B0400002D11D1342009F010FA084B53
:10D0F00085604360074B45610361074B0562C3616F
:10D10000064BC5628362064BE0630360E06B70BD53
:10D11000206B0200106B0200806B0200906B02001B
:10D12000A06B02007FB503791548002B22D0154E65
:10D13000154C33782000002B1CD102AD280007F0DD
:10D14000FFFE002810D16B88592B0DD12B78AA88AF
:10D15000D91F012910D800920C4A2021200004F088
:10D16000FFFF0123337004E020222000084905F06E
:10D17000AFF8200004B070BD0092064AEDE7C0464B
:10D180000C750200A6290020862900202E750200B9
:10D19000267502004B75020010B50400024B08C052
:10D1A00007F0ADFF200010BD106B020010B50400A9
:10D1B000024B08C007F0B8FF200010BD206B020032
:10D1C000064B70B5040003604068002804D0056970
:10D1D00009F095F92800F8E7200070BD006B020007
:10D1E000064B70B5040003604068002804D0056950
:10D1F00009F085F92800F8E7200070BD306B0200C7
:10D20000064B70B5040003604068002804D005692F
:10D2100009F075F92800F8E7200070BD406B0200A6
:10D22000064B70B5040003604068002804D005690F
:10D2300009F065F92800F8E7200070BD806B020056
:10D24000064B70B5040003604068002804D00569EF
:10D2500009F055F92800F8E7200070BD246A0200A3
:10D26000064B70B5040003604068002804D00569CF
:10D2700009F045F92800F8E7200070BD346A020083
:10D28000064B70B5040003604068002804D00569AF
:10D2900009F035F92800F8E7200070BD446A020063
:10D2A000064B70B5040003604068002804D005698F
:10D2B00009F025F92800F8E7200070BD546A020043
:10D2C000064B70B5040003604068002804D005696F
:10D2D00009F015F92800F8E7200070BDF06A020097
:10D2E000064B70B5040003604068002804D005694F
:10D2F00009F005F92800F8E7200070BD906B0200E6
:10D30000FC3070B5046C0500002C0DD1242009F010
:10D31000FEF8064B44608361054B8460C460046181
:10D320004461C46103602864286C70BDF06A020027
:10D33000D86B0200134B70B508330360124B040026
:10D34000C3608023114A451CFF355B00C250280092
:10D3500008F066FE280002F09BFC20000C4BB83061
:10D36000E360FFF79DFF2000AC30FFF789FF20004E
:10D37000A030FFF775FF20006C30FFF761FF200041
:10D3800070BDC046046C02004C6C0200906D02003F
:10D39000646A0200F0B50500040087B0AC356B6824
:10D3A000AB60A868002807D0C36821009847AB6825
:10D3B000002BF4D01B69F3E72500B035286800285E
:10D3C00004D0066909F09BF83000F8E72200032139
:10D3D0005832137828608B43137023005C33187025
:10D3E00020000A3007F069FF2000343007F065FFA5
:10D3F000606E002804D0056909F081F82800F8E77C
:10D400002500983560662868002804D0066909F070
:10D4100076F83000F8E72600A43628603568002D3D
:10D4200005D02F69280009F06AF83D00F7E72900C8
:10D430003560082202A804F02DFD01AE2300320061
:10D4400001956C3383CA83C3094B08222900A36763
:10D45000E56702A804F01EFD23000195803307CE86
:10D4600007C32800034A90341A60256007B0F0BD56
:10D470006B4F02005D4F0200444AF0B50600C260E7
:10D48000A022434B0100083303601636002342827A
:10D490000400320085B003718360037483823531E8
:10D4A000137001329142FBD1802580222000AD0013
:10D4B000D2011100F377358438300093002300F057
:10D4C0007BFD2300210040331A0003932B0000252D
:10D4D0005F31157001328A42FBD1039A0321D5775F
:10D4E000220060321380137920008B4313712300D4
:10D4F00068331D70274B0C22E366002125677830C6
:10D5000004F0C8FC2300270088331D60224B083735
:10D51000A567FB67843700210C22380004F0BAFCB1
:10D520001E4B1F4AFB602300A0333D613D601A6023
:10D530001C4A5D60DA601C4A1D619A61DD61300041
:10D5400007F0BBFE039807F0B8FE184B601CE360C1
:10D550002300C4331D809D70FF3002F083FB8C23B9
:10D560005B00E55023001933FF335D618023104ACF
:10D570005B00E250230001222000FE3352425A8613
:10D58000023B9D63DD631D6405B0F0BD646A02006B
:10D59000046C0200246A02006B4F02005D4F02001F
:10D5A000346A0200446A0200546A02004C6C0200B1
:10D5B000A46D020070B5074D2B68002B07D1A02089
:10D5C000400008F0A4FF0400FFF756FF2C60286815
:10D5D00070BDC0468025002070B50C220D000021D2
:10D5E000040004F057FC00232361024B2000256057
:10D5F000E36070BD794F020070B500250400254B33
:10D6000029000360244B85808360244BC5604361FF
:10D61000234B85610362234B4562C362224B056342
:10D620008363C5634430FFF7D7FF200029005830DB
:10D63000FFF7D2FF200029006C30FFF7CDFF1B4B16
:10D64000220023602300F832803320C39342FCD1B0
:10D6500026001D00E936FF36280008220021083583
:10D6600004F018FCAE42F7D18E2300229B00E11893
:10D6700004C68E42FCD18E2300219B00E2540C4B49
:10D680000C4AE318A218198002339342FBD1200000
:10D6900070BDC046506B0200006B0200106B0200B0
:10D6A000206B0200306B0200406B0200D86C02005D
:10D6B0003A02000062020000024B0B600923136073
:10D6C0007047C0467075020010B504000020FFF7D7
:10D6D00071FF03681B6998470300F3331C708623AE
:10D6E0005B00C05003000021044AFC335A61044A25
:10D6F00099615A62F43008F0A4FC10BD99550200FB
:10D70000AB550200012110B5054A080002F0F4F9FA
:10D7100003005A1E93410B205B42184010BDC046C7
:10D72000C9D60100F0B593B0029000200C00FFF7BD
:10D7300041FF03685B6A984700F0DEFA030006A821
:10D74000002B0DD00023037105AB06930823037350
:10D750000AAB836000F098FB002803D013B0F0BD43
:10D76000037103730023237323710193029B019AB6
:10D77000BA331B7893423ED9072353431E00029AC3
:10D78000BB36D318BB331B789619022B2CD100253E
:10D7900006AF3B7BAB4220D9AB000393089BAA00AA
:10D7A0003000995808F0CEF900281AD0B868AB00BC
:10D7B000C118237BA6689C469A000B689351634668
:10D7C000013323733B7B5A1E954204D00B4D5B19EA
:10D7D0009B001B580B6006AB1A73019B0133DBB235
:10D7E000C3E70135EDB2D3E7237921689A0001330D
:10D7F00056502371F1E70020B0E7C046FFFFFF3F1E
:10D80000F0B5040008780D009BB0012846D04B8885
:10D81000032830D1A03B224A9BB2934229D88023CF
:10D82000AA880320DB019A4223D20AAB009312ABF1
:10D830006A46029326000023B836137113733378B7
:10D84000002B1DD104AF18220021380004F022FB68
:10D850002B7838003B7033783B726B46FB606B88EB
:10D860003B82AB887B8207F0B9FD03000320002BCD
:10D870000DD01BB0F0BD203B03200A4A9BB2CCE781
:10D8800069462000FFF74EFF0028DBD0F1E70122B8
:10D890005834217818000A432270EAE70220E8E7AA
:10D8A000603F0000E03F0000F0B59DB01E006B46F9
:10D8B00004001A70581C0622229D04F039FA002E2A
:10D8C0002ED0338802AA138073885380B388938044
:10D8D000F388D3800CAB04AE049314ABB360270081
:10D8E0000023B937337133733B78002B1ED10122EB
:10D8F0003B78022708A9134058000B784E60BB43C1
:10D900000343002D1AD12000323000789343104099
:10D9100003430B70A38D0B81E38D4B81238E17E0A6
:10D920001F4B029396239B040393D3E731002000FF
:10D93000FFF7F8FE0028DAD01DB0F0BDA8799343B8
:10D94000104003430B702B880B816B884B81AB8895
:10D95000684602AA8B8107F057FD031EECD0112800
:10D9600014D80B20032BE7D9181F0D280CD802F070
:10D97000FFFE150B0B09070B0B0B0B0B0B0B091306
:10D980000620D9E70420D7E70B20D5E7054A0B206E
:10D990009342D1D10738CFE70520CDE70720CBE769
:10D9A000320064000232000013B504680093A468DA
:10D9B00013000A000149A04716BDC046FFFF000042
:10D9C00037B506AC257804680195009324691300E7
:10D9D0000A000149A0473EBDFFFF0000F0B587B037
:10D9E00016000DAA0D00147800216A465180694680
:10D9F0000CAA128801930A80002C1AD101004279E6
:10DA0000F831A2420BD9E700CF5BB7421BD13021DE
:10DA10002034A40022580132D27F0A4215D16A462E
:10DA20003100280007F061FE0623002808D00323F8
:10DA300006E06A463100280007F057FE031EF6D1C3
:10DA4000180007B0F0BD0134DBE710210A40514255
:10DA50004A41002005930CAB0493194B02AC0132F0
:10DA60002680A270A0809D4207D1FFF7A3FD036826
:10DA70001B69984707F034FE05002100280007F0D5
:10DA800038FE002382B29A42DAD010000D4A0533E4
:10DA90009042D5D00FD801330828D1D0013B1128AE
:10DAA000CED06A463100280007F01FFE052300286B
:10DAB000C6D0023BC4E7044A06239042C0D0F0E738
:10DAC000FFFF00000330000001340000F0B5040047
:10DAD00099B008002E250C9100F0ECF906ABED187A
