:020000021000EC
:108000000040002015FD010051FD010053FD01005D
:108010000000000000000000000000000000000060
:1080200000000000000000000000000055FD0100FD
:10803000000000000000000057FD010059FD010094
:108040005BFD0100D5AB0100D10302005BFD010027
:108050005BFD0100000000008DFD01005BFD0100E3
:108060005BFD0100C5050200590202005BFD010035
:108070005BFD01005BFD01005BFD01005BFD01009C
:108080005BFD01005BFD01005BFD01005BFD01008C
:108090005BFD01002DFB0100A1FA01005BFD010069
:1080A0005BFD01005BFD010000000000000000001E
:1080B00000000000000000000000000000000000C0
:1080C0000448054B10B5834203D0044B002B00D06D
:1080D000984710BDAC200020AC200020000000001C
:1080E00006480749091A8B10C90FC91810B549105D
:1080F00003D0044B002B00D0984710BDAC200020CB
:10810000AC2000200000000010B5074C2378002BA5
:1081100009D1FFF7D5FF054B002B02D0044800E042
:1081200000BF0123237010BDC82000200000000004
:10813000F0750200054B10B5002B03D0044905482B
:1081400000E000BFFFF7CCFF10BDC04600000000FC
:10815000CC200020F0750200402292029A1A92462A
:108160007047C046154B002B00D1114B9D46FFF7C1
:10817000F3FF00218B460F461148124A121A09F0EC
:10818000B3FE0C4B002B00D098470B4B002B00D0BC
:1081900098470020002104000D000B4809F020FD45
:1081A00009F066FD200029000EF034F809F036FDD4
:1081B0000000080000000000000000000040002057
:1081C000B02000204C2A0020491C020010B50400F9
:1081D000034B036040300BF05FF8200010BDC04639
:1081E000BC6502000F2270B5012486B00B4E6A44B4
:1081F000107023003A2130000094172502F0D0F9C6
:1082000000236D442A003A2100933000230002F03D
:10821000B7F928780AF057FE06B070BD9C210020FF
:1082200070B50D48FA2500F015F96D000B480BF0FC
:10823000DEFA0028FAD10130FFF7D4FF0400032052
:10824000FFF7D0FF22000300054906480DF0A8FE05
:10825000280000F09FFDE9E7E420002074220020C0
:1082600029700200E820002010B5054C200000F025
:1082700039F82000034A04490EF06BF910BDC046DE
:10828000E4200020002000208D820100CA23144A2F
:108290009B0010B5C2501C330400C0180AF0FCFF4C
:1082A000D0239B00E0180AF0F7FF20009130FF3048
:1082B00001F08AFB20006930FF3001F085FB2000CF
:1082C000F03001F0FDFE2000D03002F055FA200021
:1082D000643007F07DFC201DFFF778FF200010BD03
:1082E000486A02001423F0B5040093B019220093E9
:1082F0001821043002F0BEFC230025002600643360
:108300001800B43513211093B83607F06DFC28001F
:108310000CF0E2F900221E2130000BF06CFE200070
:10832000D03002F049FA2300F03307211800464A02
:10833000119301F0EDFE20000027012369301A009F
:1083400011210097FF3001F04BFB200091300123F9
:1083500002221A210097FF3001F042FB2000B930C1
:10836000022201210323FF3002F0F8FA300001F06D
:108370003DF9E4235B00E050300001F08BFBE62385
:108380005B00E0500100E42220005200D130119B3C
:10839000A2580095FF3001F0D5FD2000E130290002
:1083A0000822FF3002F000FE782320000F93013BEB
:1083B0000E93033B0D93013B0C93013B0B93013B4D
:1083C0000A93013B0993013B0893013B0793013B4F
:1083D0000693013B0593013B0493013B0393013B4F
:1083E0000293013B0193F930013B65220093642124
:1083F000013BFF300BF020FECA239B002900E01850
:1084000003F06EFDD3239B00E018092102F07EFBF0
:10841000DD239B00E7501098032127700DF088FDA5
:1084200023002200200009499C33A0321C60116007
:108430005760074A02215A618030012207F058FD37
:10844000200013B0F0BDC046C4650200EB2E020050
:10845000D52E02000278F0B50123170004008FB07A
:108460001F401A4200D085E00300D0331800039368
:1084700000F000FB00F0E4F930200EF079F8050080
:1084800010300AF098FF280024300AF02CFE6F4BC1
:1084900018202B600EF06CF806006D4B0822390096
:1084A00004600C300C930D9709F01EFD0CA90822F6
:1084B000301D09F067FC674B290073611223039894
:1084C000AE60EF60AB802F62EF6202F0E9F8002847
:1084D00005D028000AF094FE28000EF041F8012390
:1084E00027002278B437134323705B4938000CF01F
:1084F000F9F800265949059038000CF0F3F83500DA
:108500000690642000F046FC049623006933FF3394
:10851000180007930BF06BF900282DD1059B002B59
:1085200034D1069B002B31D1DD254D494D48AD009E
:1085300000F0F4FC6359002B1CD100F0A1F80100FD
:108540000BA800F03FFE0CA80AF043FDCA239B00D5
:10855000E018069B0CAA0BA90093039B03F01AFDDD
:108560000CA80AF099FE0BA80AF096FECC239B00FB
:10857000E35863510FB0F0BD20009130FF300BF095
:1085800036F90028CAD0049B182BC7DC20006530C0
:10859000FF2329B232B2FF3000F090FE322000F00B
:1085A000F9FB049B01350133EDB20493052D02D193
:1085B00000250136F6B2049B192B0AD0059B002B2F
:1085C000A3D03800244902F083FC05980DF0C8FFC1
:1085D00002E0059B002BF4D1069B002B02D0180073
:1085E0000DF0BEFF1E491F4800F098FCCA239B00F7
:1085F000E3180893DD239B00E3580993002B1ED159
:1086000000F03EF801000BA800F0DCFD0CA80AF019
:10861000E0FC01230CAA0BA908980093039B03F02C
:10862000B9FC0CA80AF038FE0BA80AF035FECC23E2
:108630009B00E3580993DD23099A9B00E250210037
:10864000079A0898F03103F097FE5EE7FD030000FB
:108650005D2F02001D2F0200317002003C700200ED
:1086600000200020001C0020BFF34F8F024B034A64
:10867000DA60BFF34F8FFEE700ED00E00400FA057B
:10868000F0B58BB003AF19223800154909F07AFB19
:108690000023144D05266B7180235B055B6E2C0057
:1086A0000093012301933100009808F025F9080098
:1086B000019908F09BF80522009B56431B1A009372
:1086C000019B534301932B1B5343FB181B5C013C41
:1086D0006371054B9C42E6D102480BB0F0BDC04629
:1086E000827002007A29002075290020F0B595B02B
:1086F0001822002104000EA809F0F6FB13210EA891
:108700000DF066FD03210EA80DF00DFE464B1B6813
:10871000002B00D10133DBB2009300210123434A37
:1087200009A807F055FDFA239B009C429B411C4081
:1087300072B63F4B64211E683E4B20000593052511
:1087400008F0DEF86843503030180A210690200007
:1087500008F0D6F80A2108F0B9F9694350317118C8
:10876000200007910A2108F0B1F94D4350357619E0
:10877000089680260024B601009B002B52D004AD41
:108780000027032C02D180260024B6016B682A4AF8
:1087900002936300D3180022019258780299095C71
:1087A000039119788C4610216046014103980142DB
:1087B00004D0012090400199014301910132063318
:1087C000092AEAD1019B2A68D9431C4B09011940A7
:1087D000029B934224D1312F22DC002109A80DF005
:1087E0005BFEFA23139A0F99DB001068014219D03F
:1087F000013B002BF9D1FA23013401377600E4B2B2
:108800005B009F42BDD1043508ABAB42B8D1064BEB
:108810001B68002BB0D0009B013BDBB20093ABE7A1
:108820003143DBE7FFF720FF60240020F0FF00006A
:1088300004200020D17002009B700200F01F000095
:10884000F8B50023124C23600AF0E4FB002808D09E
:10885000042120000AF0DAFB002801D00D4B236030
:10886000F8BD0122A12704250B4B0C491A60226890
:10887000FF0048604E68002EFCD0DE591202013D18
:108880003243002DF5D1226001225A60E8E7C0464C
:108890005C240020ED5EBC0B00D00040FCD000400A
:1088A000F0B585B01F000AAB1B88060015000291C9
:1088B0000393002F1BD030200DF05AFE6B460400AE
:1088C0001989039BAAB200933B000AF07FFC33682E
:1088D000210030005B689847002806D020000AF08D
:1088E0008FFC20000DF03CFE024805B0F0BD0248B0
:1088F000FBE7C04616FCFFFF17FCFFFF0B4B70B5F4
:108900001C68002C10D0656D00F018FCA36C0029C9
:1089100001D1834206D820000AF0ADFB20000449B3
:108920000AF099FB2C00ECE770BDC04668240020DB
:1089300088240020F0B595B007932A4B04AC1E683C
:10894000049005910692002E49D0274B2588678810
:108950001C6800230293002C2DD0636D23480393E1
:10896000A36C190C9AB20B00854214D120488242A4
:1089700011D1002901D0B9420BD1029B002B08D1A3
:1089800020000AF078FB20001A490AF064FB01235A
:108990000293039CDFE7002A01D09542F9D1002918
:1089A00001D0BB42F5D120000AF065FB200011493F
:1089B0000AF051FBEDE7104BEB18012B0FD91023F8
:1089C0003A002900009308A80C4B0AF0FFFB33681B
:1089D00030009B6808A9984708A80AF011FC15B058
:1089E000F0BDC0466424002098240020FE0300004F
:1089F000FF0300008824002002FCFFFF35890100EE
:108A000010B572B60E4B1C68002C0ED020000AF078
:108A100032FB0023E3640B4BE36372B60A4B1A6824
:108A20001C60A26562B6200010BD62B65C200DF02D
:108A30009FFD5C220021040009F056FAE9E7C046D8
:108A400090240020004000208C240020074B10B50B
:108A50001C68E36CDB0706D5FFF7D2FF044B1860F8
:108A6000002800D00400200010BDC0469C24002037
:108A70006C240020F7B51E4C0123227816001E40FE
:108A80001A4233D11B4D2860FFF7BAFF1A4B1B491E
:108A900018600AF0E0FAFFF7B3FF194B1860194BA2
:108AA0004363194B8363286800280FD0C023174FF6
:108AB0003200174900933B00FFF7F2FEC0230093FA
:108AC00032003B0013492868FFF7EAFE0C200DF046
:108AD0004FFD0023838083710F4B03600F4B836036
:108AE00000F044FB0123227813432370F7BDC046F6
:108AF00080290020642400209C2400208824002059
:108B000094240020FC3F0020DB3002003589010066
:108B1000FF030000FE030000E4650200FD88010081
:108B2000024B1878012318407047C0468029002066
:108B3000F7B5134F04003B680E00002B1ED0114BFD
:108B40001B78DB071AD5FFF781FF050033042343A9
:108B500083640AF090FA28000B490AF07CFA0B4B68
:108B60000025E318012B07D9C02300933200210010
:108B7000074B3868FFF794FE2800FEBD054DFBE764
:108B800064240020802900209824002002FCFFFF9C
:108B90003589010016FCFFFFF7B506000D00170030
:108BA0000193002802D100242000FEBD0029FAD044
:108BB000FFF726FF041EF6D0074B019A43630660B9
:108BC000064B45608760002A00D0054B2000054910
:108BD000A3630AF040FAE7E7FC3F0020B53002004B
:108BE000C33002008824002070B5074B0E0011002E
:108BF0001A7805000123100018401A4203D03200F1
:108C00002800FFF7C9FF70BD80290020F8B50500D6
:108C1000EFF30884C36B006C1C1B6B6C1B1A9C422B
:108C20000FD91F23074E203437689C43002801D0FA
:108C300000F0D6F9200000F09FF92864001968645C
:108C40003760F8BD9C240020024B1868434258410D
:108C50007047C046882400200300002210B5044954
:108C600094006058002801D00132F9E7635010BD2C
:108C700070240020002310B5044A99008C588442C7
:108C800001D00133F9E70020885010BD7024002086
:108C900010B50024084BA200D058002802D0036869
:108CA0005B6898470134062CF4D1044B1B68002BF9
:108CB00000D120BF10BDC0467024002088240020B1
:108CC0000122F8B52C4B1B7813421CD02B4D2C687D
:108CD000E36C134218D002273B43E364284B1E6821
:108CE0000423F26C30001343F364636BF363FFF708
:108CF0008DFF3000716C03F03CFF2868C36C3B4271
:108D000001D003F070FFF8BD1E4F1F4E3A68306867
:108D1000002A0AD128601B0712D52C60FFF7B8FF84
:108D20003B68002BFAD02B600AE0216DB94219D1C3
:108D3000616D002900D1110029602A688242EAD0C1
:108D400029688C42DFD0336899420DD10F4B4B63B9
:108D50000F4B8B632000FFF759FF296820004B6CF5
:108D6000626C06E02A60E8E79C42F3D10022100022
:108D70004B6C03F0BDFEC6E7802900209C24002038
:108D80006C2400208824002094240020FC3F002034
:108D9000DB30020070B50C4B04001B78DB0702D4FB
:108DA0000DF0BAFA70BDFFF751FE050000F0C6F9EC
:108DB0002418AC6428000AF05EF9280003490AF080
:108DC0004AF9FFF77DFFEDE78029002068240020A5
:108DD000F8B51B4B1B78DB0727D50024194E3068EC
:108DE0000AF049F9184D2B68002B02D05B6D013455
:108DF000FAE7032C0ADD2F68013C7B6D386C2B6091
:108E000000F0EEF8380000F0EBF8F2E729003068E7
:108E10000AF021F972B60D4932680B68934206D107
:108E20009B6D0B6062B6FFF74BFFF8BD0B00002B8C
:108E3000F8D0996D8A42F9D1926D9A65F2E7C046F1
:108E4000802900209C240020902400208C240020D5
:108E500010B5034B1B78DB0701D5FFF7B9FF10BD39
:108E600080290020F7B505000C00002833D001262A
:108E70001B4B1B78334230D01A4F07233868C26C23
:108E80001100194000911A4207D021002800164A0B
:108E9000FFF7AAFE00252800FEBD03F08CFE3A680D
:108EA0000221D36C1800084001900B4203D001311D
:108EB0008B43D364EEE73343D3642000A8473A687A
:108EC000019DD36C1900B143D1645B07E3D5200049
:108ED000FFF7BEFFDFE7054DDDE7054DDBE7C046E9
:108EE000802900209C240020518E010017FCFFFFE8
:108EF00016FCFFFF020010B5014B12CB12C210BDD1
:108F0000A0240020034B1A68034B1A607E225A608B
:108F10007047C04604200020A0240020F0B5124E67
:108F200003003278022A1BD081421BD90C1A072C6D
:108F300018D90D0005430327280038403D4211D1C0
:108F400072B6BA40094DA4085351AA185160802244
:108F5000120614431C6033780133337062B6F0BDDF
:108F60000348FCE70348FAE782290020A8240020F0
:108F700013FCFFFF17FCFFFF70B5041E23D0124D3A
:108F8000124E2B78002B0CD1114912483370FFF789
:108F9000C5FF114B984202D11E20FFF7A7FB01230A
:108FA0002B7000253378AB4209DD0C49EB00200023
:108FB000C9180AF09CF8002805D10135F2E7142001
:108FC000FFF794FB002070BD81290020822900203A
:108FD00000380020502A002017FCFFFFA8240020A2
:108FE00010B5002817D000220F4B19780F4B914273
:108FF00015DD1C6884420FD25C6884420CD9041FC2
:109000002368002B02DC1E20FFF770FB8023226800
:109010001B061343236010BD01320833E7E71E200F
:10902000FFF764FBF7E7C04682290020A824002050
:1090300070B5051E14DD0B4E0B4C3368002B02D0AF
:1090400020680DF01EF8FA2120680024074B8900E3
:109050008361C462694335600DF024F8200070BD5F
:109060000348FCE7B8240020E824002019910100FF
:1090700017FCFFFFF8B5114F05003E68002E0AD11E
:1090800030200DF075FA040006F016FE0C4BA661B8
:109090002360E6623C600B4E3368002B09D1102040
:1090A0000DF066FA04000DF049F8200034600DF070
:1090B0001FF82800FFF7BCFFF8BDC046E8240020D9
:1090C000F06D0200E4240020014B18687047C04690
:1090D000B824002070B50D4C2368002B03D00C4B36
:1090E0001B68002B02D10620FFF7C4FF20680DF09B
:1090F00016F802000749C3170D684E6852197341EC
:1091000020680A604B600DF010F870BDE424002068
:10911000E8240020B020002010B5FFF7DBFF00247A
:10912000054BA200D058002802D003681B6898475E
:1091300001340A2CF4D110BDBC24002010B5FFF777
:10914000C9FFFA22034B920018685968002307F000
:10915000FDFC10BDB020002010B5FFF7BBFF024B97
:109160001868596810BDC046B02000200B4B10B5E0
:109170001B680400002B03D0094B1B68002B02D195
:109180000620FFF777FF0023064A99008858002839
:1091900001D00133F9E78C5010BDC046E424002013
:1091A000E8240020BC240020002310B5044A9900C4
:1091B0008C58844201D00133F9E70020885010BD5B
:1091C000BC24002010B50400002902D00B78002B2D
:1091D00003D1034B2360200010BD0AF064F8FAE7C6
:1091E000F4650200F8B504000E00150000290AD04D
:1091F0000B78002B07D0002A05D0080097B209F0A1
:109200005DF8874203D90B4B23602000F8BD681D31
:10921000FFF7B2FE20600AF0E9F920682A004780D3
:109220003100043008F0AEFD23685D1900232B7176
:10923000EBE7C046F4650200014B03607047C0468F
:10924000F465020010B50548054C20600AF0D1F91C
:109250002000044A04490DF07CF910BDF4650200B9
:10926000EC2400200020002099320200084B73B546
:109270001D680400002D0AD001002E680822083164
:10928000684608F07FFD0CCC28003168884773BD24
:10929000F0240020014B03607047C046FC650200CB
:1092A00010B50400081E03D1034B2360200010BD3D
:1092B00021600AF09EF9F9E7FC65020030B500680C
:1092C0004488A1420CDA8588AA4209DA002907DB22
:1092D000002A05DB6243401880188371002030BDEE
:1092E0000048FCE717FCFFFFF0B507000E001D006B
:1092F00085B0002921DD002A1FDD002B1DD0046868
:10930000638803938B4200DD0391A3880293934209
:1093100000DD0292002306340193019B029A9342DE
:109320000ED029002000039A08F02CFD3B68AD19EF
:109330005B88E418019B0133EEE7024805B0F0BDFD
:109340000020FBE717FCFFFFF8B504000D00160036
:109350001F00002901DB002A02DA0D4B2360F8BD53
:10936000100048430630FFF707FE20600AF03EF980
:1093700023685D809E80002F06D03B0032002900CC
:109380002000FFF7B1FFEAE720000AF065F8E6E702
:10939000FC650200F7B507000D1E03D1244B0360E6
:1093A0003800FEBD00240800260021000194037847
:1093B000002B1AD03022524294469C446246092A1D
:1093C00011D90A2B0AD1019B361901330193B142FD
:1093D00000DA3100002426000130E8E7002CFBD041
:1093E00000240136F8E70124F6E70126019A380047
:1093F00012B209B27642FFF7A7FF31000A203B689C
:109400009A1D2C78002CCBD02300303B092B08D898
:10941000F343DB17334043431B19303B1E00013538
:10942000EFE7002EFBDB16700E000132F7E7C046B7
:10943000FC650200F0B5050087B004A816001C000A
:109440000F00FFF757FD2B685A88964235DA9B8844
:109450009C4232DA1F2F30D9059B01939F422CDCAE
:1094600005217943049BA0395B1801932300621DF9
:109470000392019A1278029200222C68B718608831
:10948000B8420DDDA1888B420ADAE4191027174192
:109490005843029924180F40781E87417F42A771D4
:1094A0000132052AE9D1019A013301320192039A6E
:1094B0009342DED1002007B0F0BD0148FBE7C04673
:1094C00017FCFFFFF7B5036806009F1D5B880D00C2
:1094D0005A1A0192002919DD0024994203DB09F090
:1094E000BBFF002013E033689B889C42F9DA7919AE
:1094F0003800019A08F046FC019B2900F81809F091
:109500008EFF336801345B88FF18ECE70048FEBD2E
:1095100017FCFFFF10B50548054C20600AF069F8FC
:109520002000044A04490DF014F810BDFC65020047
:10953000F4240020002000201134020010B5054C56
:10954000012120000AF049F82000034A03490DF0E8
:1095500000F810BDF82400200020002099350200FA
:10956000074A030010B50120934208D0834202D07D
:109570000020DB0703D41E20FFF7B8F8002010BD41
:10958000FFFF00000048704716FCFFFF10B53220B7
:10959000FFF7ACF8004810BD16FCFFFF82801422D4
:1095A000002310B541620F4C0100083404600E2402
:1095B0000281123A837182720363838636310A789C
:1095C000C360A243036143618361C36103620A70A4
:1095D000021DD38701224287034AC2630200403240
:1095E000137010BD1C66020001000100F0B5564E5C
:1095F0000500376897B0002F00D090E006AC0B2331
:109600001C228221200001F0E1F90B231D2283217D
:109610000AA801F0DBF90B231B2284210EA801F01C
:10962000D5F908200CF0A4FF01223B0011000490A2
:109630000BF0BCFB3A2128000BF0D5F800281CD019
:10964000A38812AFBB80A379A268BB713F4B5C209B
:1096500012930E23E3561492A289BB73BA810CF0C5
:1096600087FF05230193353300933A002900049BBB
:10967000040001F083FF346051E0322128000BF038
:10968000E0F800281BD0A38812AFBB80A379A268A2
:10969000BB712E4B5C2012930E23E3561492A289C9
:1096A000BB73BA810CF064FF052301932D33009343
:1096B0003A002900049B040002F0F8F8DBE73C21A3
:1096C00028000BF079F8002834D0362202AB9B8EAC
:1096D00012AFBB8002AB9B181B780832BB711B4BCF
:1096E000A420129302AB9B18109A1B781492059237
:1096F00002AA928F5BB2BA81BB730CF039FF0623CA
:1097000004000293013B0193373300933A00049B1A
:10971000290001F053FE0E4B346044341C600C4BA6
:10972000094C1868002802D021680AF0CEF8206899
:1097300017B0F0BD44200CF01BFF05220499040073
:10974000FFF72CFF97E7C046FC2400200C660200C0
:1097500000250020F0B56349C56885B08D4258DA10
:10976000030036331C7802222300134014425BD1DD
:10977000026901928A4265DA020036321278520793
:109780006AD4426902920200029C40328C4270DA32
:10979000010036310978090775D4002B7ED1137882
:1097A0009C46002B16D00100061DF38F3631013385
:1097B0009BB2F3870391097801270C003C403942A2
:1097C00000D188E01D2B05D9039BB94319700023F4
:1097D000F387137009F059FF434A0723904277D962
:1097E0004249043B8D4273DBC8220133920095420B
:1097F0006EDC0198023B88426ADB013B904267DCE9
:1098000002980433884263DB0023904260DD063314
:109810005EE0C822002352009542A9DD03003633E2
:109820001A7800239207A3D4012306001F003636BE
:1098300032785408A7433C0002279C40BA43224395
:10984000327095E7C822019C5200944299DD0200D3
:1098500036321278520794D4012306001C003636A3
:1098600032789708BC43A7000424A2433A433270DD
:1098700087E7C821029C49008C428EDD0100363109
:109880000978090789D40100012636310B78DF08F1
:10989000BE430827F600BB4333430B701378032BFA
:1098A00000D97CE70133DBB21370012B03D1002117
:1098B000031DD98773E7042B00D070E7020036320E
:1098C0001178033B0B43137000230430C3870B3321
:1098D000180005B0F0BD092B00D87BE76346F4877C
:1098E000013B76E770FEFFFFFF700200E0FCFFFF28
:1098F000F0B5C369C1681A68451D0400EB7F89B0E3
:10990000114225D0002B57D10123A2791A4237D01A
:10991000002602226846A188A67109F056FDA31D03
:10992000DD7F012D2CD1FFF709FC3300226A801A5C
:1099300099410F000600A1889F4203D1FA239B00A2
:109940009E423BD30123042204A809F03EFD17E008
:109950000B2B01D80133EB77EB7F082B0DD90122BC
:10996000A37913420CD11343A188A37104A8130057
:1099700009F02BFDFFF7E2FB2062EB7F012BC3D93F
:109980000322A3791340012B14D1FFF7D7FB002347
:10999000226A801A9941994202D10A4B984209D908
:1099A0000223A279A1881343A3710522012304A8ED
:1099B00009F00BFD09B0F0BD013BCCE72B00032201
:1099C000C2E7C046DB05000010B50400034B0833B6
:1099D0000360FFF7E9FB200010BDC046506602009F
:1099E000F0B5060000250F00040085B002930AAB15
:1099F0001B78083603930F4B29000833036001924C
:109A0000858085711822300008F06EFA3900300028
:109A1000039A0CF0E2FB019B029AA380A31DE7715D
:109A2000DA77631D25622000DD77FFF79FFB2000BA
:109A300005B0F0BD506602000048704716FCFFFFFD
:109A400010B53320FEF752FE004810BD16FCFFFF94
:109A5000002310B50400838083710D482164083011
:109A600020608020C000A061E06120621100200021
:109A7000E360236163616362A362E3622363636300
:109A8000A363E363636409F0F8FE200010BDC046E1
:109A900068660200F0B5544E0500376897B0002F95
:109AA0003DD10B231C22822106A80AAC00F08EFFB8
:109AB0000B231D228321200000F088FF0B231B2293
:109AC00084210EA800F082FF08200CF051FD012235
:109AD0003B00110004900BF069F91D2128000AF0E9
:109AE00099FE002824D0A38812AFBB80A379A26876
:109AF000BB713E4B602012930E23E3561492A28951
:109B0000BB73BA810CF034FD062301931733009325
:109B10003A002900049B040001F0F8FD3460344B46
:109B2000314A1B681068002B00D0436417B0F0BDA9
:109B30003C2128000AF09CFE00281BD0A38812AF0D
:109B4000BB80A379A268BB71284B602012930E23BF
:109B5000E3561492A289BB73BA810CF009FD062367
:109B60000193363300933A002900049B040001F06E
:109B70003FFFD3E73C2128000AF01EFE002829D031
:109B8000362202AB9B8E12AFBB8002AB9B181B78B8
:109B90000832BB71154BA420129302AB9B18109A8C
:109BA0001B781492059202AA928F5BB2BA81BB73A2
:109BB0000CF0DEFC062304000293013B01933733D3
:109BC00000933A00049B290001F0F8FB084B1C604D
:109BD0004434A3E748200CF0CBFC0622049904008F
:109BE000FFF736FF9AE7C046002500200C6602000A
:109BF000FC24002082B0F0B50400EDB06420739323
:109C000072920CF089FB052210A8110009F02DFCBE
:109C1000984911A8FFF7BEFB1925002221AB013D91
:109C20001A605A609A600C33002DF8D11522290071
:109C300014A8139508F058F9A0680AF0D5F9FF2187
:109C40000A90A06800F092FC8B4FA06800F058FBCF
:109C5000049507950995884B9F4203D0874B9F42F7
:109C600000DBFDE0A0680AF0C1F9A56884491AA8E4
:109C7000FFF7A8FA78221AA9280000F0E3FB1AA837
:109C800009F00AFB00237C4F04930326099B6068BC
:109C900001333340099309F090FD0500606809F035
:109CA00093FD0022774B05929D420FDB0132059216
:109CB0002A00C8320ADBAA220421920005919542AB
:109CC00004DC0596C82D01DC0222059200220692D2
:109CD000984210DB012306930300C8330BDBAA2351
:109CE00004329B000692984205DC03230693C828A1
:109CF00001DC013B069310A809F0AEFB624B002586
:109D00001E00089313ABEB5C012B05D17278317800
:109D1000FE3310A8FFF7D2FA01350236192DF1D122
:109D20006B4618229A5E6B4610A81421595E099B57
:109D3000FFF7C4FA002F02DB049B0F2B07D9002387
:109D4000A0681A007430009310A909F09BFB00264C
:109D5000089B059A1B78934228D1089B069A5B784A
:109D6000934223D12C2308AAD218935D012B1DD036
:109D70000C2207990CAD4A43280021680B9200225F
:109D800009F0A5FD21A98C460B9A6244130007CD6A
:109D900007C32C2308AAD31801229A55079B9B18A6
:109DA000DBB20793049B9B18DBB20493089B01363C
:109DB00002330893192ECBD164200CF0ADFA079B27
:109DC000643F3FB2182B00D845E71A0021A91AA812
:109DD00009F08CFF6A461DAB23CB23C21B681360BE
:109DE0001A991B9A1C9B206809F059FDE568002D03
:109DF0000CD0264912A8FFF7E5F91C2328001AAA5F
:109E000012A90AF0A4FC12A809F046FAA0680AF008
:109E1000EDF811A912A8A56809F007FB00221C4B58
:109E2000009212A901932800130000F0ADFA12A8C5
:109E300009F0EEFAFA2080000CF06EFAA0680AF041
:109E4000D5F80A99A06800F091FB11A809F0E0FA92
:109E500010A809F0DDFA6DB0F0BC08BC02B01847DC
:109E6000002F03D0049B0F2B00D00EE7A06800F05A
:109E700047FA0AE7B17202008C3C0000D18AFFFF6A
:109E8000F672020058FDFFFF167302000B7302000A
:109E9000DC050000F0B587B001930EAB1B8806000F
:109EA00003930D9B0D000093019B0C9F0292002BCE
:109EB00040D0002F02D1009BDB073BD530200CF0B7
:109EC00057FB0400103009F076FA2000243009F026
:109ED0000AF9029B1820258063800CF049FB0500DD
:109EE000009B08220593019B002103600C3004971E
:109EF00007F0FAFF082204A9281D07F043FF0E4BC4
:109F000002226B6100230399E3602362E3623368FA
:109F10000A43300021005B68A560A28098470028B2
:109F200006D0200009F06CF920000CF019FB034862
:109F300007B0F0BD0248FBE70F39020016FCFFFF37
:109F400017FCFFFF70B58CB08360109B016042600E
:109F5000C3600400184918000AF0C4FB051E14D0A1
:109F600001001C22103105A807F00CFF6A4608AB5F
:109F700043CB43C21B68136020680599069A079B70
:109F800009F08DFC28000CF0EBFA0C4B1868002847
:109F90000ED00B4A05AB059200220692C032029207
:109FA0006A4622CB22C2230003220621FFF772FF5A
:109FB00020000CB070BDC0460B730200F0240020DE
:109FC000F59B0100F0B5040085B0637A9C46002B38
:109FD00004D1200009F0A8FE05B0F0BDA37A266FD9
:109FE00001931023019AF35600259B1801229A40F1
:109FF0002900F36803920293029BAB4231DDB06803
:10A00000019B6843C01873694000E77A1A181B5C0B
:10A010005078E279012F14D1571E3F1A18003B00E7
:10A020004243606F52008218D2189379634500DD75
:10A030006346627B1A4202D00123AB4019430135CB
:10A04000DAE7022F07D0032FEAD1277A013FFF1A60
:10A0500003003800E4E7571EFB1A277A013F381A3D
:10A06000DEE71123C943F356606C99402369194018
:10A07000039B19430CF010FAA27B072AACD8637B30
:10A080000C495B006373531CDBB290004158A3730F
:10A09000022A03D808000CF034F996E7064B20009A
:10A0A000236300236363054BE462236414300BF0E5
:10A0B000F9FF91E794660200C59F0100133D02007D
:10A0C00070B50400104B250008330360FFF76CF8EF
:10A0D0002000743009F09CF92000603009F098F9F4
:10A0E0002000583009F0D8F82000503009F0D4F89A
:10A0F000064B1435280063610BF0C3FF280005F000
:10A10000F1FD200070BDC046B4660200F06D020093
:10A11000F8B500250400324B858008330360857153
:10A12000143016000F0005F0C7FD20002D4BE5622E
:10A13000636125645030FFF77FF820005830FFF747
:10A140007BF820006030FFF7A5F820000423F25EC2
:10A1500033682667590009B2743009F086F933680C
:10A16000226FE37173680126237210236581A78033
:10A170002561D35691685918994204DD3000984002
:10A1800001330543F8E711230120D356D16859184C
:10A19000994206DD02009A4026690133324322616A
:10A1A000F6E714200CF0E4F9226900212A43012388
:10A1B000060006F00DF8FF23220063720133A3812D
:10A1C000002348326664A37320001370A366FEF771
:10A1D000CDFF0123A27920001343A371F8BDC0462F
:10A1E000B4660200046E0200F0B5437A040085B044
:10A1F000002B04D1200009F097FD05B0F0BD01222D
:10A20000837A11009C461023066F0025F3560392B3
:10A210006344994002912900F3680193019BAB428A
:10A220002CDDB0687369684360444000E77A1A180F
:10A230001B5C5078E279012F10D1571E3F1A18008D
:10A240003B004243606F52008218D2189379002B72
:10A2500002D0039BAB4019430135DFE7022F07D043
:10A26000032FEED1277A013FFF1A03003800E8E7F9
:10A27000571EFB1A277A013F381AE2E71123C94318
:10A28000F356606C994023691940029B19430CF006
:10A2900003F9667AB31EDBB2FC2B14D8FEF714FF69
:10A2A0000B4B0500236300230A4863630A4BFF211D
:10A2B0007043E462236406F023FB2900414320003D
:10A2C00014300BF0EFFE637A012B00D995E791E78C
:10A2D000293D0200B6030000133D02001FB5012313
:10A2E00081881A00684609F070F8012368461A0050
:10A2F000024909F06AF805B000BDC046FE0300003F
:10A300001FB5030048331A780400002A0DD000223C
:10A310001A70012381881A00684609F056F8012353
:10A3200068461A00034909F050F82000743009F01B
:10A3300093F81FBDFF03000010B50400230048334D
:10A340001A78002A07D01B78012B04D0012102487B
:10A3500008F0A7FEF2E710BDFF03000010B50121D1
:10A360000400072008F09DFE064B984208D14834AF
:10A370002378002B04D02378012B01D020BFF7E7EE
:10A3800010BDC04616FCFFFF73B5079C0500002CEE
:10A390001CDB060048363078002802D030780128CF
:10A3A00016D106981BB2C0B20090280012B27430C9
:10A3B00009F068F8002C07D02B004A331C800024D9
:10A3C00007234C352C803370200076BD014CFBE711
:10A3D000014CF9E717FCFFFF12FCFFFFF0B587B057
:10A3E0000D9C05000E0017000393002C21DBFFF7E6
:10A3F000A3FF2B0048331B78DAB20292002B1AD14C
:10A40000310005A809F011F80C9B3A0000932800D0
:10A41000039B019405A9FFF7B7FF05A808F0F8FF13
:10A42000002C03D02800FFF799FF029C200007B002
:10A43000F0BD024CFAE7024CF8E7C04617FCFFFFFC
:10A4400011FCFFFFF8B50400171E1DDD060048369D
:10A450003378002B02D03378012B17D12200E37917
:10A460005632013B137023000025200054331D8019
:10A47000503008F06EFF23004A331F80022328006B
:10A480004C3425803370F8BD0148FCE70148FAE7F9
:10A4900017FCFFFF12FCFFFFF8B50400171E2DDDAF
:10A4A000060048363278002A02D03278012A27D1B5
:10A4B0005D42069BFF331FD16B1D22001BB264322D
:10A4C00013802300200066331D70603008F0B5FF54
:10A4D000230000226C331A70954200D03D00230007
:10A4E0004A331D80079B00205A1E9341013F4C3484
:10A4F000053327803370F8BD069BDEE70148FAE795
:10A500000148F8E717FCFFFF12FCFFFFF0B504005D
:10A510000F0016001D0087B0002A1FDDFFF70CFF9B
:10A52000230048331B78DAB20392002B18D139008C
:10A5300005A808F07AFF0D9B320001930C9B05A93A
:10A54000009320002B00FFF7A7FF05A808F060FF8D
:10A550002000FFF703FF039807B0F0BD0148FBE7B9
:10A560000148F9E717FCFFFF11FCFFFFFF2902D8A4
:10A570004172002070470148FCE7C04617FCFFFF0E
:10A5800013B5040004A80078009020000BF0A8FC8C
:10A59000002801D1207516BD0048FCE70EFCFFFF26
:10A5A00013B5040004A80078009020000BF080FC94
:10A5B000002801D1207516BD0048FCE70EFCFFFF06
:10A5C0007FB50D0011000F226A4404001E1E117099
:10A5D00015D0089B002B12DD012329000093FFF703
:10A5E000DFFF002808D10090320029002000089BDE
:10A5F000FFF7C6FF002800D0024804B070BD024833
:10A60000FBE7C0460EFCFFFF17FCFFFFF7B5060097
:10A610000D1E3ED00023022704690193002C34D084
:10A62000AA88A38853403B422DD13A4222D1A36845
:10A63000AA68934227D12B88002B02D022889A4205
:10A6400021D16B88002B02D062889A421BD1EB6823
:10A65000E268934201D0002B15D17368002B01D022
:10A6600020009847A2880C4B1343A380019B013321
:10A67000019308E0A968A0680AF07DFB0028DAD100
:10A68000AB883B42D3D0E46AC8E7019B2000002B93
:10A6900000DC0248FEBDC0460080FFFF17FCFFFF44
:10A6A000F0B506000D0085B000295DD001270469D2
:10A6B000002C27D00221AA8800230A4202D0A388B6
:10A6C0005B083B40226829688A4215D1A068A968C6
:10A6D000002B0FD00AF04FFB00280DD0EB68E2688A
:10A6E000934209D10421625EA388002A06DB1F4839
:10A6F00005B0F0BD8842F1D0E46AD9E75B045B0C99
:10A70000A380F4E730692A880100031E07D1356170
:10A7100001236846164908F058FE0020E8E71C8827
:10A72000944206D2DC6A1900002C0DD02300F6E713
:10A7300023001C88944207D15F886C88A74203D805
:10A74000DC6A1900002CF3D1884209D10B889A42A7
:10A7500004D305D148886B88984201D9E962D6E7CD
:10A76000CB6AEB62CD62D3E70248C1E716FCFFFF7C
:10A77000FD03000017FCFFFF064B10B51A00040094
:10A7800008322C33026083600830FEF773FA200031
:10A7900010BDC046CC66020008B4024B9C46083887
:10A7A00008BC604779A7010008B4024B9C460838F2
:10A7B00008BC60475F4102000C4A002311002C32A4
:10A7C000083110B543608381837382600361436104
:10A7D00083618383016004000830FEF73DFA044B77
:10A7E0001A68002A00D11C60200010BDCC6602004F
:10A7F000F024002082B0F7B50125402609930CAB68
:10A800001B78046908920193002C38D008AA238889
:10A8100012889A4201D0002B29D108AA6388528855
:10A820009A4201D0002B22D1FEF77AF901230028A9
:10A8300006D0C022A3881340C03B5A425341DBB22A
:10A84000019A934219D10422A35EA788002B14DB3E
:10A85000102208A9A01807F095FA374209D1FEF78F
:10A860005FF9002805D021000748FEF7FBFAE46AEB
:10A87000CAE7200009F07CFCF9E70025F7E728008B
:10A88000FEBC08BC02B018477141020008B4024B7C
:10A890009C46083808BC60470D43020010B50248CA
:10A8A00008F089FD10BDC046B8200020F0B587B083
:10A8B00001930EAB1B88060003930D9B0D000093C4
:10A8C000019B0C9F0292002B40D0002F02D1009BD5
:10A8D000DB073BD530200BF04BFE0400103008F0B6
:10A8E0006AFD2000243008F0FEFB029B1820258022
:10A8F00063800BF03DFE0500009B08220593019B41
:10A90000002103600C30049707F0EEFA082204A936
:10A91000281D07F037FA0E4B02226B6100230399C2
:10A92000E3602362E36233680A43300021005B681E
:10A93000A560A2809847002806D0200008F060FC9F
:10A9400020000BF00DFE034807B0F0BD0248FBE706
:10A950005B43020016FCFFFF17FCFFFFF0B516007B
:10A9600000258380164A174B04008571026001811F
:10A970004681057318688C4689B0A8421DD0124ADA
:10A9800005950492C02202926A4604AB82CB82C231
:10A9900023002A006146FFF789FFC022094B0A49BC
:10A9A000186802926A46069106AB079582CB82C26E
:10A9B00023002A003100FFF779FF200009B0F0BD25
:10A9C00010670200F02400208544020030B5002406
:10A9D00003730123034D0560847181808273437387
:10A9E000846030BD0C66020070B583790400DB071B
:10A9F00004D58068002801D00BF0B2FDA3799B0735
:10AA000004D5A068002801D00BF0AAFDA3795B074C
:10AA100009D5A0230021154AA068DB00D150884247
:10AA200001D00BF09DFDA3791B0708D5A568002D6B
:10AA300005D028000AF010FA28000BF091FDA37948
:10AA4000DB0605D5A068002802D00368DB689847BC
:10AA50006023A2791A4205D0A068002802D00368BA
:10AA60005B6898470023A360A37170BD007000402D
:10AA7000F7B50126037B040033422CD08279612391
:10AA80001100194001911A4216D1FFF7ADFF1820AD
:10AA90000BF06EFD0E230500E356677B182201992B
:10AAA000009307F021FA3A00280000990BF095FB7B
:10AAB000A379A5603343A3716023A279A0681A42E9
:10AAC00002D00BF02EFAFEBD436940681B681840A7
:10AAD000431E9841F7E70148F5E7C04616FCFFFF23
:10AAE000012210B583794173134204D080680BF0C2
:10AAF0001AFC002010BD6022134203D080680BF0C6
:10AB000017FAF6E70048F5E716FCFFFF70B50400FA
:10AB100000250C4B0E0008338580857103602100F1
:10AB2000183009F060FD20002100203009F07EFD82
:10AB3000054B2000A680E5802572E56025616561F2
:10AB40001C6070BD20670200042500208379DB07AC
:10AB500002D5C160002070470048FCE716FCFFFFEB
:10AB60008379DB0701D5C06870470148FCE7C04620
:10AB700016FCFFFF70B545690400002D22D0037A52
:10AB8000032B21D8FFF7ECFFA8622C200BF0F0FC80
:10AB90002C220021050007F0A7F9002263695A6200
:10ABA0002369934207D1636923610020237A656199
:10ABB0000133237270BD1A005B6A002BFBD16369FD
:10ABC0005362F2E70148F5E70148F3E717FCFFFF9E
:10ABD00013FCFFFF144B70B55A68144C002A03D0C5
:10ABE00000225A600132A2601A69002A17D000219F
:10ABF00019618023DB000E4DE3582868012B0FD12B
:10AC0000A923DB00E1584942FFF7A0FF2868FFF7BE
:10AC1000B1FF2B685A69074BE2500123A36070BD56
:10AC2000FFF794FFF9E7C046FC1000400010004019
:10AC3000042500200405000003000069002809D055
:10AC40000221054AD167426A1A611A7A013A1A72D8
:10AC5000024B19607047C04604E100E000E100E0EB
:10AC600010B5002903DB024B19600BF0E5F910BDAC
:10AC70000825002070B504001D0004AB1E7804F008
:10AC8000D7FF20000E4B40302360FEF7D5FA23009B
:10AC9000220001354C331D700023E121583201366A
:10ACA00016700A3AA3646365138053809381D3813D
:10ACB000013B200063644902FFF7D2FF200070BD12
:10ACC000BC650200F7B580277F053E697C690822D4
:10ACD000113C744305002100684607F053F8104BFF
:10ACE000009A9A4219D000930023019379692800B1
:10ACF0001339714309F0B1FC019A2800009909F059
:10AD0000C4FC2100280009F0A8FC7969220013394D
:10AD100028007143B30809F0AAFC0198FEBDC046A3
:10AD2000FECA0000F0B50D00ABB000210D92070087
:10AD3000302212A81E0007F0D7F8280007F0BEFA4C
:10AD4000431C0C93102B00D9B8E0202E00D9B5E09D
:10AD50002900380009F0C6FC0B90002854D12900C6
:10AD60000C9A12A807F00EF832000D9916A807F0F9
:10AD700009F880235B051A695D690B92113D6A43EE
:10AD800038005E690D92FFF79DFF0D9B302208335E
:10AD9000002104001EA80F9307F0A6F831000B9BBA
:10ADA00013395943380009F058FC00230F9E0C93C7
:10ADB0000E930C9BA34246DA310030221EA806F007
:10ADC000E1FF12A91EA807F035FA00282BD13D4952
:10ADD000380022001091119409F057FC6A46099638
:10ADE00015AB23CB23C223CB23C223CB23C23800F2
:10ADF000149B1299139A09F056FC01230E930C9B95
:10AE0000303601330C93D4E70B9832000D99103093
:10AE100006F090FF04000B980BF0A2FB002C9ED1D3
:10AE200020002BB0F0BD6A46099621AB23CB23C28C
:10AE300023CB23C223CB23C238001E991F9A209B09
:10AE400009F031FCDBE7E6433021F61726404E439C
:10AE50000F9B9E190E9B002B1CD10B9B981E05F07F
:10AE6000C5FCA0422CD017490134380022001091B3
:10AE7000119409F00AFC6A46099615AB23CB23C24C
:10AE800023CB23C223CB23C238001299139A149BDD
:10AE900009F009FC38000D9909F0DFFB80235B0500
:10AEA00059690C230B9A133963434A433800110044
:10AEB00002330D9A09F0DBFB0024B1E7024CAFE747
:10AEC000024CADE7FECA000017FCFFFF13FCFFFFBA
:10AED0008023F0B55B051A6995B002925A69059115
:10AEE0000299113A51435C69029B133C05005C4393
:10AEF0000391FFF7E7FE061E3AD030220021083406
:10AF000008A8039F06F0F0FF2100280009F0A5FB28
:10AF10000023083701930493019BB34220DA3900E0
:10AF2000302208A806F02EFF059908A807F082F93C
:10AF300000280DD11A49721E28000691079209F0C7
:10AF4000A4FB01230493019B303701330193E3E712
:10AF500022000C233900280009F089FB3034F2E785
:10AF6000049B002B06D1320028000D4909F08DFB0F
:10AF70000C4812E02800039909F06FFB80235B0561
:10AF800059690C23029A13394A437343110028006C
:10AF9000039A023309F06BFB002015B0F0BDC046E8
:10AFA000FECA00000CFCFFFF70B50400A280FA226C
:10AFB000002308000C49920008312160A3710B495D
:10AFC0006061E260A360638209F08CFB051E09D01A
:10AFD0000100200002221031123006F0D3FE2800BA
:10AFE0000BF0BEFA200070BD386702004873020003
:10AFF00030B502258379040087B02B4204D1FDF7D8
:10B000002BFEA3791D43A571200009F0B1FB002898
:10B010001CD06B46DD1C280009F0A1FB2B78002B0F
:10B0200017D001A809F099FB0321019AD3170B400F
:10B030009B189B102382FEF781F8E368A1881818FB
:10B040000123A0601A0002A808F0BFF9002007B091
:10B0500030BD0122064B1A60064A51680029FCD017
:10B0600000215160044A1268019201225A60DBE714
:10B0700000C00040FCC0004008C50040022802D1CA
:10B080000122014B1A7070478329002070B5064DCC
:10B0900004002B78002B04D1044801F06DFF01233C
:10B0A0002B70200070BDC046842900207DB00100B7
:10B0B00070B50C0007F0AEFF002810D00023144D2F
:10B0C000A40A2B70200009F067FB002803D00A2097
:10B0D0000BF022F9F6E72B78002BFCD070BD022193
:10B0E0000C4B0D4A99508021C90008005D58002D75
:10B0F000FCD0A121C9005C5019580029FCD00021C6
:10B1000099508021C9005A58002AFCD0E6E7C04671
:10B110008329002000E0014004050000F8B50C0080
:10B1200015001E0007F076FF002811D00023174FEE
:10B130003B7032002900200009F02CFB002803D0CE
:10B140000A200BF0E9F8F4E73B78002BFCD0F8BDBF
:10B1500001220F490F488C4642508022D20083586A
:10B16000002BFCD080270023FF009E4207DD9A00C1
:10B17000A958A150C259002AFCD00133F5E7002399
:10B1800062468350C359002BFCD0E0E7832900209E
:10B190000405000000E0014008B4024B9C4644381E
:10B1A00008BC60479D470200FA21F8B50389C90031
:10B1B00004005943324809F0F4FDFA21890005F0F2
:10B1C00015FB304FA17A2081380009F0EAFD2300F9
:10B1D0002600250022894C33A072A0361A808C35B7
:10B1E00000232A223178286808F00DFF002844D176
:10B1F0001F235B223178286808F005FF00283CD126
:10B2000020235C223178286808F0FDFE002834D124
:10B2100001232C223178286808F0F5FE00282CD173
:10B2200001232D223178286808F0EDFE002824D172
:10B2300001232E223178286808F0E5FE00281CD171
:10B24000A17A380009F0A8FD0E22C3B2317828682F
:10B2500008F0D9FE002810D1FA212389890059432A
:10B26000074809F099FD012303432A223178286811
:10B27000DBB208F0C8FE002800D00348F8BDC04685
:10B2800058670200506702000EFCFFFF08B4024B33
:10B290009C46443808BC6047A9B10100074B10B573
:10B2A0001A00040008323C3302604364443008F062
:10B2B000B2FA200008F0DBF9200010BDB8670200E8
:10B2C00008B4024B9C46443808BC60479DB201005C
:10B2D00008B4024B9C46443808BC6047A7470200AC
:10B2E000F0B504258379040089B02B4204D1FDF721
:10B2F000B3FCA3791D43A57120009030FFF7B8FB84
:10B300000025A8420FD12300A033197820000C2378
:10B3100005AE00938C30330001220068FFF750F92E
:10B32000051E03D0204D280009B0F0BDB18830883B
:10B33000CABA0A219446F2887388D2BA029237892F
:10B34000728902AE89191F2652BA0A80A17ADBBA25
:10B350004B4312B25B42C0BA03924843DA17324001
:10B36000D3185B11A361C3173340181863464B43CE
:10B37000D9173140C9186423029A49115B42FFBAB8
:10B3800021625F430399C8335A434B43E26740113C
:10B39000221DE061A7672000D36708F0E1F92000D3
:10B3A000443008F03FFABEE70EFCFFFF08B4024B42
:10B3B0009C46443808BC6047E1B20100F7B51E0066
:10B3C000040008AB1B881500019309AB1A88009193
:10B3D0000AAB31001F88FEF7E1F820003A00310087
:10B3E0004430FEF735FB134B20001A003C336364F6
:10B3F000230008322260009A8C331A60AB889030A8
:10B400008380AB79AA6883710B4BA98903600E23F3
:10B41000EB56826022009C32118083732300019AD4
:10B42000A03303211A80FFF75BFB2000FFF7BCFE6F
:10B430002000FEBDB86702000C660200F8B5FA26CF
:10B440000189B60004007143254809F0AAFC3100C7
:10B4500005F0CCF9234FA17A2081380009F0A1FC36
:10B460002500A072583500232A222978606C08F044
:10B47000CAFD002832D110232B222978606C08F0F5
:10B48000C2FD00282AD101232D222978606C08F002
:10B49000BAFD002822D101232E222978606C08F001
:10B4A000B2FD00281AD1A17A380009F075FC0E22ED
:10B4B000C3B22978606C08F0A6FD00280ED121895E
:10B4C0000748714309F068FC012303432A222978C5
:10B4D000606CDBB208F097FD002800D00248F8BD90
:10B4E00020680200186802000EFCFFFF10B504007F
:10B4F000034B0833036008F0BAF8200010BDC046C3
:10B50000806802007FB50425837904002B4204D1B2
:10B51000FDF7A2FBA3791D43A57120004830FFF77A
:10B52000A7FA0025A8420DD1230058331978062325
:10B5300002AE009301223300606CFFF741F8051E54
:10B5400003D00D4D280004B070BD0021042002225C
:10B55000A37A30567156B25659435A434343DB00DF
:10B560002362D20023685242C90020009B6AA26174
:10B57000E1619847E6E7C0460EFCFFFFF8B504001E
:10B580000F00190006AB1E8807AB15001A88FEF7DE
:10B5900005F80F4B6764083323602300AA884833FB
:10B5A0009A80AA79A9689A710A4AA889A2640E2287
:10B5B000AA5621652100543108809A730023A37193
:10B5C000230058331E802000FFF738FF2000F8BD0D
:10B5D000806802000C66020010B50400034B0833BB
:10B5E000036008F018F9200010BDC046146902007D
:10B5F000F0B507005C37040087B0002310223978CB
:10B60000806C08F000FD00283BD103260F2502AB1B
:10B61000ED180123397808220093A06C2B00FEF767
:10B62000CFFF194B98422CD02B78334203D06420A3
:10B63000FDF7B0FBEAE7FA262189144DB600714305
:10B64000280009F0AEFB310005F0D0F82081A023DE
:10B6500011223978A06C08F0D6FC002811D1A36C17
:10B6600021890393714328003F7809F095FB01235A
:10B670001843C3B210223900039808F0C4FC002814
:10B6800000D0014807B0F0BD0EFCFFFFB468020017
:10B6900070B508258379040086B02B4204D1FDF7EC
:10B6A000DBFAA3791D43A57120004C30FFF7E0F9C8
:10B6B000051E0DD023005C331978062304AE0093D9
:10B6C00001223300A06CFEF77BFF051E03D00E4D58
:10B6D000280006B070BD6423642132884942D2BA82
:10B6E00053437288A363D2BA4A4362630E22B3887B
:10B6F0006A445BBA13801BB24B43E36323682000A8
:10B700001B6A9847E4E7C0460EFCFFFFF8B504004B
:10B710000F00190006AB1E8807AB15001A88FEF74C
:10B7200097F90D4BA764083323602300AA884C3394
:10B730009A80AA79A9689A71084AA889E2640E22B7
:10B74000AA5661652100583108801E8220009A7334
:10B75000FFF74EFF2000F8BD146902000C660200DE
:10B76000F0B5FA250189234FAD0085B00400694387
:10B77000380009F016FB290005F038F81E4EA17AB2
:10B780002081300009F00DFB636CA072029323004E
:10B790005833218901931B7869433800039309F0DA
:10B7A000FBFA07230343202203990298DBB208F037
:10B7B0002AFC00281AD1019B22221978606C1023E0
:10B7C00008F021FC002811D1019BA17A30001F78DC
:10B7D000656C09F0E1FA80235B42034323223900C0
:10B7E0002800DBB208F00FFC002800D0034805B0A9
:10B7F000F0BDC04648690200406902000EFCFFFF30
:10B8000010B50400034B0833036007F030FF20003D
:10B8100010BDC046B8690200F0B504258379040064
:10B8200085B02B4204D1FDF717FAA3791D43A5710A
:10B8300020004830FFF71CF9051E0DD023005833B7
:10B840001978062302AE0093A8223300606CFEF73D
:10B85000B7FE051E03D0144D280005B0F0BD1F2013
:10B860000023F25ED31703409B180222B15E5B11E6
:10B87000CA17024052180421775E3380F91701403D
:10B88000A07A52114343C919728049114243B180D1
:10B8900041435B42E3612368524220009B6AA261FC
:10B8A00021629847D8E7C0460EFCFFFFF8B50400B8
:10B8B0000F00190006AB1E8807AB15001A88FDF7AC
:10B8C0006DFE0F4B6764083323602300AA8848335A
:10B8D0009A80AA79A9689A710A4AA889A2640E2254
:10B8E000AA5621652100543108809A730023A37160
:10B8F000230058331E802000FFF732FF2000F8BDE0
:10B90000B86902000C660200F7B5FA250400018947
:10B91000134EAD006943300009F043FA290004F0EA
:10B9200065FF2700A36C208100935C373B7881B2D0
:10B9300069433000019309F02FFA6022C3B20199E4
:10B94000009808F060FB002807D1012362223978B3
:10B95000A06C08F058FB002800D00248FEBDC0468D
:10B96000EC6902000EFCFFFF10B50400034B083326
:10B97000036007F050FF200010BDC046146A0200AB
:10B980007FB50825837904002B4204D1FDF764F9C3
:10B99000A3791D43A57120004C30FFF769F8051EFF
:10B9A0000DD023005C331978062302AE0093E82201
:10B9B0003300A06CFEF704FE051E03D00B4D2800DB
:10B9C00004B070BD0223F25E96235B425A43626369
:10B9D0000021725E20005343A3630423F25E96238A
:10B9E0005343E36323681B6A9847E8E70EFCFFFFB5
:10B9F000F8B504000F00190006AB1E8807AB150050
:10BA00001A88FEF725F80D4BA7640833236023003E
:10BA1000AA884C339A80AA79A9689A71084AA88999
:10BA2000E2640E22AA5661652100583108801E8208
:10BA300020009A73FFF768FF2000F8BD146A020027
:10BA40000C66020010B50400054B083303601C307F
:10BA500007F022FC2000183007F01EFC200010BD6B
:10BA6000406A0200FF23F0B52C4E8DB033700023E6
:10BA7000040069460088009303F0B0F9002802D161
:10BA80006B469B783370264D2B68DB68002B07D103
:10BA9000002320881A00190008F0F5FE0DB0F0BD53
:10BAA0003378032BF4D81F4901A8FDF78BFB2B68D3
:10BAB00001A9DD6804A807F044FC280004A908F0E7
:10BAC00040FE0027050004A807F0E6FBBD421ED09B
:10BAD00029002022103104A806F054F928000AF0A9
:10BAE0003FFD317804ABC9005918082202A806F0BE
:10BAF00049F901230822208802A908F0C4FE013771
:10BB0000002804D10C212088074A08F0BAFE01A8B9
:10BB100007F0C2FB002FBBD0C0E7C046802000204A
:10BB20001825002050730200FFFF0000F0B5837954
:10BB3000040091B05B071BD5FDF700FB00232269D1
:10BB4000801A9941994203D1F533FF3398420FD3BC
:10BB5000A068002808D0354B1D8809F09AF90368C1
:10BB6000152229001B6A98470422A3799343A371E5
:10BB7000A3799B0758D52E4E3368DB68002B4FD036
:10BB80002C4F3B78032B4BD8284B2B491B8804A800
:10BB90000193FDF717FB336804A9DD6808A807F0D7
:10BBA000D0FB08A9280008F0CCFD050008A807F084
:10BBB00073FB082302AAD3800198073B063206A92B
:10BBC00008F063FE002D08D029002022103108A8BB
:10BBD00006F0D8F828000AF0C3FC3D7802ABDA88FA
:10BBE000ED0008AB5D19280006A906F0A3F80028AF
:10BBF00013D00822280006A906F0C4F8336804A967
:10BC0000DD6805A807F09DFB2023280008AA05A9E8
:10BC100008F09DFD05A807F03FFB04A807F03CFBDA
:10BC20000222A3799343A37111B0F0BD2C29002007
:10BC3000182500208020002050730200F0B5040079
:10BC4000150085B001930AAB1F880BAB1B78461C0F
:10BC500002930EAB1B78102203930B7803704B8A70
:10BC600001314382300006F08DF865610025012224
:10BC7000019B27836383039BE5832377029B20003B
:10BC8000F377A31CDA770C9B0C26636223000D9AD2
:10BC9000283329001A705D7032009D702C3006F038
:10BCA00023F92000064B3200A3632900E5634030EE
:10BCB00006F01AF92000034B2565E36405B0F0BDDA
:10BCC000A14802009348020070B50D0009F0E1F8A8
:10BCD00004000368002D09D15B699847FA208000B1
:10BCE0006843074904F082FDE08070BD9B68984777
:10BCF0008542F3D2236820009B6898470500EDE752
:10BD000071020000F0B507001500A1B002C70600DF
:10BD10006B4918A81C0008F08DFE2B1E03D02800CC
:10BD200006F0CCFA83B2012204920022039202921E
:10BD30000232019200932A0018A93800FFF77EFF13
:10BD400033006049583318A8079308F073FE231E88
:10BD500003D0200006F0B2FA83B20122049200223E
:10BD600003920292023201920093220018A90798CE
:10BD7000FFF764FF33005449AC3318A8089308F068
:10BD800059FE269B002B03D0180006F097FA83B2C9
:10BD90000122049200220392029202320192009345
:10BDA000269A18A90898FFF749FF731CFF334749E3
:10BDB00018A8099308F03EFE279B002B03D018001B
:10BDC00006F07CFA83B2012204920022701C0392D6
:10BDD0000292023201920093279A18A9FF30FFF7CE
:10BDE0002DFF33005533FF33394918A8099308F064
:10BDF00021FE289B002B03D0180006F05FFA83B2C7
:10BE000001220492002203920292023201920093D4
:10BE1000289A18A90998FFF711FF3300A933FF33B7
:10BE20002C4918A80A9308F005FE299B002B03D083
:10BE3000180006F043FA83B201220492002218ACE3
:10BE4000039202920232019200932100299A0A98E9
:10BE5000FFF7F4FE204B1B780B93002B2DD1079B93
:10BE60001E491393089B0DA81493731CFF3315935D
:10BE7000099B129716930A9B12AD179308F0DAFDEF
:10BE80001D21492006AB1B7F1022237006ABDB8DE2
:10BE9000638206ABC918C01805F074FF062323752A
:10BEA0000B9B3068A383A56108F0F7FF03682100AE
:10BEB0001B6898470122084B1A70300021B0F0BD72
:10BEC000292A0000242A0000252A0000272A000031
:10BED000262A0000282A0000852900200A180000D0
:10BEE00070B5002504000B4B858008338571036015
:10BEF000C1601830FDF7A0F920001C30FDF79CF957
:10BF00000123621CD377044A2000A5606561146098
:10BF1000A37170BD406A020018250020FA2130B5D7
:10BF200085B00400012302226846890007F04DFA1B
:10BF3000074D2868002809D008F0B5FD2188054B79
:10BF40002A681980022391790B43937105B030BDA3
:10BF5000182500202C29002010B50C0007290FD827
:10BF6000806808F096FF074B195703685B6C984789
:10BF700043425841044B40421840044BC01810BD86
:10BF80000348FCE7CF740200EA03000016FCFFFF41
:10BF900017FCFFFFF0B5A04C0D00A544040007936B
:10BFA0009AAB1B789D4909A804930692FDF70AF9FC
:10BFB000200029001C3007F0CCF9C020800000F0E0
:10BFC000D1FF08200AF0D4FA0700002100F0B0FEEB
:10BFD00000210822A7600FA805F086FF002315ADF9
:10BFE0000E932B000EAA43CA43C38D4B2900EB606E
:10BFF000002338002B6108F035FFA06808F049FFE6
:10C0000008220021059016A805F06EFF14200AF002
:10C01000AFFA844B2A0015930300C2CAC2C3824BF5
:10C02000059EC3600023A43603613368002B00D053
:10C03000ECE03060A06808F030FF08220021060024
:10C0400016A805F051FF14200AF092FA774B1593C9
:10C05000030086CD86C3764BC36000230361336B38
:10C06000002B00D0D4E03063A06808F012FF082253
:10C070000021059016A805F037FF14200AF078FA81
:10C080006C4B15AD15932A000300C2CAC2C36A4B9C
:10C09000059EC3600023983603613368002B00D0EF
:10C0A000B8E03060012604AB1B7C04AA334308A926
:10C0B0003000137408F0EBFBA06808F0F2FE036890
:10C0C0005E495B6A9847A06808F0EBFE03685C492C
:10C0D0009B699847A06808F0E4FE0023026800937B
:10C0E000176804993200B847049B002B0AD020003F
:10C0F00008F0E2FC032805DDA06808F0D2FE036822
:10C10000DB68984700260EAFB819073608F0FEFB2B
:10C110001C2EF8D1183E04ABA0680A975E7708F091
:10C12000C0FE03680AA91B699847A06808F0B1FE21
:10C1300003680AA95B6D9847A06808F0AAFE036827
:10C140000021DB6D9847A06808F0A3FE0368022178
:10C150009B6D984700212000FFF7FEFE18200AF093
:10C1600007FAA16800F054FA364B374A1B68A168F9
:10C170000393364B28001B6800250293344B0CAF09
:10C180001B680193069B1B689B190093314B126837
:10C190001B68FFF7B7FD30200AF0EAF9079AA1689B
:10C1A00000F0F6FAA06808F074FE036839009B6A94
:10C1B0009847294BA0680C93BD8008F06AFE03687D
:10C1C0003900DB6A98473100A06808F03FFC099A03
:10C1D00009219378A068921908F04BFCA06808F038
:10C1E00058FE32210571A068FFF76EFD04AB1B7F7E
:10C1F000AB4204D0A06808F04CFE08F011FC09A87E
:10C2000007F04AF895239B009D44F0BD036110E7B9
:10C21000036128E7036144E7ACFDFFFF5C730200A4
:10C22000AF4802001DBF0100BD48020065BA010011
:10C23000CB480200F9480200D94802005DC2010063
:10C2400091C20100142500201025002008200020A4
:10C250000C2500200C2000200800100013B5062239
:10C260006846FCF7BFFF094B1C68002C0AD06946E2
:10C2700001A807F066F8200001A908F037FC01A822
:10C2800007F00AF8684607F007F813BD18250020E4
:10C29000002373B501AE0C0031000500019302F0DC
:10C2A0009DFD002802D1B278064B1A70064B186823
:10C2B000002806D061426141044BC9B21D8008F0DC
:10C2C0001DFC73BD80200020182500202C29002093
:10C2D00030B5284CA9B06A220D000DA8210005F048
:10C2E00051FD0DA903A8FCF7DBFF03A906A807F081
:10C2F0009CF801230193013BFF3B00930533FF337F
:10C30000642206A92800FEF701F906A807F080F8C4
:10C31000210019226A3106A805F034FD0522002407
:10C32000110006AB04A807F0A7F804A905A807F0B8
:10C330007CF82300220028000194009405A9FEF750
:10C340004DF805A807F064F821002800FEF70EF963
:10C3500005340520FCF71EFDFF2CF5D1FA208000E6
:10C36000FCF718FD04A807F053F803A807F050F8ED
:10C3700029B030BD4C740200F0B59C4B95B00592CD
:10C380001A68082304000F00D16C06A80B43D3647D
:10C390009749FCF717FF974907A8FCF713FF2200FE
:10C3A00000250DAE30001C3206A906F0E1FF310079
:10C3B00007AA08A806F0DCFF300006F06DFF631C3A
:10C3C000DD77A06808F065FD03685B699847701920
:10C3D000073508F09BFA1C2DF9D180230BADDB004B
:10C3E000AB80A0680B9608F054FD036829005B6DD4
:10C3F0009847A06808F04DFD036800219B6D9847A1
:10C40000A06808F046FD0300002506000A331F223D
:10C4100000211800039305F067FD039B3000DD77D2
:10C4200008F0F5FA0621A06808F010FB089A092127
:10C430009378A068043208F01CFBA06808F029FD7E
:10C44000C8210571A068FFF73FFCA06808F021FD36
:10C450000581A06808F01DFD08F0E2FA3800FDF73C
:10C460004FFF2000FCF7F8FB39002000FFF730FFFA
:10C470003900200008F055FBFF23049503936269FF
:10C48000012316001E401A4232D05B4909A8FCF76E
:10C4900081FF09A90AA806F0C8FF00220AA9130013
:10C4A000019200923800FDF799FF0AA806F0B0FF4C
:10C4B000049B002B47D1039B043B0393039B282B36
:10C4C00044DC380007F092FD039B002B00DC04964F
:10C4D000059807F08CF9002806D0012362699A4379
:10C4E000130004221343636109A806F091FF00259D
:10C4F00004226369134234D0FF213800C826FEF7B6
:10C5000035F80025B600A36902229B5EAB4223DD0D
:10C51000200029B2183006F041FF00230100380046
:10C520001A007430FCF786FF3000FCF733FC38004B
:10C5300007F05CFDC820FCF72DFC02226369134262
:10C540000AD10135DFE7039B0433B6E7039BFE2BDB
:10C55000BEDD00230493BBE7FA208000FCF71AFC41
:10C5600000250222636913421ED01E0006321640C7
:10C57000134224D0214909A8FCF70CFF09A90AA8F5
:10C5800006F053FF00220AA913000192009238001E
:10C59000FDF724FF0AA806F03BFF1948FCF7FAFB59
:10C5A00009A806F035FF174D6420FCF7F3FB164B86
:10C5B00001359D4200DC62E706F03EFD5FE713496E
:10C5C00009A8FCF7E7FE09A90AA806F02EFF330028
:10C5D00032000AA9380001960096FDF7FFFE0AA86E
:10C5E00006F016FF09A806F013FFDDE79C240020E3
:10C5F0006A7302007A7302007C730200C173020046
:10C60000983A00008C0A00008B0A0000FE730200BA
:10C610000022594BF0B508330360060081600F001B
:10C620001000A9B00BABD11801324870102AFAD112
:10C6300019000F3A514C1A700E32105D013108701A
:10C64000013AFAD2997B5A7B09020A4331000C3134
:10C65000039125211B7813AD2B7002ABC91845231C
:10C6600002A81B186A821800102205F08BFB039B9E
:10C6700064216B610123002402AA2B7752181993BD
:10C68000093313705B1802AA9B18210008221C7042
:10C690001FA8EC836C622C8505F026FC384B082221
:10C6A000210024A8AB63EC63EC6205F01DFC354B64
:10C6B00002AAEB6446239B180322DA7722002C653A
:10C6C0002C640595347306AD631901345A70102C2F
:10C6D000FAD101232A002C482B700E33195C013249
:10C6E0001170013BFAD211212520AA7B6B7B12022B
:10C6F0000BAC13432A78638202ABC9182270C018AE
:10C70000102205F03FFB0123237505ABA361002335
:10C710003800A38308F0C1FB036821001B68984719
:10C7200013ABDB8BB068B38208F0B7FB0022036861
:10C730000092B18A039ADC680123A047B06808F030
:10C74000ACFB0700142009F013FF002201230400B2
:10C7500002610692290040C00832079305F012FBDF
:10C760000A4BE360BB69002B03D13000BC6129B0E8
:10C77000F0BD2361F9E7C046586A0200D774020091
:10C78000A148020093480200E7740200834B0200B4
:10C79000F0B500240500774BD9B008330360816001
:10C7A000C260754922008480847143A808F089FA28
:10C7B0002B0014330126042706931223069A0496AD
:10C7C00001930097230043A90394029419A8FFF74B
:10C7D00035FA2200694943A808F073FA0C232A00AD
:10C7E0000496103201930097230043A90394029406
:10C7F0002EA8FFF723FA2200614911A808F061FA78
:10C800002A001C3207920822230004960192009706
:10C81000079A11A90394029443A8FFF70FFA220084
:10C82000584911A808F04DFA542009F0A1FE06005D
:10C830001220012304212A00019011A81832049328
:10C840000091230001000394300002941700FFF7C9
:10C85000F5F930004C4B0822119311AB1900AE6270
:10C86000F5623030129405F08DFA484B0122B36323
:10C87000330029331A703800079903322C61EC61B8
:10C8800005F080FA39000422069805F07BFA5E2252
:10C89000032302A95218D377B2225218D3770A0081
:10C8A0000732FF32D377B21CD37719AB08932EAB84
:10C8B000220037490993AC8543AB0CA80A930B9629
:10C8C00008F0FFF928223C2002AB9B181B7802AA33
:10C8D0001218137002AB5B8F123002AA1218138069
:10C8E000292302A95B181900113802AB1022C018C5
:10C8F00005F048FA5022042102AB9B185822197007
:10C9000002AB9B1808AF1797A8681C8008F0C5FAFF
:10C91000036811A91B6898477A2202AB9B181B88F1
:10C9200054322B8402AB9B181B885432AB8402AB6D
:10C930009B181B88A8686B8408F0AFFA07001420C6
:10C9400009F016FE0600134B0461082220C00CA952
:10C950000C930D9405F016FA0F4BF360BB69A342DC
:10C9600006D12800BE61FCF777F9280059B0F0BD68
:10C970003361F6E7646A020017750200F77402007B
:10C980000775020027750200954C0200014C020059
:10C99000377502000DCA01002B4C0200F0B50400EF
:10C9A00085B01F000CAB1B8810300E0015000193E2
:10C9B00006F001FD2000243006F095FB26806580FE
:10C9C000182009F0D5FD02AE050033000AAA03CAFB
:10C9D00003C32F602800082700213A000C3005F01F
:10C9E00083FA3A003100281D05F0CCF9064B0222EB
:10C9F00020006B6100230199A5600A43E360A280D7
:10CA00002362E36205B0F0BD554C0200F0B58DB075
:10CA100005904B88828C0D89CC689A420AD1032DEF
:10CA200038DD62882188012308A806F0CEFC043D89
:10CA30000434F4E7059A528C9A422BD1032D29DD58
:10CA4000059B3020DF682388069363880793124B89
:10CA500008930023099309F08BFDC0236A46060062
:10CA6000029308AB03CB03C23000059B0699079ADB
:10CA7000FFF794FF3B68310038005B689847002857
:10CA800005D0300006F0BCFB300009F069FD043D24
:10CA90000434D3E70DB0F0BD134D020070B50400AF
:10CAA00092B0806808F030F9022301001940184262
:10CAB0001AD1A38D002B17D00C4B6A460493102378
:10CAC000E568A1850591029304AB41CB41C20A0000
:10CAD000230006A8FFF762FF2B6828009B6806A9C1
:10CAE000984706A806F08CFB12B070BD134D0200EB
:10CAF000002815D0006041608260C3600461456118
:10CB00008661C761444604624C464462544684626E
:10CB10005C46C462644604636E464663744684633E
:10CB2000002A06D0C46B043C043A25681560B44260
:10CB3000F9D18C6BA6464E6BB546002B06D0CC6B5C
:10CB4000043C043B1D682560B442F9D10C6BA4463B
:10CB5000CC6AA3468C6AA2464C6AA1460C6AA046DF
:10CB6000CF698E694D690C69CB688A680868496825
:10CB70007047006041608260C36004614561866106
:10CB8000C761444604624C464462544684625C4633
:10CB9000C462644604636E46466374468463C46B31
:10CBA000043C043925680D60B442F9D1C76986692F
:10CBB000456904697047006041608260C360046138
:10CBC00045618661C761444604624C4644625446EE
:10CBD00084625C46C462644604636C464463744683
:10CBE000846304697047846BA646446BA546046B56
:10CBF000A446C46AA346846AA246446AA146046A5B
:10CC0000A046C769866945690469C3688268006887
:10CC10004168704710B5041E0CD005F04FFB431E51
:10CC2000E318A34208D922781978013B21705A7081
:10CC30000134F6E7014810BD0020FCE717FCFFFFB8
:10CC4000F0B585B00D1E009029D000260A27C21726
:10CC5000141A4B1E544003932000029639000136EB
:10CC6000019603F033FFCB17C9185940039B3031AD
:10CC700020009955390003F043FE041EECD1009BBF
:10CC8000002B04DA2D23029E019A0236AB540023B6
:10CC90002800AB55FFF7BEFF200005B0F0BD014CEA
:10CCA000FAE7C04617FCFFFF0268084B406810B562
:10CCB000C018C000101803009A4205D81C688C42A6
:10CCC00002D31800083BF7E710BDC046FFFFFF1F67
:10CCD00070B5002817D1124D2E68002E11D10830E2
:10CCE00009F046FC066046600E4E04003368002BD7
:10CCF00002D108F01CFB306023682C609B00F358C5
:10CD00006360286870BD084A0123116807480C0059
:10CD10001C401942F6D1036044601360F2E7C0463C
:10CD2000202500202C2500201C2500202425002063
:10CD3000002370B504000160436099420AD1064D9A
:10CD40002B68002B02D108F0F2FA286023689B00C0
:10CD5000EB586360200070BD2C250020436810B59F
:10CD60000400002B02D1044809F009FA6068036846
:10CD70001B69984710BDC04647750200436810B54F
:10CD80000400002B02D1044809F0F9F96068036837
:10CD90009B69984710BDC04647750200436810B5AF
:10CDA0000400002B02D1044809F0E9F96068036827
:10CDB0005B6A984710BDC0464775020010B5040075
:10CDC00002F0C0FB034B1B68002B01D020009847EA
:10CDD00010BDC04634250020F0B58BB0050001F031
:10CDE00039FE002000F010FC036806001B6998471C
:10CDF000336804009B6930009847336801905B6A90
:10CE0000300098470200288810380B286CD803F0AF
:10CE1000D9FC06486B6B6B656B6B6B716B83AF8872
:10CE20002000390008F08AFC2200162358321678B8
:10CE30009C46143B3343A879697B1370012304AEED
:10CE4000B3700023378032001F00AC44F070981894
:10CE500001330771062BFAD1002791723A00F319BA
:10CE60000137DA72062FFAD163463A007361E91D81
:10CE700005A804F087FF29000B2004AB3A000E310F
:10CE8000C01804F07FFF94346368A360A068002892
:10CE90002AD0C36831009847A368002BF4D01B69DF
:10CEA000F3E720002E49AE8808F048FC220002205B
:10CEB00058321378A9798343137004AB1E8099709C
:10CEC000A0346368A360A06800280DD0C36804A9DB
:10CED0009847A368002BF4D01B69F3E75369002B34
:10CEE00002D0A888A91D98472900019808F0FAFCEB
:10CEF0000BB0F0BD636E002BF6D0AE79A366A06ECA
:10CF00000028F1D0C36831009847A36E002B01D1EF
:10CF1000636EF3E71B69F1E7012669460D27AB7BDA
:10CF2000EF575A071E40920FDB080A720B73062256
:10CF3000E91D04A804F026FF6A46127A04AB1A72AF
:10CF40006A46127B9F715A72DE712B0020000F33EC
:10CF50008C3407938030236804A99847C4E7C046FF
:10CF6000FFFF000003000720D72B02D90020014A51
:10CF70001360704730250020014B18607047C04691
:10CF8000342500201FB58022A323D205DB00D3580F
:10CF90000820DB0700D4053048221C4B1C4902F056
:10CFA0003BFD00280AD080B2002807D1BFF34F8F85
:10CFB000184B194ADA60BFF34F8FFEE7002302A82F
:10CFC000029301330370154B1B68436007F071FF38
:10CFD000002802D0072005B000BD684607F067FFB3
:10CFE0000028F7D1694607F060FF0028F2D10C480D
:10CFF00002F042FD80B20028EDD10A4802F046FD61
:10D0000080B20028E7D100F01FF8E4E7B74E020035
:10D010003825002000ED00E00400FA05302500204E
:10D02000D9CD0100BDCD010080B2002807D1BFF3EA
:10D030004F8F034B034ADA60BFF34F8FFEE7704711
:10D0400000ED00E00400FA051FB5104B01A80293A3
:10D05000283B0393112305220D49037007F037FF86
:10D0600080B200280FD18020800007F02CFF80B212
:10D07000002808D102A807F028FF80B2002802D1BA
:10D0800007F01FFF80B205B000BDC0462800900128
:10D090006A75020000487047FFFF0000F0B597B0C6
:10D0A0000593036807AD1B680491039311002B00DF
:10D0B000060091C991C30024D368210008220DA85D
:10D0C000EB602C6104F010FF22000B4B10940F93C7
:10D0D00011AB0C941C70E11801344A70102CFAD179
:10D0E0005A820193059B2A00009330000499039C07
:10D0F0000CABA04717B0F0BDE94F0200FC3070B593
:10D10000046C0500002C0DD1242009F031FA064BE7
:10D1100044608361054B8460C46004614461C46100
:10D1200003602864286C70BD506B0200386C0200EC
:10D13000FC3070B5C56B0400002D11D1342009F00E
:10D1400017FA084B85604360074B45610361074B45
:10D150000562C361064BC5628362064BE0630360F0
:10D16000E06B70BD806B0200706B0200E06B020030
:10D17000F06B0200006C02007FB503791548002BAC
:10D1800022D0154E154C33782000002B1CD102AD57
:10D19000280007F006FF002810D16B88592B0DD10D
:10D1A0002B78AA88D91F012910D800920C4A202177
:10D1B000200004F0FFFF0123337004E02022200050
:10D1C000084905F0AFF8200004B070BD0092064A8F
:10D1D000EDE7C04670750200A629002086290020D0
:10D1E000927502008A750200AF75020010B5040046
:10D1F000024B08C007F0B4FF200010BD706B0200A6
:10D2000010B50400024B08C007F0BFFF200010BD9E
:10D21000806B0200064B70B5040003604068002874
:10D2200004D0056909F09CF92800F8E7200070BDDA
:10D23000606B0200064B70B5040003604068002874
:10D2400004D0056909F08CF92800F8E7200070BDCA
:10D25000906B0200064B70B5040003604068002824
:10D2600004D0056909F07CF92800F8E7200070BDBA
:10D27000A06B0200064B70B50400036040680028F4
:10D2800004D0056909F06CF92800F8E7200070BDAA
:10D29000E06B0200064B70B5040003604068002894
:10D2A00004D0056909F05CF92800F8E7200070BD9A
:10D2B000846A0200064B70B50400036040680028D1
:10D2C00004D0056909F04CF92800F8E7200070BD8A
:10D2D000946A0200064B70B50400036040680028A1
:10D2E00004D0056909F03CF92800F8E7200070BD7A
:10D2F000A46A0200064B70B5040003604068002871
:10D3000004D0056909F02CF92800F8E7200070BD69
:10D31000B46A0200064B70B5040003604068002840
:10D3200004D0056909F01CF92800F8E7200070BD59
:10D33000506B0200064B70B5040003604068002883
:10D3400004D0056909F00CF92800F8E7200070BD49
:10D35000F06B0200FC3070B5046C0500002C0DD1A0
:10D36000242009F005F9064B44608361054B846075
:10D37000C46004614461C46103602864286C70BDAA
:10D38000506B0200386C0200134B70B50833036019
:10D39000124B0400C3608023114A451CFF355B001B
:10D3A000C250280008F06DFE280002F09BFC20000F
:10D3B0000C4BB830E360FFF79DFF2000AC30FFF767
:10D3C00089FF2000A030FFF775FF20006C30FFF7C9
:10D3D00061FF200070BDC046646C0200AC6C0200AE
:10D3E000F06D0200C46A0200F0B50500040087B0C9
:10D3F000AC356B68AB60A868002807D0C368210013
:10D400009847AB68002BF4D01B69F3E72500B035D3
:10D410002868002804D0066909F0A2F83000F8E76F
:10D42000220003215832137828608B4313702300A5
:10D430005C33187020000A3007F070FF2000343091
:10D4400007F06CFF606E002804D0056909F088F8C9
:10D450002800F8E72500983560662868002804D081
:10D46000066909F07DF83000F8E72600A436286048
:10D470003568002D05D02F69280009F071F83D00AE
:10D48000F7E729003560082202A804F02DFD01AE5F
:10D490002300320001956C3383CA83C3094B0822F1
:10D4A0002900A367E56702A804F01EFD230001958B
:10D4B000803307CE07C32800034A90341A602560E2
:10D4C00007B0F0BDCD4F0200BF4F0200444AF0B597
:10D4D0000600C260A022434B0100083303601636E9
:10D4E000002342820400320085B00371836003741C
:10D4F00083823531137001329142FBD18025802225
:10D500002000AD00D2011100F3773584383000934C
:10D51000002300F07BFD2300210040331A00039319
:10D520002B0000255F31157001328A42FBD1039A2E
:10D530000321D577220060321380137920008B43BA
:10D540001371230068331D70274B0C22E366002102
:10D550002567783004F0C8FC2300270088331D605D
:10D56000224B0837A567FB67843700210C2238005F
:10D5700004F0BAFC1E4B1F4AFB602300A0333D6140
:10D580003D601A601C4A5D60DA601C4A1D619A6148
:10D59000DD61300007F0C2FE039807F0BFFE184BB4
:10D5A000601CE3602300C4331D809D70FF3002F0D7
:10D5B00083FB8C235B00E55023001933FF335D614F
:10D5C0008023104A5B00E250230001222000FE333A
:10D5D00052425A86023B9D63DD631D6405B0F0BD77
:10D5E000C46A0200646C0200846A0200CD4F02002B
:10D5F000BF4F0200946A0200A46A0200B46A0200EB
:10D60000AC6C0200046E020070B5074D2B68002B55
:10D6100007D1A020400008F0ABFF0400FFF756FF41
:10D620002C60286870BDC0468025002070B50C2293
:10D630000D000021040004F057FC00232361024B7D
:10D6400020002560E36070BDDB4F020070B500254F
:10D650000400254B29000360244B85808360244B04
:10D66000C5604361234B85610362234B4562C362FE
:10D67000224B05638363C5634430FFF7D7FF200067
:10D6800029005830FFF7D2FF200029006C30FFF747
:10D69000CDFF1B4B220023602300F832803320C3D0
:10D6A0009342FCD126001D00E936FF3628000822EF
:10D6B0000021083504F018FCAE42F7D18E23002279
:10D6C0009B00E11804C68E42FCD18E2300219B00F2
:10D6D000E2540C4B0C4AE318A2181980023393420F
:10D6E000FBD1200070BDC046B06B0200606B020031
:10D6F000706B0200806B0200906B0200A06B020056
:10D70000386D02003A02000062020000024B0B601A
:10D71000092313607047C046D475020010B5040099
:10D720000020FFF771FF03681B6998470300F3337C
:10D730001C7086235B00C05003000021044AFC33A8
:10D740005A61044A99615A62F43008F0ABFC10BD8A
:10D75000FB5502000D560200012110B5054A0800D4
:10D7600002F0F4F903005A1E93410B205B4218406B
:10D7700010BDC0461DD70100F0B593B00290002047
:10D780000C00FFF741FF03685B6A984700F0DEFA80
:10D79000030006A8002B0DD00023037105AB0693F0
:10D7A000082303730AAB836000F098FB002803D0C2
:10D7B00013B0F0BD0371037300232373237101932E
:10D7C000029B019ABA331B7893423ED907235343F5
:10D7D0001E00029ABB36D318BB331B789619022B56
:10D7E0002CD1002506AF3B7BAB4220D9AB00039385
:10D7F000089BAA003000995808F0D5F900281AD0E3
:10D80000B868AB00C118237BA6689C469A000B68D9
:10D8100093516346013323733B7B5A1E954204D0D8
:10D820000B4D5B199B001B580B6006AB1A73019BD9
:10D830000133DBB2C3E70135EDB2D3E723792168C9
:10D840009A00013356502371F1E70020B0E7C0463B
:10D85000FFFFFF3FF0B5040008780D009BB00128E2
:10D8600046D04B88032830D1A03B224A9BB293423A
:10D8700029D88023AA880320DB019A4223D20AAB4D
:10D88000009312AB6A46029326000023B836137148
:10D8900013733378002B1DD104AF182200213800F8
:10D8A00004F022FB2B7838003B7033783B726B46D8
:10D8B000FB606B883B82AB887B8207F0C0FD030076
:10D8C0000320002B0DD01BB0F0BD203B03200A4AE3
:10D8D0009BB2CCE769462000FFF74EFF0028DBD063
:10D8E000F1E701225834217818000A432270EAE750
:10D8F0000220E8E7603F0000E03F0000F0B59DB087
:10D900001E006B4604001A70581C0622229D04F06B
:10D9100039FA002E2ED0338802AA138073885380E0
:10D92000B3889380F388D3800CAB04AE049314AB1C
:10D93000B36027000023B937337133733B78002B72
:10D940001ED101223B78022708A9134058000B780A
:10D950004E60BB430343002D1AD1200032300078C3
:10D960009343104003430B70A38D0B81E38D4B81D8
:10D97000238E17E01F4B029396239B040393D3E758
:10D9800031002000FFF7F8FE0028DAD01DB0F0BD0E
:10D99000A8799343104003430B702B880B816B884D
:10D9A0004B81AB88684602AA8B8107F05EFD031E9F
:10D9B000ECD0112814D80B20032BE7D9181F0D2801
:10D9C0000CD802F0FFFE150B0B09070B0B0B0B0B12
:10D9D0000B0B09130620D9E70420D7E70B20D5E766
:10D9E000054A0B209342D1D10738CFE70520CDE778
:10D9F0000720CBE7320064000232000013B5046850
:10DA00000093A46813000A000149A04716BDC04650
:10DA1000FFFF000037B506AC257804680195009338
:10DA2000246913000A000149A0473EBDFFFF000022
:10DA3000F0B587B016000DAA0D00147800216A46D3
:10DA4000518069460CAA128801930A80002C1AD1D1
:10DA500001004279F831A2420BD9E700CF5BB7420F
:10DA60001BD130212034A40022580132D27F0A4237
:10DA700015D16A463100280007F068FE0623002809
:10DA800008D0032306E06A463100280007F05EFE56
:10DA9000031EF6D1180007B0F0BD0134DBE71021FA
:10DAA0000A4051424A41002005930CAB0493194BA4
:10DAB00002AC01322680A270A0809D4207D1FFF700
:10DAC000A3FD03681B69984707F03BFE0500210092
:10DAD000280007F03FFE002382B29A42DAD01000FD
